:020000040000FA
:100000000C9458000C9480000C9480000C94800098
:100010000C9480000C9480000C9480000C94800060
:100020000C9480000C9480000C9480000C94800050
:100030000C9480000C9480000C9480000C94800040
:100040000C9496030C9480000C9480000C94800017
:100050000C9480000C9480000C9480000C94800020
:100060000C94E0030C9480000000000025002800A0
:100070002B00040404040404040402020202020229
:10008000030303030303010204081020408001025C
:1000900004081020010204081020000000080002DB
:1000A0000100000304070000000000000000FF043E
:1000B00011241FBECFEFD8E0DEBFCDBF11E0A0E01E
:1000C000B1E0E6EBF1E102C005900D92A831B10775
:1000D000D9F721E0A8E1B1E001C01D92AD3EB20721
:1000E000E1F710E0C8E5D0E004C02197FE010E94CE
:1000F000AE07C735D107C9F70E9414050C94D9087B
:100100000C9400000895089590E0FC01E656FF4F1E
:100110002491FC01EA57FF4F3491FC01EE58FF4F48
:10012000E491EE23C9F0222339F0233001F1A8F441
:10013000213019F1223029F1F0E0EE0FFF1FE859CC
:10014000FF4FA591B4918FB7F894EC91611126C03F
:1001500030953E233C938FBF08952730A9F0283077
:10016000C9F0243049F7809180008F7D03C08091D1
:1001700080008F7780938000DFCF84B58F7784BD38
:10018000DBCF84B58F7DFBCF8091B0008F778093DC
:10019000B000D2CF8091B0008F7DF9CF3E2BDACF67
:1001A0003FB7F8948091810190918201A0918301E1
:1001B000B091840126B5A89B05C02F3F19F0019688
:1001C000A11DB11D3FBFBA2FA92F982F8827BC01B1
:1001D000CD01620F711D811D911D42E0660F771FD9
:1001E000881F991F4A95D1F7089520915901260F2C
:1001F0003327331F21323105ECF42091B101FC018A
:1002000090E080E0243069F082E00895A0915901E7
:100210002191AC01475C5E4FA40FB52FB11D2C930B
:100220000196861798F380915901680F60935901E0
:1002300080E0089581E008951092B10181E08093FB
:10024000B00110928B0161E082E10E94840061E0C4
:1002500083E10E948400E9EBF0E080818E7F80835F
:1002600080818D7F808388E48093B80085E48093CB
:10027000BC000895CF93DF9391E0909338018823D9
:10028000B9F0C091B800D091BA008091BC008A7BCF
:100290008093BC0060E082E10E94840060E083E122
:1002A0000E9484000E941C01D093BA00C093B80041
:1002B000DF91CF9108958F929F92AF92BF92CF928C
:1002C000DF92EF92FF920F931F93CF93DF93D09122
:1002D000DA01D13208F0D7C0182FC091D9010E949D
:1002E000D0006B017C018091B10181116BC082E073
:1002F0008093B1011093B0018FEF8093AF01109202
:10030000AE01D093AD01A9EBB1E0EDE8F1E080E002
:10031000D81391C010928C0180918C01CC0FC82B06
:10032000C0938C0180918B01813009F088C01092BC
:100330008B010E94D0006B017C0180918C01809325
:10034000BB008091B3019091B401A091B501B0912F
:10035000B601892B8A2B8B2BA1F00E94D000009133
:10036000B3011091B4012091B5013091B6016C191F
:100370007D098E099F09061717072807390708F412
:1003800042C08091BC0083FDD8CF85EC8093BC0037
:100390000E94D0006B017C018091B101823009F490
:1003A00050C08091AF018F3F09F46FC08091AF01C1
:1003B000803209F46CC08091AF01803309F469C0C8
:1003C00084E026C08091B3019091B401A091B50161
:1003D000B091B601892B8A2B8B2B09F484CF0E9414
:1003E000D0008090B3019090B401A090B501B0907E
:1003F000B6016C197D098E099F0986169706A80615
:10040000B90608F070CF8091B2010E943A0185E0F0
:100410001092B8011092DA011092B701DF91CF91DA
:100420001F910F91FF90EF90DF90CF90BF90AF9012
:100430009F908F9008959D9191938F5F69CF85EEE6
:10044000A5CF8091B3019091B401A091B501B09175
:10045000B601892B8A2B8B2B09F49ECF0E94D000EA
:100460000091B3011091B4012091B5013091B60112
:100470006C197D098E099F09061717072807390788
:1004800008F08ACFC0CF81E0C3CF80E0C1CF82E047
:10049000BFCF83E0BDCFCF93DF93EC018B81882367
:1004A000A1F0888191E09093B7018093D9011092D7
:1004B000B8011092DA0181E00E945B0191E08111A4
:1004C00090E0892FDF91CF91089510928A011092C8
:1004D00089011092B8011092DA010E941C0182E891
:1004E00090E0909388018093870183E890E0909357
:1004F00086018093850181E08B83CE010E944B02AF
:10050000982F8111CECFDDCF0895E0918A0180919F
:100510008901E81730F4F0E0E85EFE4F808190E05A
:1005200008958FEF9FEF089590918A01809189013E
:100530002FEF3FEF981748F4E92FF0E0E85EFE4F09
:10054000208130E09F5F90938A01C90108958091D6
:10055000890190918A01891B990B0895CF92DF92AE
:10056000EF92FF920F931F93CF93DF937C01CB0108
:100570008A012091B701222389F0EB016B01C40E9F
:10058000D51ECC15DD0569F06991D701ED91FC917F
:100590000190F081E02DC7010995F3CF642F0E94EF
:1005A000F500C801DF91CF911F910F91FF90EF905F
:1005B000DF90CF900895CF93DF931F92CDB7DEB732
:1005C00069832091B7012223F9F02091DA012032CA
:1005D00058F021E030E0FC013383228390E080E09A
:1005E0000F90DF91CF9108958091B801E82FF0E04E
:1005F000E754FE4F998190838F5F8093B801809379
:10060000DA0181E090E0ECCF61E0CE0101960E943A
:10061000F500F7CF90E080E00895CF93DF9300D00E
:10062000CDB7DEB7682F70E090E080E00E94B5069D
:1006300020E030E04FE753E40E94120620E030EC67
:1006400043E755E40E94410720E030E048EC52E4E3
:100650000E94A6050E94840679836A83E091E701DF
:10066000F091E80184819581029710F490E020C018
:1006700081819281208131E03093B7012093D901AB
:100680001092B8011092DA01DC01ED91FC91028028
:10069000F381E02D42E050E0BE016F5F7F4F09958E
:1006A000029721F781E00E945B0191E08111DECF8A
:1006B000892F0F900F90DF91CF91089585ED809352
:1006C000BC008091B3019091B401A091B501B091AB
:1006D000B6010796A11DB11D23E0B695A795979584
:1006E00087952A95D1F72091BC0024FD03C0109274
:1006F000B10108954091B3015091B4016091B501E9
:100700007091B601452B462B472B69F30097A10545
:10071000B10541F025E32A95F1F700000197A10901
:10072000B109E1CF8091B2010C943A011F920F926E
:100730000FB60F9211242F933F938F939F93AF93F4
:10074000BF9380917D0190917E01A0917F01B09136
:10075000800130917C0123E0230F2D3758F501965D
:10076000A11DB11D20937C0180937D0190937E019A
:10077000A0937F01B09380018091810190918201CB
:10078000A0918301B09184010196A11DB11D8093B8
:10079000810190938201A0938301B0938401BF9162
:1007A000AF919F918F913F912F910F900FBE0F901E
:1007B0001F90189526E8230F0296A11DB11DD2CFD8
:1007C0001F920F920FB60F9211242F933F934F93C6
:1007D0005F936F937F938F939F93AF93BF93EF93A9
:1007E000FF938091B900887F803609F44AC0F0F504
:1007F000883209F4A7C018F5803109F49BC0B8F419
:10080000882309F4F9C0883009F494C0FF91EF916E
:10081000BF91AF919F918F917F916F915F914F9118
:100820003F912F910F900FBE0F901F901895883118
:1008300009F488C0803251F78093AF0114C080342E
:1008400009F49DC040F48033B9F38833F9F68093FE
:10085000AF0185ECB0C0803509F485C0883509F456
:1008600096C0883499F60E945E03D0CF883909F487
:100870008CC038F5883729F050F4883611F080376D
:1008800029F683E08093B10110927B0157C088382C
:1008900009F47BC0803919F0803809F0B7CF809116
:1008A0007B01803208F071C0E0917B0181E08E0F06
:1008B00080937B018091BB00F0E0E55AFE4F80837E
:1008C0003DC0803B39F0E0F4803A09F479C0883AC1
:1008D00009F09CCF84E08093B10110925A011092EC
:1008E0005901E0918701F0918801099580915901A2
:1008F00081110FC081E0809359011092390109C024
:10090000803C09F4A6CF883C09F4A3CF883B09F0CA
:100910007DCFE0915A0181E08E0F80935A01F0E083
:10092000E75CFE4F80818093BB0090915A018091DB
:10093000590129C080918C018093BB0085EC809384
:10094000BC0064CF9091AE018091AD01981758F52D
:10095000E091AE0181E08E0F8093AE01F0E0E357AD
:10096000FE4F8081E9CFE091AE0181E08E0F809350
:10097000AE018091BB00F0E0E357FE4F8083909181
:10098000AE018091AD019817C8F285E8D8CFE0910B
:10099000AE0181E08E0F8093AE018091BB00F0E04C
:1009A000E357FE4F80838091B00181115CCF81E0DD
:1009B00080938B0184EA8093BC001092B10126CF12
:1009C00085EC8093BC001092B10180917B01803254
:1009D00030F4E0917B01F0E0E55AFE4F1082609127
:1009E0007B0170E0E0918501F09186018BE591E05B
:1009F000099510927B010ACF1092AF0134CFEBED35
:100A0000F1E01382128288EE93E0A0E0B0E08483EC
:100A10009583A683B7838AE091E0918380831092C7
:100A2000E8011092E7010895789484B5826084BD4E
:100A300084B5816084BD85B5826085BD85B58160E2
:100A400085BD80916E00816080936E001092810060
:100A5000809181008260809381008091810081601B
:100A600080938100809180008160809380008091DC
:100A7000B10084608093B1008091B0008160809368
:100A8000B00080917A00846080937A0080917A002F
:100A9000826080937A0080917A00816080937A00EE
:100AA00080917A00806880937A001092C1008091D2
:100AB000E7019091E801009711F00E94500886E04C
:100AC00090E00E94B407EC0180E688838BED91E012
:100AD0009A8389831B8280E290E09D838C83D093EC
:100AE000E801C093E70110928A01109289011092E7
:100AF000B8011092DA010E941C0182E890E0909304
:100B000088018093870183E890E090938601809329
:100B1000850181E08B83CE010E944B028CE08093A3
:100B2000B80000E010E0C0E08C2F0E940D03C75E0B
:100B3000CA3FD1F78C2F0E940D03C951D9F7011577
:100B4000110589F30E940000EECF5058BB27AA2759
:100B50000E94BD050C9407070E94F90638F00E9418
:100B6000000720F039F49F3F19F426F40C94F606A0
:100B70000EF4E095E7FB0C94F006E92F0E941807AD
:100B800058F3BA17620773078407950720F079F4C2
:100B9000A6F50C943A070EF4E0950B2EBA2FA02D73
:100BA0000B01B90190010C01CA01A0011124FF271A
:100BB000591B99F0593F50F4503E68F11A16F04015
:100BC000A22F232F342F4427585FF3CF4695379514
:100BD0002795A795F0405395C9F77EF41F16BA0BD9
:100BE000620B730B840BBAF09150A1F0FF0FBB1F87
:100BF000661F771F881FC2F70EC0BA0F621F731FD0
:100C0000841F48F4879577956795B795F7959E3F2C
:100C100008F0B0CF9395880F08F09927EE0F9795BD
:100C2000879508950E9426060C9407070E940007E6
:100C300058F00E94F90640F029F45F3F29F00C9427
:100C4000F00651110C943B070C94F6060E9418070D
:100C500068F39923B1F3552391F3951B550BBB27EB
:100C6000AA2762177307840738F09F5F5F4F220F30
:100C7000331F441FAA1FA9F335D00E2E3AF0E0E827
:100C800032D091505040E695001CCAF72BD0FE2F71
:100C900029D0660F771F881FBB1F26173707480705
:100CA000AB07B0E809F0BB0B802DBF01FF279358BD
:100CB0005F4F3AF09E3F510578F00C94F0060C948B
:100CC0003B075F3FE4F3983ED4F3869577956795AD
:100CD000B795F7959F5FC9F7880F911D96958795F2
:100CE00097F90895E1E0660F771F881FBB1F621711
:100CF00073078407BA0720F0621B730B840BBA0BCF
:100D0000EE1F88F7E09508950E94200788F09F570E
:100D100098F0B92F9927B751B0F0E1F0660F771F1F
:100D2000881F991F1AF0BA95C9F714C0B13091F015
:100D30000E943A07B1E008950C943A07672F782F84
:100D40008827B85F39F0B93FCCF3869577956795DA
:100D5000B395D9F73EF490958095709561957F4F46
:100D60008F4F9F4F0895E89409C097FB3EF49095EC
:100D70008095709561957F4F8F4F9F4F9923A9F074
:100D8000F92F96E9BB279395F69587957795679503
:100D9000B795F111F8CFFAF4BB0F11F460FF1BC047
:100DA0006F5F7F4F8F4F9F4F16C0882311F096E9DA
:100DB00011C0772321F09EE8872F762F05C0662388
:100DC00071F096E8862F70E060E02AF09A95660F41
:100DD000771F881FDAF7880F9695879597F90895FA
:100DE00097F99F6780E870E060E008959FEF80ECDE
:100DF000089500240A941616170618060906089581
:100E000000240A9412161306140605060895092EE6
:100E10000394000C11F4882352F0BB0F40F4BF2B55
:100E200011F460FF04C06F5F7F4F8F4F9F4F089595
:100E300057FD9058440F551F59F05F3F71F047958B
:100E4000880F97FB991F61F09F3F79F08795089570
:100E5000121613061406551FF2CF4695F1DF08C08F
:100E6000161617061806991FF1CF869571056105AC
:100E700008940895E894BB2766277727CB0197F954
:100E800008950E9454070C9407070E94F90638F051
:100E90000E94000720F0952311F00C94F0060C94AA
:100EA000F60611240C943B070E94180770F3959FD7
:100EB000C1F3950F50E0551F629FF001729FBB2751
:100EC000F00DB11D639FAA27F00DB11DAA1F649FED
:100ED0006627B00DA11D661F829F2227B00DA11DA0
:100EE000621F739FB00DA11D621F839FA00D611D26
:100EF000221F749F3327A00D611D231F849F600D47
:100F0000211D822F762F6A2F11249F5750409AF06F
:100F1000F1F088234AF0EE0FFF1FBB1F661F771FFB
:100F2000881F91505040A9F79E3F510580F00C94C6
:100F3000F0060C943B075F3FE4F3983ED4F38695AC
:100F400077956795B795F795E7959F5FC1F7FE2B66
:100F5000880F911D9695879597F90895EE0FFF1FBD
:100F60000590F491E02D09940F931F93CF93DF9395
:100F70008230910510F482E090E0E091EB01F09175
:100F8000EC0130E020E0B0E0A0E0309799F42115CA
:100F9000310509F44AC0281B390B24303105D8F536
:100FA0008A819B816115710589F1FB01938382839D
:100FB000FE0111C0408151810281138148175907F8
:100FC000E0F04817590799F4109761F012960C93C6
:100FD000129713961C933296CF01DF91CF911F91F8
:100FE0000F9108950093EB011093EC01F4CF2115BC
:100FF000310551F04217530738F0A901DB019A017E
:10100000BD01DF01F801C1CFEF01F9CF9093EC01F1
:101010008093EB01CDCFFE01E20FF31F81939193FB
:101020002250310939832883D7CF2091E9013091AB
:10103000EA01232B41F42091020130910301309306
:10104000EA012093E901209100013091010121156D
:10105000310541F42DB73EB740910401509105018F
:10106000241B350BE091E901F091EA01E217F30747
:10107000A0F42E1B3F0B2817390778F0AC014E5F08
:101080005F4F2417350748F04E0F5F1F5093EA015A
:101090004093E901819391939FCFF0E0E0E09CCFF2
:1010A000CF93DF930097E9F0FC013297138212820D
:1010B000A091EB01B091EC01ED0130E020E0109740
:1010C000A1F420813181820F931F2091E901309199
:1010D000EA012817390709F061C0F093EA01E093AB
:1010E000E901DF91CF910895EA01CE17DF07E8F516
:1010F0004A815B819E0141155105B1F7E901FB83EE
:10110000EA8349915991C40FD51FEC17FD0761F48B
:10111000808191810296840F951FE90199838883CC
:10112000828193819B838A83F0E0E0E012968D9127
:101130009C9113970097B9F52D913C911197CD0192
:101140000296820F931F2091E9013091EA0128173E
:10115000390739F6309751F51092EC011092EB01F6
:10116000B093EA01A093E901BCCFD383C28340814D
:101170005181840F951FC817D90761F44E5F5F4FE7
:1011800088819981480F591F518340838A819B81AF
:10119000938382832115310509F0B0CFF093EC01E0
:1011A000E093EB019ECFFD01DC01C0CF13821282E0
:1011B000D7CFF894FFCF0000ED01800000000000C1
:0E11C000DB02AE020A038402A702940285023B
:107E0000112484B714BE81FFF0D085E080938100F7
:107E100082E08093C00088E18093C10086E0809377
:107E2000C20080E18093C4008EE0C9D0259A86E02C
:107E300020E33CEF91E0309385002093840096BBD3
:107E4000B09BFECF1D9AA8958150A9F7CC24DD24C4
:107E500088248394B5E0AB2EA1E19A2EF3E0BF2EE7
:107E6000A2D0813461F49FD0082FAFD0023811F036
:107E7000013811F484E001C083E08DD089C08234E0
:107E800011F484E103C0853419F485E0A6D080C0E4
:107E9000853579F488D0E82EFF2485D0082F10E0AE
:107EA000102F00270E291F29000F111F8ED06801E7
:107EB0006FC0863521F484E090D080E0DECF843638
:107EC00009F040C070D06FD0082F6DD080E0C81688
:107ED00080E7D80618F4F601B7BEE895C0E0D1E017
:107EE00062D089930C17E1F7F0E0CF16F0E7DF06D8
:107EF00018F0F601B7BEE89568D007B600FCFDCFD4
:107F0000A601A0E0B1E02C9130E011968C91119780
:107F100090E0982F8827822B932B1296FA010C0160
:107F200087BEE89511244E5F5F4FF1E0A038BF0790
:107F300051F7F601A7BEE89507B600FCFDCF97BE46
:107F4000E89526C08437B1F42ED02DD0F82E2BD052
:107F50003CD0F601EF2C8F010F5F1F4F84911BD097
:107F6000EA94F801C1F70894C11CD11CFA94CF0C13
:107F7000D11C0EC0853739F428D08EE10CD085E9AC
:107F80000AD08FE07ACF813511F488E018D01DD067
:107F900080E101D065CF982F8091C00085FFFCCF94
:107FA0009093C60008958091C00087FFFCCF809118
:107FB000C00084FD01C0A8958091C6000895E0E648
:107FC000F0E098E1908380830895EDDF803219F02E
:107FD00088E0F5DFFFCF84E1DECF1F93182FE3DFCA
:107FE0001150E9F7F2DF1F91089580E0E8DFEE27F6
:047FF000FF270994CA
:027FFE00040479
:00000001FF
