:100000000C9458000C9480000C9480000C94800098
:100010000C9480000C9480000C9480000C94800060
:100020000C9480000C9480000C9480000C94800050
:100030000C9480000C9480000C9480000C94800040
:100040000C94FB040C9480000C94C9040C94A3043D
:100050000C9480000C9480000C9480000C94800020
:100060000C9445050C948000000000002500280039
:100070002B00040404040404040402020202020229
:10008000030303030303010204081020408001025C
:1000900004081020010204081020000000080002DB
:1000A00001000003040700000000000000006406D7
:1000B00011241FBECFEFD8E0DEBFCDBF11E0A0E01E
:1000C000B1E0E2E6F5E102C005900D92A434B1077B
:1000D000D9F722E0A4E4B1E001C01D92A63BB2072B
:1000E000E1F710E0C8E5D0E004C02197FE010E94CE
:1000F0008409C735D107C9F70E94A1060C94AF0A3D
:100100000C94000008950895AF92BF92CF92DF92B1
:10011000EF92FF920F931F93CF93DF936C017B01BC
:100120008B01040F151FEB015E01AE18BF08C0174D
:10013000D10759F06991D601ED91FC910190F081C0
:10014000E02DC6010995892B79F7C501DF91CF9183
:100150001F910F91FF90EF90DF90CF90BF90AF90E5
:100160000895FC01538D448D252F30E0842F90E0BD
:10017000821B930B541710F0CF96089501970895A2
:10018000FC01918D828D981761F0A28DAE0FBF2F6B
:10019000B11D5D968C91928D9F5F9F73928F90E0C1
:1001A00008958FEF9FEF0895FC01918D828D981730
:1001B00031F0828DE80FF11D858D90E008958FEF6D
:1001C0009FEF0895FC01918D228D892F90E0805C36
:1001D0009F4F821B91098F739927089587E092E0C2
:1001E0000E94E20021E0892B09F420E0822F08958B
:1001F00080E090E0892B29F00E94EE0081110C94A0
:1002000000000895FC01A48DA80FB92FB11DA35AB9
:10021000BF4F2C91848D90E001968F739927848F26
:10022000A689B7892C93A089B1898C918370806449
:100230008C93938D848D981306C00288F389E02DEA
:1002400080818F7D80830895EF92FF920F931F939B
:10025000CF93DF93EC0181E0888F9B8D8C8D981379
:100260001AC0E889F989808185FF15C09FB7F89485
:10027000EE89FF896083E889F989808183708064D1
:1002800080839FBF81E090E0DF91CF911F910F911C
:10029000FF90EF900895F62E0B8D10E00F5F1F4F2B
:1002A0000F731127E02E8C8D8E110CC00FB607FC3A
:1002B000FACFE889F989808185FFF5CFCE010E94C8
:1002C0000201F1CFEB8DEC0FFD2FF11DE35AFF4F33
:1002D000F0829FB7F8940B8FEA89FB898081806256
:1002E000CFCFCF93DF93EC01888D8823B9F0AA8913
:1002F000BB89E889F9898C9185FD03C0808186FDE1
:100300000DC00FB607FCF7CF8C9185FFF2CF80812F
:1003100085FFEDCFCE010E940201E9CFDF91CF91A1
:10032000089590E0FC01E656FF4F2491FC01EA5746
:10033000FF4F3491FC01EE58FF4FE491EE23C9F0DA
:10034000222339F0233001F1A8F4213019F12230B1
:1003500029F1F0E0EE0FFF1FE859FF4FA591B4918E
:100360008FB7F894EC91611126C030953E233C93F1
:100370008FBF08952730A9F02830C9F0243049F7FD
:10038000809180008F7D03C0809180008F77809363
:100390008000DFCF84B58F7784BDDBCF84B58F7DC0
:1003A000FBCF8091B0008F778093B000D2CF809147
:1003B000B0008F7DF9CF3E2BDACF3FB7F894809114
:1003C000AD019091AE01A091AF01B091B00126B501
:1003D000A89B05C02F3F19F00196A11DB11D3FBF7D
:1003E000BA2FA92F982F8827BC01CD01620F711D4C
:1003F000811D911D42E0660F771F881F991F4A9546
:10040000D1F7089520918501260F3327331F21321C
:100410003105ECF42091DD01FC0190E080E0243016
:1004200069F082E00895A09185012191AC014B59BA
:100430005E4FA40FB52FB11D2C930196861798F32C
:1004400080918501680F6093850180E0089581E0C7
:1004500008951092DD0181E08093DC011092B701D4
:1004600061E082E10E94910161E083E10E949101DB
:10047000E9EBF0E080818E7F808380818D7F8083B7
:1004800088E48093B80085E48093BC000895CF93FE
:10049000DF9391E0909364018823B9F0C091B80094
:1004A000D091BA008091BC008A7B8093BC0060E050
:1004B00082E10E94910160E083E10E9491010E942B
:1004C0002902D093BA00C093B800DF91CF9108956C
:1004D0008F929F92AF92BF92CF92DF92EF92FF9254
:1004E0000F931F93CF93DF93D0910602D13208F080
:1004F000D7C0182FC09105020E94DD016B017C015D
:100500008091DD0181116BC082E08093DD01109349
:10051000DC018FEF8093DB011092DA01D093D901D7
:10052000A5EEB1E0E9EBF1E080E0D81391C01092C4
:10053000B8018091B801CC0FC82BC093B80180914D
:10054000B701813009F088C01092B7010E94DD0127
:100550006B017C018091B8018093BB008091DF0129
:100560009091E001A091E101B091E201892B8A2BE9
:100570008B2BA1F00E94DD010091DF011091E001C1
:100580002091E1013091E2016C197D098E099F09EA
:10059000061717072807390708F442C08091BC00E6
:1005A00083FDD8CF85EC8093BC000E94DD016B01F8
:1005B0007C018091DD01823009F450C08091DB0123
:1005C0008F3F09F46FC08091DB01803209F46CC069
:1005D0008091DB01803309F469C084E026C08091FA
:1005E000DF019091E001A091E101B091E201892B3E
:1005F0008A2B8B2B09F484CF0E94DD018090DF01D0
:100600009090E001A090E101B090E2016C197D09A9
:100610008E099F0986169706A806B90608F070CFBE
:100620008091DE010E94470285E01092E401109261
:1006300006021092E301DF91CF911F910F91FF907D
:10064000EF90DF90CF90BF90AF909F908F900895E4
:100650009D9191938F5F69CF85EEA5CF8091DF014A
:100660009091E001A091E101B091E201892B8A2BE8
:100670008B2B09F49ECF0E94DD010091DF011091C8
:10068000E0012091E1013091E2016C197D098E09B0
:100690009F09061717072807390708F08ACFC0CF28
:1006A00081E0C3CF80E0C1CF82E0BFCF83E0BDCF88
:1006B000CF93DF93EC018B818823A1F0888191E0B7
:1006C0009093E301809305021092E40110920602D8
:1006D00081E00E94680291E0811190E0892FDF9112
:1006E000CF9108951092B6011092B5011092E401D5
:1006F000109206020E94290282E890E09093B401D1
:100700008093B30183E890E09093B2018093B101AC
:1007100081E08B83CE010E945803982F8111CECFA8
:10072000DDCF0895E091B6018091B501E81730F46E
:10073000F0E0EC5BFE4F808190E008958FEF9FEF3B
:1007400008959091B6018091B5012FEF3FEF981772
:1007500048F4E92FF0E0EC5BFE4F208130E09F5F32
:100760009093B601C90108958091B5019091B601A9
:10077000891B990B0895CF92DF92EF92FF920F930E
:100780001F93CF93DF937C01CB018A012091E3017A
:10079000222389F0EB016B01C40ED51ECC15DD05BB
:1007A00069F06991D701ED91FC910190F081E02D04
:1007B000C7010995F3CF642F0E940202C801DF919F
:1007C000CF911F910F91FF90EF90DF90CF90089500
:1007D000CF93DF931F92CDB7DEB769832091E301FA
:1007E0002223F9F020910602203258F021E030E077
:1007F000FC013383228390E080E00F90DF91CF9162
:1008000008958091E401E82FF0E0EB51FE4F9981CB
:1008100090838F5F8093E4018093060281E090E0F3
:10082000ECCF61E0CE0101960E940202F7CF90E08A
:1008300080E00895CF93DF9300D0CDB7DEB7682F67
:1008400070E090E080E00E948B0820E030E04FE70D
:1008500053E40E94E80720E030EC43E755E40E94AF
:10086000170920E030E048EC52E40E947C070E9427
:100870005A0879836A83E091B002F091B1028481D1
:100880009581029710F490E020C0818192812081AF
:1008900031E03093E301209305021092E4011092BD
:1008A0000602DC01ED91FC910280F381E02D42E033
:1008B00050E0BE016F5F7F4F0995029721F781E0FD
:1008C0000E94680291E08111DECF892F0F900F9076
:1008D000DF91CF91089585ED8093BC008091DF0179
:1008E0009091E001A091E101B091E2010796A11D74
:1008F000B11D23E0B695A795979587952A95D1F7D1
:100900002091BC0024FD03C01092DD0108954091A8
:10091000DF015091E0016091E1017091E201452B0E
:10092000462B472B69F30097A105B10541F025E35C
:100930002A95F1F700000197A109B109E1CF809153
:10094000DE010C9447021F920F920FB60F921124F2
:100950002F933F934F935F936F937F938F939F93C7
:10096000AF93BF93EF93FF9387E092E00E94020161
:10097000FF91EF91BF91AF919F918F917F916F9177
:100980005F914F913F912F910F900FBE0F901F904D
:1009900018951F920F920FB60F9211242F938F93D9
:1009A0009F93EF93FF93E0911702F09118028081DB
:1009B000E0911D02F0911E0282FD1BC0908180918A
:1009C00020028F5F8F7320912102821741F0E09106
:1009D0002002F0E0E95FFD4F958F80932002FF91A8
:1009E000EF919F918F912F910F900FBE0F901F90BD
:1009F00018958081F4CF1F920F920FB60F92112499
:100A00002F933F938F939F93AF93BF938091A901AF
:100A10009091AA01A091AB01B091AC013091A801D5
:100A200023E0230F2D3758F50196A11DB11D20930A
:100A3000A8018093A9019093AA01A093AB01B09360
:100A4000AC018091AD019091AE01A091AF01B09148
:100A5000B0010196A11DB11D8093AD019093AE012F
:100A6000A093AF01B093B001BF91AF919F918F91CF
:100A70003F912F910F900FBE0F901F90189526E871
:100A8000230F0296A11DB11DD2CF1F920F920FB658
:100A90000F9211242F933F934F935F936F937F9304
:100AA0008F939F93AF93BF93EF93FF938091B90080
:100AB000887F803609F44AC0F0F5883209F4A7C06F
:100AC00018F5803109F49BC0B8F4882309F4F9C003
:100AD000883009F494C0FF91EF91BF91AF919F913D
:100AE0008F917F916F915F914F913F912F910F90D7
:100AF0000FBE0F901F901895883109F488C080327E
:100B000051F78093DB0114C0803409F49DC040F498
:100B10008033B9F38833F9F68093DB0185ECB0C0FC
:100B2000803509F485C0883509F496C0883499F673
:100B30000E946B04D0CF883909F48CC038F588370F
:100B400029F050F4883611F0803729F683E080933D
:100B5000DD011092A70157C0883809F47BC08039A5
:100B600019F0803809F0B7CF8091A701803208F0E2
:100B700071C0E091A70181E08E0F8093A701809161
:100B8000BB00F0E0E957FE4F80833DC0803B39F069
:100B9000E0F4803A09F479C0883A09F09CCF84E007
:100BA0008093DD011092860110928501E091B301DE
:100BB000F091B40109958091850181110FC081E008
:100BC000809385011092650109C0803C09F4A6CF8D
:100BD000883C09F4A3CF883B09F07DCFE0918601E2
:100BE00081E08E0F80938601F0E0EB59FE4F80810B
:100BF0008093BB00909186018091850129C08091EE
:100C0000B8018093BB0085EC8093BC0064CF9091C9
:100C1000DA018091D901981758F5E091DA0181E065
:100C20008E0F8093DA01F0E0E754FE4F8081E9CF28
:100C3000E091DA0181E08E0F8093DA018091BB00B0
:100C4000F0E0E754FE4F80839091DA018091D90162
:100C50009817C8F285E8D8CFE091DA0181E08E0FCD
:100C60008093DA018091BB00F0E0E754FE4F80836F
:100C70008091DC0181115CCF81E08093B70184EA2F
:100C80008093BC001092DD0126CF85EC8093BC00E0
:100C90001092DD018091A701803230F4E091A7012C
:100CA000F0E0E957FE4F10826091A70170E0E091FB
:100CB000B101F091B20187E891E009951092A70186
:100CC0000ACF1092DB0134CFE7E0F2E01382128208
:100CD00088EE93E0A0E0B0E084839583A683B78399
:100CE0002AE031E03183208325EC30E0358724870A
:100CF00024EC30E03787268720EC30E0318B208BE6
:100D000021EC30E0338B228B22EC30E0358B248BCE
:100D100026EC30E0378B268B118E128E138E148EBC
:100D2000E4EAF2E01382128284839583A683B78378
:100D30008CE191E0918380831092B1021092B00215
:100D40000895789484B5826084BD84B5816084BD43
:100D500085B5826085BD85B5816085BD80916E0059
:100D6000816080936E00109281008091810082608A
:100D700080938100809181008160809381008091C7
:100D800080008160809380008091B10084608093B6
:100D9000B1008091B00081608093B00080917A00B2
:100DA000846080937A0080917A00826080937A00D8
:100DB00080917A00816080937A0080917A008068C7
:100DC00080937A001092C100E0911702F09118020E
:100DD00082E08083E0911302F09114021082E0918E
:100DE0001502F09116028FEC808310921F02E091A1
:100DF0001B02F0911C0286E08083E0911902F091C1
:100E00001A02808180618083E0911902F0911A02B8
:100E1000808188608083E0911902F0911A028081BC
:100E200080688083E0911902F0911A0280818F7DA1
:100E300080838091B0029091B102009711F00E94DE
:100E4000260A86E090E00E948A09EC0180E6888309
:100E500084EA92E09A8389831B8280E290E09D83FA
:100E60008C83D093B102C093B0021092B60110925D
:100E7000B5011092E401109206020E94290282E854
:100E800090E09093B4018093B30183E890E0909355
:100E9000B2018093B10181E08B83CE010E9458039F
:100EA0008CE08093B80046E150E06AE271E087E0B0
:100EB00092E00E94840042E050E061E471E087E04B
:100EC00092E00E94840000E010E0C0E08C2F0E94BD
:100ED0001A04C75ECA3FD1F78C2F0E941A04C95169
:100EE000D9F70115110589F30E94EE00882369F3F3
:100EF0000E940000EACF5058BB27AA270E94930700
:100F00000C94DD080E94CF0838F00E94D60820F02B
:100F100039F49F3F19F426F40C94CC080EF4E095B4
:100F2000E7FB0C94C608E92F0E94EE0858F3BA17A5
:100F3000620773078407950720F079F4A6F50C94EF
:100F400010090EF4E0950B2EBA2FA02D0B01B9015C
:100F500090010C01CA01A0011124FF27591B99F02F
:100F6000593F50F4503E68F11A16F040A22F232F3B
:100F7000342F4427585FF3CF469537952795A7958B
:100F8000F0405395C9F77EF41F16BA0B620B730B32
:100F9000840BBAF09150A1F0FF0FBB1F661F771FA3
:100FA000881FC2F70EC0BA0F621F731F841F48F458
:100FB000879577956795B795F7959E3F08F0B0CFE1
:100FC0009395880F08F09927EE0F979587950895C8
:100FD0000E94FC070C94DD080E94D60858F00E947D
:100FE000CF0840F029F45F3F29F00C94C608511156
:100FF0000C9411090C94CC080E94EE0868F3992314
:10100000B1F3552391F3951B550BBB27AA27621704
:101010007307840738F09F5F5F4F220F331F441F11
:10102000AA1FA9F335D00E2E3AF0E0E832D0915045
:101030005040E695001CCAF72BD0FE2F29D0660F32
:10104000771F881FBB1F261737074807AB07B0E875
:1010500009F0BB0B802DBF01FF2793585F4F3AF07B
:101060009E3F510578F00C94C6080C9411095F3F1F
:10107000E4F3983ED4F3869577956795B795F79501
:101080009F5FC9F7880F911D9695879597F90895E9
:10109000E1E0660F771F881FBB1F62177307840785
:1010A000BA0720F0621B730B840BBA0BEE1F88F794
:1010B000E09508950E94F60888F09F5798F0B92FA0
:1010C0009927B751B0F0E1F0660F771F881F991F7D
:1010D0001AF0BA95C9F714C0B13091F00E94100906
:1010E000B1E008950C941009672F782F8827B85F16
:1010F00039F0B93FCCF3869577956795B395D9F7D5
:101100003EF490958095709561957F4F8F4F9F4FDE
:101110000895E89409C097FB3EF4909580957095EA
:1011200061957F4F8F4F9F4F9923A9F0F92F96E933
:10113000BB279395F695879577956795B795F111A8
:10114000F8CFFAF4BB0F11F460FF1BC06F5F7F4F45
:101150008F4F9F4F16C0882311F096E911C0772357
:1011600021F09EE8872F762F05C0662371F096E860
:10117000862F70E060E02AF09A95660F771F881F2F
:10118000DAF7880F9695879597F9089597F99F67ED
:1011900080E870E060E008959FEF80EC08950024FF
:1011A0000A941616170618060906089500240A94CC
:1011B00012161306140605060895092E0394000C52
:1011C00011F4882352F0BB0F40F4BF2B11F460FFE1
:1011D00004C06F5F7F4F8F4F9F4F089557FD90580A
:1011E000440F551F59F05F3F71F04795880F97FBEB
:1011F000991F61F09F3F79F08795089512161306A5
:101200001406551FF2CF4695F1DF08C016161706D3
:101210001806991FF1CF8695710561050894089508
:10122000E894BB2766277727CB0197F908950E949A
:101230002A090C94DD080E94CF0838F00E94D608D5
:1012400020F0952311F00C94C6080C94CC081124BE
:101250000C9411090E94EE0870F3959FC1F3950F4D
:1012600050E0551F629FF001729FBB27F00DB11D2A
:10127000639FAA27F00DB11DAA1F649F6627B00DBA
:10128000A11D661F829F2227B00DA11D621F739FA3
:10129000B00DA11D621F839FA00D611D221F749FB1
:1012A0003327A00D611D231F849F600D211D822FF8
:1012B000762F6A2F11249F5750409AF0F1F088231F
:1012C0004AF0EE0FFF1FBB1F661F771F881F91504C
:1012D0005040A9F79E3F510580F00C94C6080C942D
:1012E00011095F3FE4F3983ED4F3869577956795AF
:1012F000B795F795E7959F5FC1F7FE2B880F911D76
:101300009695879597F90895EE0FFF1F0590F49134
:10131000E02D09940F931F93CF93DF9382309105B3
:1013200010F482E090E0E091B402F091B50230E078
:1013300020E0B0E0A0E0309799F42115310509F4E0
:101340004AC0281B390B24303105D8F58A819B818E
:101350006115710589F1FB0193838283FE0111C040
:10136000408151810281138148175907E0F04817E5
:10137000590799F4109761F012960C9312971396EF
:101380001C933296CF01DF91CF911F910F91089559
:101390000093B4021093B502F4CF2115310551F03A
:1013A0004217530738F0A901DB019A01BD01DF01A3
:1013B000F801C1CFEF01F9CF9093B5028093B40249
:1013C000CDCFFE01E20FF31F81939193225031099B
:1013D00039832883D7CF2091B2023091B302232BD7
:1013E00041F420910201309103013093B302209324
:1013F000B20220910001309101012115310541F423
:101400002DB73EB74091040150910501241B350BC7
:10141000E091B202F091B302E217F307A0F42E1BA1
:101420003F0B2817390778F0AC014E5F5F4F241748
:10143000350748F04E0F5F1F5093B3024093B2023E
:10144000819391939FCFF0E0E0E09CCFCF93DF9327
:101450000097E9F0FC01329713821282A091B40246
:10146000B091B502ED0130E020E01097A1F42081A9
:101470003181820F931F2091B2023091B30228175D
:10148000390709F061C0F093B302E093B202DF9133
:10149000CF910895EA01CE17DF07E8F54A815B8115
:1014A0009E0141155105B1F7E901FB83EA8349919A
:1014B0005991C40FD51FEC17FD0761F4808191810C
:1014C0000296840F951FE901998388838281938115
:1014D0009B838A83F0E0E0E012968D919C911397B4
:1014E0000097B9F52D913C911197CD010296820F8D
:1014F000931F2091B2023091B3022817390739F6B1
:10150000309751F51092B5021092B402B093B30225
:10151000A093B202BCCFD383C28340815181840F98
:10152000951FC817D90761F44E5F5F4F8881998175
:10153000480F591F518340838A819B819383828303
:101540002115310509F0B0CFF093B502E093B40254
:101550009ECFFD01DC01C0CF13821282D7CFF89459
:02156000FFCFBB
:101562000000B60280000000000024018400B100E7
:101572007101E200C000D40000000000E803BB03D8
:1015820017049103B403A1039203547269616E6755
:101592006C652077617665206F6620343030487A3A
:0415A200000D0A002E
:00000001FF
