:020000040000FA
:100000000C9458000C9480000C9480000C94800098
:100010000C9480000C9480000C9480000C94800060
:100020000C9480000C9480000C9480000C94AE041E
:100030000C9480000C9480000C9480000C94800040
:100040000C9445030C9480000C9480000C94800068
:100050000C9480000C9480000C9480000C94800020
:100060000C948F030C9480000000000025002800F1
:100070002B00040404040404040402020202020229
:10008000030303030303010204081020408001025C
:1000900004081020010204081020000000080002DB
:1000A0000100000304070000000000000000BD0480
:1000B00011241FBECFEFD8E0DEBFCDBF11E0A0E01E
:1000C000B1E0EAE2F2E102C005900D92AA31B10777
:1000D000D9F721E0AAE1B1E001C01D92A23FB20729
:1000E000E1F710E0C8E5D0E004C02197FE010E94CE
:1000F000E807C735D107C9F70E94D2040C94130949
:100100000C9400000895089590E0FC01E656FF4F1E
:100110002491FC01EA57FF4F3491FC01EE58FF4F48
:10012000E491EE23C9F0222339F0233001F1A8F441
:10013000213019F1223029F1F0E0EE0FFF1FE859CC
:10014000FF4FA591B4918FB7F894EC91611126C03F
:1001500030953E233C938FBF08952730A9F0283077
:10016000C9F0243049F7809180008F7D03C08091D1
:1001700080008F7780938000DFCF84B58F7784BD38
:10018000DBCF84B58F7DFBCF8091B0008F778093DC
:10019000B000D2CF8091B0008F7DF9CF3E2BDACF67
:1001A0003FB7F8948091830190918401A0918501DB
:1001B000B091860126B5A89B05C02F3F19F0019686
:1001C000A11DB11D3FBFBA2FA92F982F8827BC01B1
:1001D000CD01620F711D811D911D42E0660F771FD9
:1001E000881F991F4A95D1F7089520915B01260F2A
:1001F0003327331F21323105ECF42091B601FC0185
:1002000090E080E0243069F082E00895A0915B01E5
:100210002191AC01455C5E4FA40FB52FB11D2C930D
:100220000196861798F380915B01680F60935B01DC
:1002300080E0089581E008951092B60181E08093F6
:10024000B5011092900161E082E10E94840061E0BA
:1002500083E10E948400E9EBF0E080818E7F80835F
:1002600080818D7F808388E48093B80085E48093CB
:10027000BC000895CF93DF9391E090933A018823D7
:10028000B9F0C091B800D091BA008091BC008A7BCF
:100290008093BC0060E082E10E94840060E083E122
:1002A0000E9484000E941C01D093BA00C093B80041
:1002B000DF91CF9108958F929F92AF92BF92CF928C
:1002C000DF92EF92FF920F931F93CF93DF93D09122
:1002D000DF01D13208F0D7C0182FC091DE010E9493
:1002E000D0006B017C018091B60181116BC082E06E
:1002F0008093B6011093B5018FEF8093B4011092F3
:10030000B301D093B201AEEBB1E0E2E9F1E080E0FD
:10031000D81391C01092910180919101CC0FC82BFC
:10032000C093910180919001813009F088C01092B2
:1003300090010E94D0006B017C018091910180931B
:10034000BB008091B8019091B901A091BA01B09120
:10035000BB01892B8A2B8B2BA1F00E94D00000912E
:10036000B8011091B9012091BA013091BB016C190B
:100370007D098E099F09061717072807390708F412
:1003800042C08091BC0083FDD8CF85EC8093BC0037
:100390000E94D0006B017C018091B601823009F48B
:1003A00050C08091B4018F3F09F46FC08091B401B7
:1003B000803209F46CC08091B401803309F469C0C3
:1003C00084E026C08091B8019091B901A091BA0152
:1003D000B091BB01892B8A2B8B2B09F484CF0E940F
:1003E000D0008090B8019090B901A090BA01B0906F
:1003F000BB016C197D098E099F0986169706A80610
:10040000B90608F070CF8091B7010E943A0185E0EB
:100410001092BD011092DF011092BC01DF91CF91CB
:100420001F910F91FF90EF90DF90CF90BF90AF9012
:100430009F908F9008959D9191938F5F69CF85EEE6
:10044000A5CF8091B8019091B901A091BA01B09166
:10045000BB01892B8A2B8B2B09F49ECF0E94D000E5
:100460000091B8011091B9012091BA013091BB01FE
:100470006C197D098E099F09061717072807390788
:1004800008F08ACFC0CF81E0C3CF80E0C1CF82E047
:10049000BFCF83E0BDCFCF93DF93EC018B81882367
:1004A000A1F0888191E09093BC018093DE011092CD
:1004B000BD011092DF0181E00E945B0191E081119A
:1004C00090E0892FDF91CF91089510928C011092C6
:1004D0008B011092BD011092DF010E941C0182E885
:1004E00090E090938A018093890183E890E0909353
:1004F00088018093870181E08B83CE010E944B02AB
:10050000982F8111CECFDDCF0895E0918C0180919D
:100510008B01E81730F4F0E0E65EFE4F808190E05A
:1005200008958FEF9FEF089590918C0180918B013A
:100530002FEF3FEF981748F4E92FF0E0E65EFE4F0B
:10054000208130E09F5F90938C01C90108958091D4
:100550008B0190918C01891B990B0895CF92DF92AA
:10056000EF92FF920F931F93CF93DF937C01CB0108
:100570008A012091BC01222389F0EB016B01C40E9A
:10058000D51ECC15DD0569F06991D701ED91FC917F
:100590000190F081E02DC7010995F3CF642F0E94EF
:1005A000F500C801DF91CF911F910F91FF90EF905F
:1005B000DF90CF900895CF93DF931F92CDB7DEB732
:1005C00069832091BC012223F9F02091DF012032C0
:1005D00058F021E030E0FC013383228390E080E09A
:1005E0000F90DF91CF9108958091BD01E82FF0E049
:1005F000E254FE4F998190838F5F8093BD01809379
:10060000DF0181E090E0ECCF61E0CE0101960E9435
:10061000F500F7CF90E080E0089585ED8093BC0071
:100620008091B8019091B901A091BA01B091BB013C
:100630000796A11DB11D23E0B695A79597958795BF
:100640002A95D1F72091BC0024FD03C01092B60179
:1006500008954091B8015091B9016091BA0170912B
:10066000BB01452B462B472B69F30097A105B1052C
:1006700041F025E32A95F1F700000197A109B1099E
:10068000E1CF8091B7010C943A011F920F920FB6FF
:100690000F9211242F933F938F939F93AF93BF9308
:1006A00080917F0190918001A0918101B0918201A0
:1006B00030917E0123E0230F2D3758F50196A11DBF
:1006C000B11D20937E0180937F0190938001A093C0
:1006D0008101B09382018091830190918401A09166
:1006E0008501B09186010196A11DB11D8093830102
:1006F00090938401A0938501B0938601BF91AF913F
:100700009F918F913F912F910F900FBE0F901F904F
:10071000189526E8230F0296A11DB11DD2CF1F9276
:100720000F920FB60F9211242F933F934F935F9325
:100730006F937F938F939F93AF93BF93EF93FF93A9
:100740008091B900887F803609F44AC0F0F588327C
:1007500009F4A7C018F5803109F49BC0B8F48823C8
:1007600009F4F9C0883009F494C0FF91EF91BF916A
:10077000AF919F918F917F916F915F914F913F9139
:100780002F910F900FBE0F901F901895883109F48C
:1007900088C0803251F78093B40114C0803409F4CA
:1007A0009DC040F48033B9F38833F9F68093B401E7
:1007B00085ECB0C0803509F485C0883509F496C051
:1007C000883499F60E940D03D0CF883909F48CC083
:1007D00038F5883729F050F4883611F0803729F63B
:1007E00083E08093B60110927D0157C0883809F4E8
:1007F0007BC0803919F0803809F0B7CF80917D0136
:10080000803208F071C0E0917D0181E08E0F80930D
:100810007D018091BB00F0E0E35AFE4F80833DC034
:10082000803B39F0E0F4803A09F479C0883A09F065
:100830009CCF84E08093B60110925C0110925B0122
:10084000E0918901F0918A01099580915B01811104
:100850000FC081E080935B0110923B0109C0803C96
:1008600009F4A6CF883C09F4A3CF883B09F07DCFDB
:10087000E0915C0181E08E0F80935C01F0E0E55C2B
:10088000FE4F80818093BB0090915C0180915B0161
:1008900029C0809191018093BB0085EC8093BC00BE
:1008A00064CF9091B3018091B201981758F5E0910F
:1008B000B30181E08E0F8093B301F0E0EE56FE4F5E
:1008C0008081E9CFE091B30181E08E0F8093B30185
:1008D0008091BB00F0E0EE56FE4F80839091B30113
:1008E0008091B2019817C8F285E8D8CFE091B301A2
:1008F00081E08E0F8093B3018091BB00F0E0EE5653
:10090000FE4F80838091B50181115CCF81E080939F
:10091000900184EA8093BC001092B60126CF85EC4A
:100920008093BC001092B60180917D01803230F43A
:10093000E0917D01F0E0E35AFE4F108260917D016D
:1009400070E0E0918701F09188018DE591E00995D3
:1009500010927D010ACF1092B40134CF1F920F92F2
:100960000FB60F9211248F9381E080938F018F91A6
:100970000F900FBE0F901F901895E0EEF1E01382DC
:10098000128288EE93E0A0E0B0E084839583A68392
:10099000B7838CE091E0918380831092ED011092F7
:1009A000EC010895CF93DF9300D0CDB7DEB77894F4
:1009B00084B5826084BD84B5816084BD85B5826064
:1009C00085BD85B5816085BD80916E008160809315
:1009D0006E0010928100809181008260809381007E
:1009E000809181008160809381008091800081608E
:1009F000809380008091B10084608093B1008091E9
:100A0000B00081608093B00080917A008460809310
:100A10007A0080917A00826080937A0080917A00D7
:100A2000816080937A0080917A00806880937A0058
:100A30001092C1008091EC019091ED01009711F0AE
:100A40000E948A0886E090E00E94EE078C0180E612
:100A5000D8018C9380EE91E012969C938E9311971F
:100A600013961C92139780E290E015969C938E93B8
:100A700014971093ED010093EC0110928C011092E9
:100A80008B011092BD011092DF010E941C0182E8CF
:100A900090E090938A018093890183E890E090939D
:100AA00088018093870181E0F8018383C8010E9457
:100AB0004B028CE08093B8008AEF90E090938E0117
:100AC00080938D01109280008AE0809381001092C3
:100AD000820082E080936F00109285001092840063
:100AE00080918D0190918E01909389008093880070
:100AF000789400E010E0FF24F39489E1E82E97EE6B
:100B0000D92E80918F01882309F44DC06091010195
:100B100080910001680F609301016A3F09F04AC0AB
:100B2000D092000170E090E080E00E94EF0620E0AB
:100B300030E04FE753E40E944C0620E030EC43E7FE
:100B400055E40E947B0720E030E048EC52E40E942C
:100B5000E0050E94BE0679836A83E091EC01F09182
:100B6000ED01848195810297E0F08181928120815D
:100B7000F092BC012093DE011092BD011092DF01C2
:100B8000DC01ED91FC910280F381E02D42E050E028
:100B9000BE016F5F7F4F0995029719F481E00E94B3
:100BA0005B0110928F010115110509F4AACF0E9473
:100BB0000000A7CF6111B6CFE0920001B3CF50582B
:100BC000BB27AA270E94F7050C9441070E94330710
:100BD00038F00E943A0720F039F49F3F19F426F4C8
:100BE0000C9430070EF4E095E7FB0C942A07E92FEC
:100BF0000E94520758F3BA176207730784079507D4
:100C000020F079F4A6F50C9474070EF4E0950B2E01
:100C1000BA2FA02D0B01B90190010C01CA01A0014E
:100C20001124FF27591B99F0593F50F4503E68F1A9
:100C30001A16F040A22F232F342F4427585FF3CFEA
:100C4000469537952795A795F0405395C9F77EF4BB
:100C50001F16BA0B620B730B840BBAF09150A1F004
:100C6000FF0FBB1F661F771F881FC2F70EC0BA0F8A
:100C7000621F731F841F48F4879577956795B79512
:100C8000F7959E3F08F0B0CF9395880F08F099270D
:100C9000EE0F9795879508950E9460060C94410782
:100CA0000E943A0758F00E94330740F029F45F3F52
:100CB00029F00C942A0751110C9475070C943007F5
:100CC0000E94520768F39923B1F3552391F3951BC2
:100CD000550BBB27AA2762177307840738F09F5F5D
:100CE0005F4F220F331F441FAA1FA9F335D00E2ECA
:100CF0003AF0E0E832D091505040E695001CCAF737
:100D00002BD0FE2F29D0660F771F881FBB1F2617F9
:100D100037074807AB07B0E809F0BB0B802DBF01D0
:100D2000FF2793585F4F3AF09E3F510578F00C949F
:100D30002A070C9475075F3FE4F3983ED4F3869539
:100D400077956795B795F7959F5FC9F7880F911DC0
:100D50009695879597F90895E1E0660F771F881FAC
:100D6000BB1F621773078407BA0720F0621B730B5F
:100D7000840BBA0BEE1F88F7E09508950E945A077E
:100D800088F09F5798F0B92F9927B751B0F0E1F04C
:100D9000660F771F881F991F1AF0BA95C9F714C0FC
:100DA000B13091F00E947407B1E008950C9474077B
:100DB000672F782F8827B85F39F0B93FCCF3869535
:100DC00077956795B395D9F73EF490958095709592
:100DD00061957F4F8F4F9F4F0895E89409C097FB0F
:100DE0003EF490958095709561957F4F8F4F9F4F02
:100DF0009923A9F0F92F96E9BB279395F695879546
:100E000077956795B795F111F8CFFAF4BB0F11F408
:100E100060FF1BC06F5F7F4F8F4F9F4F16C08823AF
:100E200011F096E911C0772321F09EE8872F762FE5
:100E300005C0662371F096E8862F70E060E02AF026
:100E40009A95660F771F881FDAF7880F9695879512
:100E500097F9089597F99F6780E870E060E008953A
:100E60009FEF80EC089500240A94161617061806C2
:100E70000906089500240A9412161306140605069E
:100E80000895092E0394000C11F4882352F0BB0F2F
:100E900040F4BF2B11F460FF04C06F5F7F4F8F4F92
:100EA0009F4F089557FD9058440F551F59F05F3FCD
:100EB00071F04795880F97FB991F61F09F3F79F07C
:100EC00087950895121613061406551FF2CF4695FE
:100ED000F1DF08C0161617061806991FF1CF869580
:100EE0007105610508940895E894BB276627772764
:100EF000CB0197F908950E948E070C9441070E9438
:100F0000330738F00E943A0720F0952311F00C9433
:100F10002A070C94300711240C9475070E9452077D
:100F200070F3959FC1F3950F50E0551F629FF0013C
:100F3000729FBB27F00DB11D639FAA27F00DB11D55
:100F4000AA1F649F6627B00DA11D661F829F2227DE
:100F5000B00DA11D621F739FB00DA11D621F839F65
:100F6000A00D611D221F749F3327A00D611D231F3B
:100F7000849F600D211D822F762F6A2F11249F5789
:100F800050409AF0F1F088234AF0EE0FFF1FBB1F8C
:100F9000661F771F881F91505040A9F79E3F51054B
:100FA00080F00C942A070C9475075F3FE4F3983E99
:100FB000D4F3869577956795B795F795E7959F5FF5
:100FC000C1F7FE2B880F911D9695879597F9089587
:100FD000EE0FFF1F0590F491E02D09940F931F93DE
:100FE000CF93DF938230910510F482E090E0E0919E
:100FF000F001F091F10130E020E0B0E0A0E03097A6
:1010000099F42115310509F44AC0281B390B243005
:101010003105D8F58A819B816115710589F1FB0144
:1010200093838283FE0111C040815181028113812B
:1010300048175907E0F04817590799F4109761F0DD
:1010400012960C93129713961C933296CF01DF9150
:10105000CF911F910F9108950093F0011093F1012A
:10106000F4CF2115310551F04217530738F0A9018B
:10107000DB019A01BD01DF01F801C1CFEF01F9CF1A
:101080009093F1018093F001CDCFFE01E20FF31FA9
:10109000819391932250310939832883D7CF2091AE
:1010A000EE013091EF01232B41F4209104013091A6
:1010B00005013093EF012093EE0120910201309160
:1010C00003012115310541F42DB73EB740910601CA
:1010D00050910701241B350BE091EE01F091EF01D7
:1010E000E217F307A0F42E1B3F0B2817390778F0FF
:1010F000AC014E5F5F4F2417350748F04E0F5F1F5E
:101100005093EF014093EE01819391939FCFF0E0D4
:10111000E0E09CCFCF93DF930097E9F0FC0132979A
:1011200013821282A091F001B091F101ED0130E043
:1011300020E01097A1F420813181820F931F20912C
:10114000EE013091EF012817390709F061C0F093E3
:10115000EF01E093EE01DF91CF910895EA01CE1700
:10116000DF07E8F54A815B819E0141155105B1F722
:10117000E901FB83EA8349915991C40FD51FEC170C
:10118000FD0761F4808191810296840F951FE9012A
:1011900099838883828193819B838A83F0E0E0E056
:1011A00012968D919C9113970097B9F52D913C91D2
:1011B0001197CD010296820F931F2091EE0130917D
:1011C000EF012817390739F6309751F51092F101E0
:1011D0001092F001B093EF01A093EE01BCCFD38346
:1011E000C28340815181840F951FC817D90761F4CC
:1011F0004E5F5F4F88819981480F591F518340830B
:101200008A819B81938382832115310509F0B0CFB8
:10121000F093F101E093F0019ECFFD01DC01C0CF1E
:1012200013821282D7CFF894FFCF197D0000F2010C
:10123000800000000000DB02AE020A038402A70265
:04124000940285028D
:107E0000112484B714BE81FFF0D085E080938100F7
:107E100082E08093C00088E18093C10086E0809377
:107E2000C20080E18093C4008EE0C9D0259A86E02C
:107E300020E33CEF91E0309385002093840096BBD3
:107E4000B09BFECF1D9AA8958150A9F7CC24DD24C4
:107E500088248394B5E0AB2EA1E19A2EF3E0BF2EE7
:107E6000A2D0813461F49FD0082FAFD0023811F036
:107E7000013811F484E001C083E08DD089C08234E0
:107E800011F484E103C0853419F485E0A6D080C0E4
:107E9000853579F488D0E82EFF2485D0082F10E0AE
:107EA000102F00270E291F29000F111F8ED06801E7
:107EB0006FC0863521F484E090D080E0DECF843638
:107EC00009F040C070D06FD0082F6DD080E0C81688
:107ED00080E7D80618F4F601B7BEE895C0E0D1E017
:107EE00062D089930C17E1F7F0E0CF16F0E7DF06D8
:107EF00018F0F601B7BEE89568D007B600FCFDCFD4
:107F0000A601A0E0B1E02C9130E011968C91119780
:107F100090E0982F8827822B932B1296FA010C0160
:107F200087BEE89511244E5F5F4FF1E0A038BF0790
:107F300051F7F601A7BEE89507B600FCFDCF97BE46
:107F4000E89526C08437B1F42ED02DD0F82E2BD052
:107F50003CD0F601EF2C8F010F5F1F4F84911BD097
:107F6000EA94F801C1F70894C11CD11CFA94CF0C13
:107F7000D11C0EC0853739F428D08EE10CD085E9AC
:107F80000AD08FE07ACF813511F488E018D01DD067
:107F900080E101D065CF982F8091C00085FFFCCF94
:107FA0009093C60008958091C00087FFFCCF809118
:107FB000C00084FD01C0A8958091C6000895E0E648
:107FC000F0E098E1908380830895EDDF803219F02E
:107FD00088E0F5DFFFCF84E1DECF1F93182FE3DFCA
:107FE0001150E9F7F2DF1F91089580E0E8DFEE27F6
:047FF000FF270994CA
:027FFE00040479
:00000001FF
