:100000000C94A6000C9479110C9452110C94CE000F
:100010000C94CE000C94CE000C94CE000C94CE0028
:100020000C94CE000C94CE000C94CE000C94CE0018
:100030000C94CE000C94CE000C94CE000C94CE0008
:100040000C9408110C94CE000C94C6110C94A011C1
:100050000C94CE000C94CE000C94CE000C94CE00E8
:100060000C94CE000C94CE0007634236B79BD8A701
:100070001A39685618AEBAAB558C1D3CB7CC5763CD
:10008000BD6DEDFD753EF6177231BF000000803F7B
:1000900008000000BE922449123EABAAAA2ABECD97
:1000A000CCCC4C3E00000080BEABAAAAAA3E000009
:1000B0000000BF000000803F000000000008417801
:1000C000D3BB4387D1133D190E3CC3BD4282AD2B38
:1000D0003E68EC8276BED98FE1A93E4C80EFFFBE30
:1000E00001C4FF7F3F00000000000000000024006A
:1000F00027002A0000000000250028002B0004042F
:1001000004040404040402020202020203030303BF
:10011000030301020408102040800102040810209B
:100120000102040810200000000800020100000382
:10013000040700000000000000007C3C3E5E2B3DF8
:100140003F2F5B5D3B2C2A225C00F81111241FBE5F
:10015000CFEFD8E0DEBFCDBF24E0ACE9B1E001C015
:100160001D92AB39B207E1F711E0A0E0B1E0EAE19E
:10017000F4E302C005900D92AC39B107D9F710E055
:10018000C6EAD0E004C02197FE010E94EE17C53AEE
:10019000D107C9F70E9440120C940B1A0C9400006E
:1001A00090E0FC01EA5DFE4F2491FC01EE5EFE4F03
:1001B0003491FC01E250FF4FE491EE23C9F0222379
:1001C00039F0233001F1A8F4213019F1223029F15E
:1001D000F0E0EE0FFF1FEC50FF4FA591B4918FB7E9
:1001E000F894EC91611126C030953E233C938FBF6B
:1001F00008952730A9F02830C9F0243049F78091BC
:1002000080008F7D03C0809180008F778093800075
:10021000DFCF84B58F7784BDDBCF84B58F7DFBCFF7
:100220008091B0008F778093B000D2CF8091B000E2
:100230008F7DF9CF3E2BDACFCF93DF9390E0FC0197
:10024000EE5EFE4F249182509F4FFC0184918823E3
:10025000D1F090E0880F991FFC01E651FF4FA59166
:10026000B491FC01EC50FF4FC591D491623071F410
:100270009FB7F8943C91822F809583238C93E881DB
:100280002E2B28839FBFDF91CF9108958FB7F894CD
:10029000EC912E2B2C938FBFF6CF2FB7F894609153
:1002A000A8017091A9018091AA019091AB012FBF83
:1002B000089508950895AF92BF92CF92DF92EF9282
:1002C000FF920F931F93CF93DF936C017B018B0100
:1002D000040F151FEB015E01AE18BF08C017D10750
:1002E00059F06991D601ED91FC910190F081E02DDA
:1002F000C6010995892B79F7C501DF91CF911F912F
:100300000F91FF90EF90DF90CF90BF90AF90089546
:10031000FC01538D448D252F30E0842F90E0821B0B
:10032000930B541710F0CF96089501970895FC0190
:10033000918D828D981761F0A28DAE0FBF2FB11DE8
:100340005D968C91928D9F5F9F73928F90E0089540
:100350008FEF9FEF0895FC01918D828D981731F0FA
:10036000828DE80FF11D858D90E008958FEF9FEF4E
:100370000895FC01918D228D892F90E0805C9F4F24
:10038000821B91098F73992708958FEA93E00E9449
:10039000B90121E0892B09F420E0822F089580E043
:1003A00090E0892B29F00E94C50181110C94000076
:1003B0000895FC01A48DA80FB92FB11DA35ABF4FFA
:1003C0002C91848D90E001968F739927848FA68954
:1003D000B7892C93A089B1898C91837080648C93A8
:1003E000938D848D981306C00288F389E02D808157
:1003F0008F7D80830895EF92FF920F931F93CF9389
:10040000DF93EC0181E0888F9B8D8C8D98131AC04F
:10041000E889F989808185FF15C09FB7F894EE8936
:10042000FF896083E889F989808183708064808393
:100430009FBF81E090E0DF91CF911F910F91FF90DE
:10044000EF900895F62E0B8D10E00F5F1F4F0F7386
:100450001127E02E8C8D8E110CC00FB607FCFACF41
:10046000E889F989808185FFF5CFCE010E94D90105
:10047000F1CFEB8DEC0FFD2FF11DE35AFF4FF08212
:100480009FB7F8940B8FEA89FB8980818062CFCF78
:10049000CF93DF93EC01888D8823B9F0AA89BB89BB
:1004A000E889F9898C9185FD03C0808186FD0DC0A6
:1004B0000FB607FCF7CF8C9185FFF2CF808185FFC7
:1004C000EDCFCE010E94D901E9CFDF91CF91089500
:1004D0008FB7F89480919D018FBF089561E0FC0172
:1004E00084810E94D00080919C01811110929C0116
:1004F00008958EBD00000DB407FEFDCF8EB50895A2
:100500008FEF0C9479020F931F93CF93DF93EC013D
:100510000E944D018B010E9480028F3F69F00E9472
:100520004D01601B710B6C177D07A8F380E0DF9114
:10053000CF911F910F91089581E0F9CF8CBD9DBDA2
:100540000895CF93DF93EC0180919C01811109C044
:1005500081E080939C0180914C0490914D040E9415
:100560009E0260E08C81DF91CF910C94D0008F923D
:100570009F92AF92BF92FF920F931F93CF93DF93FF
:10058000EC01F62E49015A018E81882389F08F8172
:1005900098859C012F5F3F4F38872F838230924090
:1005A00018F40E948002F3CFCE010E946E021E82D8
:1005B000CE010E94A1028CE291E00E9483028F2D65
:1005C00080640E94790208E110E0D501C401002E88
:1005D00004C0B695A795979587950A94D2F70E947F
:1005E000790208501109083F8FEF180771F785E964
:1005F000FF2021F028E087E8F2128FEF0E947902B5
:1006000010E00E9480028A8787FF04C01F3F11F01C
:100610001F5FF7CFDF91CF911F910F91FF90BF9098
:10062000AF909F908F900895AF92BF92CF92DF923C
:10063000EF92FF920F931F93CF93DF93EC01690129
:10064000C801820F931F8130924050F58E8188231C
:1006500079F088819981AA81BB8184179507A607C3
:10066000B70731F48F819885C816D90608F042C0C3
:10067000488359836A837B838B85833039F089E093
:10068000440F551F661F771F8A95D1F79A01AB015A
:1006900061E1CE010E94B702882389F083E08D8357
:1006A000CE010E946E0280E0DF91CF911F910F91E9
:1006B000FF90EF90DF90CF90BF90AF9008950E9491
:1006C0004D015B010E9480028A878F3F69F40E947E
:1006D0004D016A197B096D327140A0F38FE08D8363
:1006E000CE010E946E02DCCF8E3F89F418861F82F5
:1006F00081E08E838F8198858C159D0550F40E9432
:1007000080028F819885019698878F83F3CF8DE043
:10071000E6CF6701E00EF11E0E948002F601819390
:100720006F01EE15FF05C1F78F819885080F191F1E
:1007300018870F838985882319F001151240A0F0CE
:100740008E81882389F08F8198859C012F5F3F4F90
:1007500038872F838230924018F40E948002F3CFB2
:10076000CE010E946E021E8281E09ECFEF92FF9228
:100770000F931F93CF93DF93EC01790182E1411531
:1007800051056105710599F08B85833039F089E059
:10079000440F551F661F771F8A95D1F79A01AB0149
:1007A00068E1CE010E94B702882319F084E08D83AE
:1007B00030C08EEF0E94790287018EEFF81AF8019F
:1007C00081918F010E9479020E151F05C1F78FEFED
:1007D0000E9479028FEF0E9479020E9480028A872C
:1007E0008F71853089F488E592E00E948302882326
:1007F000A9F020E030E0A9016DE0CE010E94B7022F
:10080000882371F084E1D3CF81E18D83CE010E94F2
:100810006E02CE010E946E0280E00AC085E1C7CF61
:100820000E9480028111EECFCE010E946E0281E013
:10083000DF91CF911F910F91FF90EF900895CF938B
:10084000DF938091AC018823A9F1C091AD03D091D1
:10085000AE03409104015091050160910601709131
:1008600007012DEA31E0CE010E94B603811104C0D8
:1008700080E0DF91CF91089540919E0150919F01BA
:100880006091A0017091A1014115510561057105AB
:1008900079F02DEA31E0CE010E94B603882341F3BE
:1008A00010929E0110929F011092A0011092A1013E
:1008B0001092AC0181E0DDCF8F929F92AF92BF92F8
:1008C000EF92FF920F931F93CF934B015C01C42FC4
:1008D0008091040190910501A0910601B09107015A
:1008E00088159905AA05BB0549F10E941F048111CD
:1008F0000BC080E0CF911F910F91FF90EF90BF90C0
:10090000AF909F908F9008958DEAE82E81E0F82EA9
:1009100000E012E030E020E0B501A4018091AD03D9
:100920009091AE030E941403882319F3809204016E
:1009300090920501A0920601B09207014091AC018E
:100940004C2B4093AC0181E0D5CF8F929F92AF9218
:10095000BF92CF92DF92EF92FF92CF932EE434E0DA
:100960003093AE032093AD03882309F46DC040E0BB
:1009700060E070E0CB010E945C0481110BC080E05C
:10098000CF91FF90EF90DF90CF90BF90AF909F906E
:100990008F90089580916B038F7789F7809177030B
:1009A00090917803A0917903B0917A0384369105F0
:1009B000A105B10520F3C0907303D0907403E090BB
:1009C0007503F0907603C114D104E104F104B9F287
:1009D00040E0C701B6010E945C04882381F2809147
:1009E000B8019091B9018115924049F6A091BD01DD
:1009F000AA2329F26091BB017091BC0161157105B8
:100A000009F4BDCF2091BA01222309F4B8CFA093F5
:100A10006C0420935E0490E080E030E0E1E0F0E0E0
:100A2000C82FAF01082E02C0440F551F0A94E2F7E9
:100A30002417350769F041E0480F01968930910588
:100A400079F7409367049BCFC12CD12C7601C0CF9E
:100A5000809367042091C3013091C40150E040E0CD
:100A60002115310541F42091D1013091D2014091FD
:100A7000D3015091D40120935F04309360044093DC
:100A800061045093620446015701860E971EA11C13
:100A9000B11C80926D0490926E04A0926F04B0928B
:100AA0007004E091BE01F091BF01F0937304E093F4
:100AB0007204B0E00E94E114DC01CB01880D991DA5
:100AC000AA1DBB1D8093740490937504A0937604B3
:100AD000B093770425E0EE0FFF1F2A95E1F7E15070
:100AE000FE4FEF2FFF27E6958E0F9F1FA11DB11D13
:100AF0008093680490936904A0936A04B0936B0494
:100B00008090C0019090C101B12CA12C811491045E
:100B100041F48090CD019090CE01A090CF01B09093
:100B2000D001C81AD90AEA0AFB0AC80CD91CEA1C67
:100B3000FB1C04C0F694E794D794C794CA95D2F7E7
:100B4000C0926304D0926404E0926504F09266045B
:100B500085EFC8168FE0D806E104F10428F48CE094
:100B60008093710481E00CCF80E125EFC2162FEF56
:100B7000D206E104F104A0F38091D9019091DA0149
:100B8000A091DB01B091DC01809374049093750413
:100B9000A0937604B093770480E2E2CF4F925F9205
:100BA0006F927F928F929F92AF92BF92CF92DF927D
:100BB000EF92FF920F931F93CF93DF93EC0142309C
:100BC00051056105710590F480E0DF91CF911F918F
:100BD0000F91FF90EF90DF90CF90BF90AF909F90DC
:100BE0008F907F906F905F904F90089589859A8540
:100BF000AB85BC850196A11DB11D84179507A6077D
:100C0000B70710F3CB88DC88ED88FE888F898031A8
:100C100009F042C0BB27A72F962F852F4801590105
:100C20002A013B01C80ED91EEA1EFB1E8091040159
:100C300090910501A0910601B0910701C816D9064F
:100C4000EA06FB0699F58F898031C1F5B301A2014F
:100C5000552766277727440F551F43555E4FFA01E6
:100C6000918280828091AC0181608093AC018A89FD
:100C7000823080F08D819E81AF81B8858C0D9D1D65
:100C8000AE1DBF1D80939E0190939F01A093A00174
:100C9000B093A10181E099CFDB01CA01E7E0B695ED
:100CA000A79597958795EA95D1F7B8CF40E0C7010A
:100CB000B6010E945C048111C6CF86CFB301A201A8
:100CC0004F77552766277727440F551F440F551F29
:100CD00043555E4FFA0180829182A282B382C2CFD5
:100CE0008F929F92AF92BF92CF92DF92EF92FF923C
:100CF0000F931F93CF93DF93FC0181859285A3858A
:100D0000B4850196A11DB11D84179507A607B707E5
:100D100070F480E0DF91CF911F910F91FF90EF90E1
:100D2000DF90CF90BF90AF909F908F900895838871
:100D30009488A588B6888789803189F5BB27A72F35
:100D4000962F852FE9016A017B018F01BC01CD013E
:100D5000680D791D8A1D9B1D8090040190900501EE
:100D6000A0900601B090070186169706A806B9065E
:100D700001F5F8018789803111F5DD24EE24FF2487
:100D8000F601EE0FFF1FE355FE4F80819181B0E029
:100D9000A0E088839983AA83BB8381E0BBCFDB017A
:100DA000CA01C7E0B695A79597958795CA95D1F7DB
:100DB000C9CF40E00E945C048111DBCFAACFE89448
:100DC000C7F8DD24EE24FF24F601EE0FFF1FEE0F1F
:100DD000FF1FE355FE4F80819181A281B381BF70D7
:100DE000D8CF4F925F926F927F92AF92BF92CF9285
:100DF000DF92EF92FF920F931F93CF93DF9300D078
:100E000000D0CDB7DEB78C0149835A836B837C83D6
:100E10005901C12CD12C7601412C82E0582E612C35
:100E2000712C49815A816B817C819E012F5F3F4FDC
:100E3000C8010E947006882339F1F8018585A30155
:100E4000920104C0220F331F441F551F8A95D2F709
:100E5000DA01C901C80ED91EEA1EFB1E49815A815A
:100E60006B817C818789803111F188EF9FEFAFEF33
:100E7000BFE0481759076A077B0798F2F501C0825F
:100E8000D182E282F38281E00F900F900F900F9059
:100E9000DF91CF911F910F91FF90EF90DF90CF9056
:100EA000BF90AF907F906F905F904F90089588EFC4
:100EB0009FEFA0E0B0E0DDCFCF93DF93FC01258171
:100EC000222321F080E0DF91CF910895EC01809101
:100ED0007104803159F582E08583178A108E118E56
:100EE000128E8091720490917304B0E0A0E025E02E
:100EF000880F991FAA1FBB1F2A95D1F7838B948B4C
:100F0000A58BB68B8AE594E09C8F8B8F81E08C83D8
:100F10001E821F82188619861A861B861C861D86CD
:100F20001E861F86188A198A1A8ACDCF803251F6FA
:100F300083E0858340917404509175046091760438
:100F400070917704478B508F618F728F9F012D5E58
:100F50003F4F8AE594E00E94F1068111D3CFB2CFD2
:100F60008F929F92AF92BF92CF92DF92EF92FF92B9
:100F70000F931F93CF93DF93EC018D8181110EC0EE
:100F800080E0DF91CF911F910F91FF90EF90DF9064
:100F9000CF90BF90AF909F908F9008950B891C8940
:100FA0002D893E89041715072607370748F34A019C
:100FB0005B01823031F48A869B86AC86BD8681E0F7
:100FC000E0CF81149104A104B10449F41E821F8270
:100FD000188619861A861B861C861D86F0CF0A8500
:100FE0001B852C853D85EB8DFC8D858590E00996D4
:100FF000B901A8014150510961097109082E04C0C5
:1010000076956795579547950A94D2F775016401CF
:10101000E1E0CE1AD108E108F10804C0F694E794A3
:10102000D794C7948A95D2F7C416D506E606F70674
:1010300020F0012B022B032B11F58F89988DA98DA0
:10104000BA8D8E839F83A887B9878E010A5F1F4F51
:10105000C114D104E104F10409F4ADCF4E815F81E4
:101060006885798598018B8D9C8D0E94700691E032
:10107000C91AD108E108F1088111EACF81CFC41A59
:10108000D50AE60AF70AE1CF3F924F925F926F923C
:101090007F928F929F92AF92BF92CF92DF92EF9208
:1010A000FF920F931F93CF93DF93CDB7DEB72C97AB
:1010B0000FB6F894DEBF0FBECDBF5C01DC015B96BE
:1010C0008D909C905C9716964D905D906D907C9065
:1010D0001997411451046104710409F468C0BFEF09
:1010E0004B1A5B0A6B0A7B0A312CF40181859285CD
:1010F000A385B4859C01AD012F5F3F4F4F4F5F4FDC
:1011000029873A874B875C87730162011D821E82A3
:101110001F821886F40181859285A385B4852D816F
:101120003E814F815885281739074A075B0708F029
:1011300056C089859A85AB85BC858C159D05AE0505
:10114000BF0550F482E0C82ED12CE12CF12C92E0A6
:10115000492E512C612C712C9E012F5F3F4FB701FE
:10116000A601C4010E9470068823C9F189819A8171
:10117000AB81BC81892B8A2B8B2B09F1260137018E
:101180009FEF491A590A690A790A2D813E814F81D8
:1011900058852F5F3F4F4F4F5F4F2D833E834F83C7
:1011A00058873FEFC31AD30AE30AF30AB3CFF40117
:1011B00040805180628073803324339496CFC4146E
:1011C000D504E604F70409F70FEF1FEF2FEF3FE018
:1011D000B701A601C4010E94CE05811119C080E0AB
:1011E0002C960FB6F894DEBF0FBECDBFDF91CF9126
:1011F0001F910F91FF90EF90DF90CF90BF90AF9035
:101200009F908F907F906F905F904F903F90089548
:10121000F50146815781608571854115510561054C
:10122000710539F097018601C4010E94CE0588231B
:10123000B1F2D5011696CD92DD92ED92FC921997FE
:10124000332051F0D701C6010196A11DB11DF40153
:1012500080839183A283B383F5018789908DA18DCB
:10126000B28D892B8A2B8B2B39F4C78AD08EE18ED5
:10127000F28E84818068848381E0B2CFCF93DF9344
:10128000EC018D81882389F18C8187FF2AC06E85CE
:101290007F858889998941E00E945C04882329F12F
:1012A000EA8980E2E89FF0011124E355FE4F309770
:1012B000E1F08D81823040F48B899C89AD89BE89B3
:1012C000848F958FA68FB78F8F89988D938F828FFC
:1012D0008F89988DA98DBA8DB58BA48B8C818F77D2
:1012E0008C83DF91CF910C941F0480E0DF91CF912C
:1012F0000895CF93DF93EC010E943E09882311F0FB
:101300001D8281E0DF91CF9108952F923F924F92FD
:101310005F926F927F928F929F92AF92BF92CF9285
:10132000DF92EF92FF920F931F93CF93DF9300D042
:1013300000D0CDB7DEB78C015B011A01DC01159638
:101340008C911597813009F0C8C014968C9181FF5B
:10135000C4C082FDAEC06101D8011A964D915D9165
:101360006D917C911D97C114D10409F429C15B963C
:101370008D919C915C97FC0174802FEF270D2A01C1
:101380003B0139E076946794579447943A95D1F7A6
:10139000722E74207A01F1E0FF22711020C0E11456
:1013A000F104E9F416964D915D916D917C91199738
:1013B000411551056105710509F098C057968D9149
:1013C0009D910D90BC91A02D0097A105B10509F04C
:1013D000AFC0C8010E944408882309F47EC080E0A1
:1013E00092E08E199F0946018C159D0508F44C0169
:1013F000D8015B964D915C915C9716968D919D916D
:101400000D90BC91A02D0297A109B109FA01258583
:1014100004C0880F991FAA1FBB1F2A95D2F74685C3
:10142000578560897189840F951FA61FB71F9C017E
:10143000AD01270D311D411D511D29013A018114B6
:1014400032E0930609F07AC0809104019091050181
:10145000A0910601B091070184159505A605B70571
:1014600059F48FEF9FEFDC01809304019093050105
:10147000A0930601B09307019501B301A2018091E9
:10148000AD039091AE030E94B603882331F19EEF25
:10149000B91AC818D908F80182859385A485B5853D
:1014A000880D991DA11DB11D82879387A487B587DB
:1014B00053CFF8014389548965897689828593855C
:1014C000A485B585481759076A077B0709F443CFF8
:1014D000C8010E94B00781113ECF81E090E0D801A1
:1014E00013969C938E93129780E007C09E012F5F06
:1014F0003F4F0E947006811102C090E077C0898141
:101500009A81AB81BC81F801238D348DF901278943
:1015100048EF5FEF60E070E0203121F048EF5FEFCF
:101520006FEF7FE084179507A607B70708F051CF44
:10153000F80186839783A087B18751CFE114F10426
:1015400091F5D8011A964D915D916D917C911D9701
:1015500053968D919D910D90BC91A02D48175907E0
:101560006A077B0700F10E941F04882309F4B5CFA6
:1015700040920401509205016092060170920701A9
:101580008091AC0181608093AC01970123553E4F5F
:10159000D501C901880D991DF9018E179F0759F0D2
:1015A0004D914193FACF41E0C301B2010E945C0426
:1015B0008111EBCF92CF821B930BA80EB91E69CF7E
:1015C000F80183899489A589B68984179507A607A8
:1015D000B70738F48481438B548B658B768B806896
:1015E0008483F801848183FD18C0C1010F900F909E
:1015F0000F900F90DF91CF911F910F91FF90EF907F
:10160000DF90CF90BF90AF909F908F907F906F9022
:101610005F904F903F902F900895C8010E943E091F
:10162000882309F45ACFE1CFCF93DF931F92CDB730
:10163000DEB7698341E050E0BE016F5F7F4F0E94DB
:1016400085090F90DF91CF910895FC01DB0112967F
:101650008D919C9113979383828386E391E091838C
:10166000808314968C911497848315968C9115978A
:10167000858316964D915D916D917C911997468366
:101680005783608771871A964D915D916D917C911A
:101690001D9742875387648775871E964D915D918C
:1016A0006D917C91519746875787608B718B5296CD
:1016B0008C915297828B53964D915D916D917C9157
:1016C0005697438B548B658B768B57964D915D91D6
:1016D0006D917C915A97478B508F618F728F5B967B
:1016E0008D919C91948F838F0895FC01818D928DB3
:1016F000009711F00C943E090895DC015996ED9184
:10170000FC913097B9F083899489A589B68942857F
:10171000538564857585841B950BA60BB70B8115C6
:1017200020E89207A105B10538F08FEF9FE7A0E010
:10173000B0E0089590E080E00895CF93DF93EC014E
:10174000E98DFA8D309749F481E090E09B838A839C
:1017500090E080E0DF91CF91089513821282898D0D
:101760009A8D0E948509E98DFA8D22813381232B80
:1017700059F7F0CFCF93DF931F92CDB7DEB76983D0
:10178000DC01ED91FC910280F381E02D41E050E01D
:10179000BE016F5F7F4F09950F90DF91CF91089544
:1017A0002F923F924F925F926F927F928F929F9271
:1017B000AF92BF92CF92DF92EF92FF920F931F935F
:1017C000CF93DF9300D01F92CDB7DEB7FC018581A8
:1017D000811118C08FEF9FEF0F900F900F90DF9146
:1017E000CF911F910F91FF90EF90DF90CF90BF901E
:1017F000AF909F908F907F906F905F904F903F90B1
:101800002F900895848180FFE5CF438954896589AD
:10181000768982859385A485B585312C212C48173E
:1018200059076A077B0719F022242394312C6F0192
:101830002101CE0101963C01DF011696BB83AA83EC
:101840004114510409F4C5C0F601428553856485ED
:1018500075854A01F1E09F22D6015B968D919C919E
:101860005C978A019B01E9E03695279517950795C6
:10187000EA95D1F71596EC91E230E9F5FC01628D1D
:10188000738D848D958D600F711F821F931FA12C06
:1018900022E0B22EA818B9084A145B0408F45201D9
:1018A000F601248126FD04C0A114F2E0BF0671F404
:1018B000009104011091050120910601309107016A
:1018C000061717072807390709F05EC040E00E9495
:1018D0005C04882309F47ECFC40183559E4FD30155
:1018E0009C012A0D3B1DFC012E173F0709F46CC01B
:1018F00041914D93F9CFDC011496BC90BA94B0227B
:101900008114910479F4B1100DC0452B462B472B5F
:1019100069F5F6018789908DA18DB28D86839783B5
:10192000A087B187D6015B96ED91FC915C971696E6
:101930006D917D918D919C911997625071098109EA
:101940009109258504C0660F771F881F991F2A9566
:10195000D2F70685178520893189600F711F821F94
:10196000931F6B0D711D811D911D91CFD601169690
:101970004D915D916D917C9119972A813B810E94D7
:1019800070068111CFCF26CF730185019401AB0181
:10199000BC018091AD039091AE030E941403882393
:1019A00009F418CF6A0C7B1CF60182859385A48507
:1019B000B5858A0D9B1DA11DB11D82879387A487C4
:1019C000B5874A185B083CCF281B390B620E731E83
:1019D000EBCF2A94232809F0FDCE898190E0FCCE3C
:1019E000FC01818D928D009711F00C94D00B8FEF3C
:1019F0009FEF08950F931F93CF93DF93EC01898D91
:101A00009A8D10E000E0009799F00E94D00B8C01B5
:101A10000F3F100769F0898D9A8DFC01428553852F
:101A20006485758541505109610971090E94B007AB
:101A3000C801DF91CF911F910F91089590E080E050
:101A40000895FC0101900020E9F73197AF01481B90
:101A5000590BBC018FEA93E00C945B01CF93DF93A9
:101A60000E94210DEC018EE391E00E94210D8C0F6C
:101A70009D1FDF91CF910895CF93DF93EC011982E1
:101A800018821B821A821D821C8261E070E090E045
:101A900080E00E9419190097A1F0998388831B8226
:101AA0001A822C813D81232B11F4FC0110821D82AE
:101AB0001C8260E471E088819981DF91CF910C9460
:101AC000F51988819981009711F00E949018198268
:101AD00018821D821C821B821A82DF91CF91089589
:101AE0000F931F93CF93DF93EC0180E2689FF00187
:101AF0001124E355FE4F6A8B8091040190910501FA
:101B0000A0910601B09107018E879F87A88BB98BA2
:101B10000489158930E020E09801112700270F8BF8
:101B2000188F298F3A8F828D938DB0E0A0E0AC01A1
:101B3000BD01402B512B622B732B4F8B588F698F1C
:101B40007A8F83858871A9F4848D958DA68DB78D44
:101B50008B8B9C8BAD8BBE8B81E08D8381E08C83E6
:101B60001E821F82188619861A861B861C861D8671
:101B700003C0803131F080E0DF91CF911F910F9150
:101B800008959E012D5E3F4F8B8D9C8D0E94F10626
:101B9000882389F384E0E1CFAF92BF92CF92DF92A6
:101BA000EF92FF920F931F93CF93DF93CDB7DEB7E2
:101BB0002B970FB6F894DEBF0FBECDBF6C01FE01B0
:101BC0003196CE010C967F0120E22193E817F907A8
:101BD000E1F7DA0120E037E09D91B92E9923A9F1D0
:101BE0009E32B9F43A3091F480E02B960FB6F89417
:101BF000DEBF0FBECDBFDF91CF911F910F91FF9040
:101C0000EF90DF90CF90BF90AF90089528E03AE03A
:101C1000E3CFEAE3F1E08491882321F03196981331
:101C2000FACFE2CF321700F38FED890F8E35E0F651
:101C30008FE9890F8A3118F440EEB42EB90EF701FE
:101C4000E20FF11DB0822F5FC7CF8981803261F230
:101C50008B01FB01838D948DF601948F838FFB01A3
:101C600016821782108611861286138614861586B0
:101C7000F80182859385A485B58543895489658952
:101C8000768984179507A607B70708F0ADCF25E03A
:101C9000B695A795979587952A95D1F7F82FFF7058
:101CA000AF2EF8018581823008F49ECFC8010E94D2
:101CB000D00B97FD99CFF80182859385A485B585D2
:101CC0004F96A11DB11D82879387A487B587F0E247
:101CD000AF9EB001112463557E4F6115710509F463
:101CE00083CFFB018081882309F1853E19F4B1106F
:101CF00032C01EC04BE050E0C7010E94D619892BAC
:101D000009F0B6CF6A2DC6012B960FB6F894DEBF48
:101D10000FBECDBFDF91CF911F910F91FF90EF903C
:101D2000DF90CF90BF90AF900C94700DB1105CCF4E
:101D3000F601A28A8091040190910501A09106010B
:101D4000B091070186879787A08BB18BFB018081BB
:101D5000882309F449CFBB24B3948ACFEF92FF9232
:101D60000F931F93CF93DF93EC017B018A011B82BA
:101D70001A8288EE93E0A0E0B0E08C839D83AE836E
:101D8000BF8382E191E0998388838DE190E00E9496
:101D9000F4179A8F898F009779F02DE1F701DC0114
:101DA00001900D922A95E1F74CE050E0B801CE0188
:101DB0000C960E94FC19188EDF91CF911F910F9104
:101DC000FF90EF9008952F923F924F925F926F9203
:101DD0007F928F929F92AF92BF92CF92DF92EF92BB
:101DE000FF920F931F93CF93DF93CDB7DEB7C95800
:101DF000D1090FB6F894DEBF0FBECDBF1C821B8287
:101E000026E3E22E21E0F22EFA82E9821E828E0182
:101E10000F5F1F4FC8010E945C07B801CE018E5AA8
:101E20009F4F0E94250B1CAA1BAAFAAAE9AA1EAA68
:101E300068968FAD689781112AC1E3961FAE1EAEDA
:101E4000E39788EE93E0A0E0B0E0E7968CAF9DAF1B
:101E5000AEAFBFAFE79782E191E0E1969FAF8EAF63
:101E6000E197C857DF4F19821882C858D040EC96C6
:101E70001FAEEC97C857DF4FE881F981C858D040B2
:101E8000309709F4C0C18581882309F4BCC181E47D
:101E900091E00E942E0D5E0181E3A80EB11C9BE231
:101EA000292E91E0392ECE0181599F4F0E947D0B42
:101EB000892B09F47CC1C8010E943C0DCE01079614
:101EC0000E943C0DCE010D960E943C0DCE01439622
:101ED0000E943C0DCE0149960E943C0DCE014F96CA
:101EE0000E943C0DCE0185960E943C0DCE018B9642
:101EF0000E943C0D48016801CE0181599F4F0E940C
:101F0000F00C89AB1AAAF50101900020E9F731978E
:101F10007F01EA18FB08B7016F5F7F4F90E080E018
:101F20000E9419193C01009709F4D1C0FC011082EC
:101F3000B5010E94F519F60180819181009709F49D
:101F4000CBC06114710409F4C5C0228133812E1500
:101F50003F0508F4BFC0B3010E94F519F601F582F0
:101F6000E482C3010E949018F6E0CF0ED11CCA147F
:101F7000DB0411F687E0E82EF12C412C512C3201C4
:101F8000F40184819581892BF9F061E571E080810C
:101F900091810E94EC19892BB9F4B7010F2C000C28
:101FA000880B990B0E94E8139B01AC0160E070E084
:101FB00080E090E40E94D5159B01AC01C301B20101
:101FC0000E9433152B013C01F1E0EF1AF10886E085
:101FD000880E911CEFEFEE16FE0691F6C301B201DA
:101FE0000E949F152B014B016B01770FEE08FF0834
:101FF000F7FE7AC06DE28FEA93E00E94FB01222790
:102000003327A9012C193D094E095F0962961FAEBD
:1020100062977501F0E2EF0EF11CCA01B9012AE0E6
:1020200030E040E050E00E94CC17605DF701629321
:102030007F01211531054105510579F7E114F104BE
:1020400019F0C7010E94210D8EE391E00E94210D3D
:1020500061E085E00E941C018114910409F05FC0D9
:1020600060E085E00E94D0008FEE91E00197F1F7EB
:10207000750186E0E81AF108F701808191810097E7
:1020800011F00E9490180E151F0599F70CCF49E426
:1020900051E0BE016E5A7F4FCE01C1960E94CC0D19
:1020A000882309F4CACECE018E5A9F4F0E94790927
:1020B000BE016F5C7F4FC8010E94250B49E451E0CF
:1020C000B801CE0181599F4F0E94AE0ED3CEF12CA4
:1020D000E12C31CF0E949018F60171826082F38268
:1020E000E282F582E48240CFA701960162961FAE9C
:1020F00062977501F0E2EF0EF11CCA01B9012AE006
:1021000030E040E050E00E94CC17605DF701629340
:102110007F01211531054105510579F78FCFFFEF7B
:102120008F16910411F461E09CCFF101849183300A
:1021300021F148F48130B9F08230D1F0F0E88F1607
:1021400091048CF78DCF873011F1883041F18430C4
:10215000A9F78091800080628093800050928B006C
:1021600040928A0081CF84B5806884BD47BC7CCF13
:1021700084B5806284BD48BC77CF80918000806840
:102180008093800050928900409288006DCF8091AA
:10219000B00080688093B0004092B30065CF80911A
:1021A000B00080628093B0004092B4005DCFC85709
:1021B000DF4F88819981C858D040009751F00E9424
:1021C0007909C857DF4F88819981C858D0400E944B
:1021D0009018C757DF4F0FB6F894DEBF0FBECDBFC4
:1021E000DF91CF911F910F91FF90EF90DF90CF90F3
:1021F000BF90AF909F908F907F906F905F904F9027
:102200003F902F90089583E591E00E942E0DE1CF3D
:102210001F920F920FB60F9211242F933F938F931B
:102220009F93AF93BF938091A8019091A901A09132
:10223000AA01B091AB013091A70123E0230F2D3704
:1022400058F50196A11DB11D2093A7018093A80107
:102250009093A901A093AA01B093AB018091A3012F
:102260009091A401A091A501B091A6010196A11D94
:10227000B11D8093A3019093A401A093A501B093F5
:10228000A601BF91AF919F918F913F912F910F9098
:102290000FBE0F901F90189526E8230F0296A11DE0
:1022A000B11DD2CF1F920F920FB60F9211242F9310
:1022B0003F934F935F936F937F938F939F93AF93CE
:1022C000BF93EF93FF93E0910201F0910301099511
:1022D000FF91EF91BF91AF919F918F917F916F91FE
:1022E0005F914F913F912F910F900FBE0F901F90D4
:1022F00018951F920F920FB60F9211242F933F93B0
:102300004F935F936F937F938F939F93AF93BF93FD
:10231000EF93FF93E0910001F09101010995FF9186
:10232000EF91BF91AF919F918F917F916F915F914D
:102330004F913F912F910F900FBE0F901F901895C6
:102340001F920F920FB60F9211242F933F934F932A
:102350005F936F937F938F939F93AF93BF93EF930D
:10236000FF938FEA93E00E94D901FF91EF91BF9113
:10237000AF919F918F917F916F915F914F913F911D
:102380002F910F900FBE0F901F9018951F920F92D4
:102390000FB60F9211242F938F939F93EF93FF9378
:1023A000E091BF03F091C0038081E091C503F091FB
:1023B000C60382FD1BC090818091C8038F5F8F731D
:1023C0002091C903821741F0E091C803F0E0E15584
:1023D000FC4F958F8093C803FF91EF919F918F9150
:1023E0002F910F900FBE0F901F9018958081F4CF02
:1023F000EFEAF3E01382128288EE93E0A0E0B0E00F
:1024000084839583A683B78384E291E0918380835C
:1024100085EC90E09587848784EC90E097878687A9
:1024200080EC90E0918B808B81EC90E0938B828BA1
:1024300082EC90E0958B848B86EC90E0978B868B7A
:10244000118E128E138E148EECE4F4E080E58083FE
:102450001182EEE4F4E0158216821186138682E082
:1024600090E0A0E0B0E084879587A687B78713A2A5
:1024700015A614A686E391E093A782A717A6089550
:10248000789484B5826084BD84B5816084BD85B54F
:10249000826085BD85B5816085BD80916E0081605B
:1024A00080936E0010928100809181008260809301
:1024B0008100809181008160809381008091800003
:1024C0008160809380008091B10084608093B1002E
:1024D0008091B00081608093B00080917A00846028
:1024E00080937A0080917A00826080937A00809154
:1024F0007A00816080937A0080917A00806880936E
:102500007A001092C100E091BF03F091C00382E015
:102510008083E091BB03F091BC031082E091BD0386
:10252000F091BE038FEC80831092C703E091C30348
:10253000F091C40386E08083E091C103F091C2036F
:10254000808180618083E091C103F091C20380812A
:1025500088608083E091C103F091C203808180682C
:102560008083E091C103F091C20380818F7D8083DD
:1025700062E083E00E941C0183EE9EE090930301E1
:102580008093020180916900837F88608093690055
:10259000E99A86E691E00E942E0D61E085E00E94B6
:1025A0001C0180917D04882321F088E794E00E943B
:1025B0007909109259041092570410925404109201
:1025C00053048AE0809352040E944D01EB0161E0C4
:1025D000809152040E941C0161E0809152040E948B
:1025E000D0001FB7F8948091A201811127C0E8E0C4
:1025F000F1E08491ECE1F1E09491E82FF0E0EE0F4E
:10260000FF1FE651FF4FA591B491EC91E92321F40E
:1026100061E08AE00E94D00061E08AE00E941C0133
:102620008CB580618CBD8CB580648CBD61E08DE023
:102630000E941C0161E08BE00E941C018091A201BC
:102640008F5F8093A2011FBF82E580934C0410929C
:102650004D0480914C0490914D040E949E021AE01A
:102660008FEF0E9479021150D9F78EE494E00E9416
:10267000A10220E030E0A90160E08EE494E00E9435
:10268000B702182F80935804813099F00E944D01B1
:102690006C1B7D0B613D774060F381E080935304B8
:1026A0008EE494E00E946E028BE891E00E942E0D71
:1026B000FFCF2AEA31E040E050E068E08EE494E0A9
:1026C0000E94B70282FF2AC01093590480915904D6
:1026D000C12CD12C7601823029F4C12CD12CE12CD3
:1026E00080E4F82E20E030E0A90167E38EE494E076
:1026F0000E94B702A701960169E28EE494E00E946D
:10270000B702809358048823C1F00E944D016C1BCE
:102710007D0B613D774030F388E0C0CF14E00E942C
:102720008002809358041150D1F78A3A11F082E068
:10273000B5CF82E080935904C9CF8091590482308B
:10274000D1F420E030E0A9016AE38EE494E00E9435
:10275000B702882311F086E0A1CF0E948002807C1E
:10276000803C19F483E0809359040E9480020E9407
:1027700080020E9480028EE494E00E946E0280E556
:1027800080934C0410924D0481E00E94A50488239C
:10279000B1F088E794E00E945C07882309F484CFB5
:1027A00089E791E00E942E0DC0E0D0E02097F1F380
:1027B0000E94C5018823D1F30E940000F7CF80E07A
:1027C0000E94A504882309F46FCFE3CFE89409C0E1
:1027D00097FB3EF490958095709561957F4F8F4F54
:1027E0009F4F9923A9F0F92F96E9BB279395F6956A
:1027F000879577956795B795F111F8CFFAF4BB0FE8
:1028000011F460FF1BC06F5F7F4F8F4F9F4F16C04B
:10281000882311F096E911C0772321F09EE8872FD5
:10282000762F05C0662371F096E8862F70E060E091
:102830002AF09A95660F771F881FDAF7880F96950A
:10284000879597F908950E9436140C94A7140E9456
:10285000991438F00E94A01420F0952311F00C94E4
:1028600090140C94961411240C94DB140E94B81448
:1028700070F3959FC1F3950F50E0551F629FF001D3
:10288000729FBB27F00DB11D639FAA27F00DB11DEC
:10289000AA1F649F6627B00DA11D661F829F222775
:1028A000B00DA11D621F739FB00DA11D621F839FFC
:1028B000A00D611D221F749F3327A00D611D231FD2
:1028C000849F600D211D822F762F6A2F11249F5720
:1028D00050409AF0F1F088234AF0EE0FFF1FBB1F23
:1028E000661F771F881F91505040A9F79E3F5105E2
:1028F00080F00C9490140C94DB145F3FE4F3983E4A
:10290000D4F3869577956795B795F795E7959F5F8B
:10291000C1F7FE2B880F911D9695879597F908951D
:1029200097F99F6780E870E060E008959FEF80EC82
:10293000089500240A941616170618060906089525
:1029400000240A9412161306140605060895092E8B
:102950000394000C11F4882352F0BB0F40F4BF2BFA
:1029600011F460FF04C06F5F7F4F8F4F9F4F08953A
:1029700057FD9058440F551F59F05F3F71F0479530
:10298000880F97FB991F61F09F3F79F08795089515
:10299000121613061406551FF2CF4695F1DF08C034
:1029A000161617061806991FF1CF86957105610551
:1029B00008940895E894BB2766277727CB0197F9F9
:1029C00008950E942315A59F900DB49F900DA49F7C
:1029D000800D911D112408952F923F924F925F9286
:1029E0006F927F928F929F92AF92BF92CF92DF921F
:1029F000EF92FF920F931F93CF93DF93CDB7DEB784
:102A0000CA1BDB0B0FB6F894DEBF0FBECDBF099417
:102A10002A88398848885F846E847D848C849B846E
:102A2000AA84B984C884DF80EE80FD800C811B817C
:102A3000AA81B981CE0FD11D0FB6F894DEBF0FBEAB
:102A4000CDBFED010895A29FB001B39FC001A39F28
:102A5000700D811D1124911DB29F700D811D1124D7
:102A6000911D08955058BB27AA270E944A150C941F
:102A7000A7140E94991438F00E94A01420F039F491
:102A80009F3F19F426F40C9496140EF4E095E7FB9E
:102A90000C949014E92F0E94B81458F3BA176207E7
:102AA00073078407950720F079F4A6F50C94DA14DF
:102AB0000EF4E0950B2EBA2FA02D0B01B901900159
:102AC0000C01CA01A0011124FF27591B99F0593F9D
:102AD00050F4503E68F11A16F040A22F232F342FE5
:102AE0004427585FF3CF469537952795A795F04033
:102AF0005395C9F77EF41F16BA0B620B730B840B48
:102B0000BAF09150A1F0FF0FBB1F661F771F881FFF
:102B1000C2F70EC0BA0F621F731F841F48F4879557
:102B200077956795B795F7959E3F08F0B0CF939549
:102B3000880F08F09927EE0F9795879508950E94C2
:102B4000A6156894B1110C94DB1408950E94C0146A
:102B500088F09F5798F0B92F9927B751B0F0E1F05E
:102B6000660F771F881F991F1AF0BA95C9F714C00E
:102B7000B13091F00E94DA14B1E008950C94DA14A7
:102B8000672F782F8827B85F39F0B93FCCF3869547
:102B900077956795B395D9F73EF4909580957095A4
:102BA00061957F4F8F4F9F4F0895FA01EE0FFF1FE2
:102BB000309621053105A1F16115710561F4803868
:102BC000BFE39B0749F168949038810561F0803834
:102BD000BFEF9B0741F099234AF5FF3FE10531051F
:102BE000210519F1E8940894E795D901AA2329F45D
:102BF000AB2FBE2FF85FD0F310C0FF5F70F4A69527
:102C0000E0F7F73950F019F0FF3A38F49F779F93C7
:102C10000DD00F9007FC9058089546F00C94961430
:102C200060E070E080E89FE308954FE79F775F934F
:102C30004F933F932F930E94D0162F913F914F9126
:102C40005F910E9423140C942D1629F416F00C9415
:102C500090140C94DA140C9496140E94C014A8F3E7
:102C60009638A0F707F80F92E8942BE33AEA48EB7E
:102C70005FE70E9439140F920F920F924DB75EB723
:102C80000F920E941817E8E6F0E00E945F164F913D
:102C90005F91EF91FF91E595EE1FFF1F49F0FE5701
:102CA000E0684427EE0F441FFA95E1F74195550B74
:102CB0000E9492160F9007FE0C9486160895DF93DB
:102CC000CF931F930F93FF92EF92DF927B018C01C2
:102CD000689406C0DA2EEF010E943614FE01E894D3
:102CE000A5912591359145915591A6F3EF010E944B
:102CF0004A15FE019701A801DA9469F7DF90EF9079
:102D0000FF900F911F91CF91DF9108959B01AC012E
:102D100060E070E080E89FE30C944C170C949014F2
:102D20000C94BE170E94C014D8F39923C9F3940FD2
:102D3000511DA3F39150504094F059F0882332F084
:102D4000660F771F881F91505040C1F79E3F510575
:102D50002CF7880F911D9695879597F908955F3FF9
:102D6000ACF0983E9CF0BB27869577956795B79514
:102D700008F4B1609395C1F7BB0F58F711F460FFE9
:102D8000E8CF6F5F7F4F8F4F9F4FE3CF0C94DB14E3
:102D900016F00C94BE170C94961468940C9490142E
:102DA0000E94C014A8F39923C1F3AEF3DF93CF932D
:102DB0001F930F93FF92C92FDD2788232AF02197B5
:102DC000660F771F881FDAF720E030E040E85FEBFE
:102DD0009FE3883920F0803E38F021968F770E945B
:102DE0003315E0E9F0E004C00E943315EDEBF0E0AC
:102DF0000E945F168B01BE01EC01FB2E6F5771091B
:102E00007595771F880B990B0E94E81328E132E72C
:102E100041E35FE30E943614AF2D9801AE01FF90AD
:102E20000F911F91CF91DF910E944A150C94A71426
:102E3000FA01DC01AA0FBB1F9B01AC01BF5728F4AC
:102E4000222733274427507820C0B75190F4AB2F66
:102E50000024469537952795011CA395D2F30020B1
:102E600071F0220F331F441FB395DAF30ED00C9488
:102E7000321561307105A0E88A07B94630F49B012C
:102E8000AC016627772788279078309621F0208339
:102E900031834283538308950E9460170C94A714D2
:102EA0000E94A01458F00E94991440F029F45F3F4A
:102EB00029F00C94901451110C94DB140C9496147A
:102EC0000E94B81468F39923B1F3552391F3951B2D
:102ED000550BBB27AA2762177307840738F09F5F3B
:102EE0005F4F220F331F441FAA1FA9F335D00E2EA8
:102EF0003AF0E0E832D091505040E695001CCAF715
:102F00002BD0FE2F29D0660F771F881FBB1F2617D7
:102F100037074807AB07B0E809F0BB0B802DBF01AE
:102F2000FF2793585F4F3AF09E3F510578F00C947D
:102F300090140C94DB145F3FE4F3983ED4F3869531
:102F400077956795B795F7959F5FC9F7880F911D9E
:102F50009695879597F90895E1E0660F771F881F8A
:102F6000BB1F621773078407BA0720F0621B730B3D
:102F7000840BBA0BEE1F88F7E09508959F3F31F060
:102F8000915020F4879577956795B795880F911D97
:102F90009695879597F90895A1E21A2EAA1BBB1B57
:102FA000FD010DC0AA1FBB1FEE1FFF1FA217B30715
:102FB000E407F50720F0A21BB30BE40BF50B661F2B
:102FC000771F881F991F1A9469F7609570958095EF
:102FD00090959B01AC01BD01CF010895EE0FFF1F3D
:102FE0000590F491E02D09940F931F93CF93DF93F5
:102FF0008230910510F482E090E0E0919904F09124
:103000009A0430E020E0B0E0A0E0309799F4211578
:10301000310509F44AC0281B390B24303105D8F595
:103020008A819B816115710589F1FB0193838283FC
:10303000FE0111C040815181028113814817590757
:10304000E0F04817590799F4109761F012960C9325
:10305000129713961C933296CF01DF91CF911F9157
:103060000F9108950093990410939A04F4CF2115B9
:10307000310551F04217530738F0A901DB019A01DD
:10308000BD01DF01F801C1CFEF01F9CF90939A04A0
:1030900080939904CDCFFE01E20FF31F81939193AA
:1030A0002250310939832883D7CF2091970430915A
:1030B0009804232B41F420910A0130910B013093A5
:1030C000980420939704209108013091090121155B
:1030D000310541F42DB73EB740910C0150910D01DF
:1030E000241B350BE0919704F0919804E217F30745
:1030F000A0F42E1B3F0B2817390778F0AC014E5F68
:103100005F4F2417350748F04E0F5F1F5093980408
:1031100040939704819391939FCFF0E0E0E09CCFA0
:10312000CF93DF930097E9F0FC013297138212826C
:10313000A0919904B0919A04ED0130E020E010973D
:10314000A1F420813181820F931F20919704309147
:1031500098042817390709F061C0F0939804E093A8
:103160009704DF91CF910895EA01CE17DF07E8F5C4
:103170004A815B819E0141155105B1F7E901FB834D
:10318000EA8349915991C40FD51FEC17FD0761F4EB
:10319000808191810296840F951FE901998388832C
:1031A000828193819B838A83F0E0E0E012968D9187
:1031B0009C9113970097B9F52D913C911197CD01F2
:1031C0000296820F931F209197043091980428173C
:1031D000390739F6309751F510929A0410929904F4
:1031E000B0939804A0939704BCCFD383C28340814B
:1031F0005181840F951FC817D90761F44E5F5F4F47
:1032000088819981480F591F518340838A819B810E
:10321000938382832115310509F0B0CFF0939A048E
:10322000E09399049ECFFD01DC01C0CF138212828E
:10323000D7CFB0E0A0E0EFE1F9E10C94EE148C01FF
:10324000009751F4CB010E94F4178C01C801CDB74F
:10325000DEB7E0E10C940A15FC01E60FF71F9C01B4
:1032600022503109E217F30708F49DC0D901CD912E
:10327000DC911197C617D70798F0C530D10530F308
:10328000CE0104978617970708F3C61BD70B229722
:10329000C193D1936D937C93CF010E949018D6CFA8
:1032A0005B01AC1ABD0A4C018C0E9D1EA0919904C5
:1032B000B0919A04512C412CF12CE12C109731F54E
:1032C00080919704909198048815990509F05CC045
:1032D0004616570608F058C08091080190910901E0
:1032E000009741F48DB79EB740910C0150910D01AC
:1032F000841B950BE817F90708F055C0F093980464
:10330000E0939704F90171836083A0CF8D919C9124
:10331000119712966C90129713967C901397A8159C
:10332000B90559F56C0142E0C40ED11CCA14DB0486
:1033300020F1AC014A195B09DA011296159780F069
:103340006282738251834083D9016D937C93E1142F
:10335000F10471F0D7011396FC93EE93129776CF98
:1033600022968C0F9D1FF90191838083F301EFCF8B
:10337000F0939A04E093990469CF4816590608F42B
:103380002C017D01D3019ACFCB010E94F4177C015F
:10339000009749F0AE01B8010E94E319C8010E94EC
:1033A0009018870153CF10E000E050CFFB01DC0103
:1033B00004C08D910190801921F441505040C8F70C
:1033C000881B990B0895FB01DC0102C001900D924E
:1033D00041505040D8F70895FB01DC018D910190D8
:1033E00080190110D9F3990B0895FB01DC010190BC
:1033F0000D920020E1F70895FB01DC01415050409F
:1034000048F001900D920020C9F701C01D92415073
:0A3410005040E0F70895F894FFCF54
:10341A005A015A01FFFFFFFF00009B0480000000D1
:10342A000000BA0B9D0B1E0D750B7D0BF00CFA0CF0
:10343A0000000000FB015B0188014802B901970105
:10344A00AB0100000000140B5B011E0D59010D0AAF
:10345A000052656164696E67205761762E747874CC
:10346A000031006572726F72206F70656E696E67E7
:10347A002066696C6500496E697469616C697A696C
:10348A006E672053442E2E2E004361726420696EAB
:10349A00697469616C697A65642E0043617264209B
:0C34AA006E6F7420666F756E642E21003A
:107E0000112484B714BE81FFF0D085E080938100F7
:107E100082E08093C00088E18093C10086E0809377
:107E2000C20080E18093C4008EE0C9D0259A86E02C
:107E300020E33CEF91E0309385002093840096BBD3
:107E4000B09BFECF1D9AA8958150A9F7CC24DD24C4
:107E500088248394B5E0AB2EA1E19A2EF3E0BF2EE7
:107E6000A2D0813461F49FD0082FAFD0023811F036
:107E7000013811F484E001C083E08DD089C08234E0
:107E800011F484E103C0853419F485E0A6D080C0E4
:107E9000853579F488D0E82EFF2485D0082F10E0AE
:107EA000102F00270E291F29000F111F8ED06801E7
:107EB0006FC0863521F484E090D080E0DECF843638
:107EC00009F040C070D06FD0082F6DD080E0C81688
:107ED00080E7D80618F4F601B7BEE895C0E0D1E017
:107EE00062D089930C17E1F7F0E0CF16F0E7DF06D8
:107EF00018F0F601B7BEE89568D007B600FCFDCFD4
:107F0000A601A0E0B1E02C9130E011968C91119780
:107F100090E0982F8827822B932B1296FA010C0160
:107F200087BEE89511244E5F5F4FF1E0A038BF0790
:107F300051F7F601A7BEE89507B600FCFDCF97BE46
:107F4000E89526C08437B1F42ED02DD0F82E2BD052
:107F50003CD0F601EF2C8F010F5F1F4F84911BD097
:107F6000EA94F801C1F70894C11CD11CFA94CF0C13
:107F7000D11C0EC0853739F428D08EE10CD085E9AC
:107F80000AD08FE07ACF813511F488E018D01DD067
:107F900080E101D065CF982F8091C00085FFFCCF94
:107FA0009093C60008958091C00087FFFCCF809118
:107FB000C00084FD01C0A8958091C6000895E0E648
:107FC000F0E098E1908380830895EDDF803219F02E
:107FD00088E0F5DFFFCF84E1DECF1F93182FE3DFCA
:107FE0001150E9F7F2DF1F91089580E0E8DFEE27F6
:047FF000FF270994CA
:027FFE00040479
:0400000300007E007B
:00000001FF
