:100000000C9435000C945D000C945D000C945D0024
:100010000C945D000C945D000C945D000C945D00EC
:100020000C945D000C945D000C945D000C945D00DC
:100030000C945D000C945D000C945D000C945D00CC
:100040000C94D1010C945D000C949F010C947901E7
:100050000C945D000C945D000C945D000C945D00AC
:100060000C945D000C945D00F20211241FBECFEFD2
:10007000D8E0DEBFCDBF11E0A0E0B1E0E2E9F6E0FC
:1000800002C005900D92AE31B107D9F721E0AEE183
:10009000B1E001C01D92A43CB207E1F710E0C5E356
:1000A000D0E004C02197FE010E944103C433D10770
:1000B000C9F70E941B020C9447030C940000AF92F6
:1000C000BF92CF92DF92EF92FF920F931F93CF9345
:1000D000DF936C017B018B01040F151FEB015E01A7
:1000E000AE18BF08C017D10759F06991D601ED913C
:1000F000FC910190F081E02DC6010995892B79F7DB
:10010000C501DF91CF911F910F91FF90EF90DF908C
:10011000CF90BF90AF900895FC01538D448D252F53
:1001200030E0842F90E0821B930B541710F0CF9691
:10013000089501970895FC01918D828D981761F0C3
:10014000A28DAE0FBF2FB11D5D968C91928D9F5FDA
:100150009F73928F90E008958FEF9FEF0895FC01B9
:10016000918D828D981731F0828DE80FF11D858D6C
:1001700090E008958FEF9FEF0895FC01918D228DFF
:10018000892F90E0805C9F4F821B91098F73992784
:10019000089587E291E00E94BD0021E0892B09F4D7
:1001A00020E0822F089580E090E0892B29F00E94C2
:1001B000C90081110C9400000895FC01A48DA80FC2
:1001C000B92FB11DA35ABF4F2C91848D90E0019699
:1001D0008F739927848FA689B7892C93A089B189B9
:1001E0008C91837080648C93938D848D981306C05A
:1001F0000288F389E02D80818F7D80830895EF92BE
:10020000FF920F931F93CF93DF93EC0181E0888FD0
:100210009B8D8C8D98131AC0E889F989808185FFA0
:1002200015C09FB7F894EE89FF896083E889F98942
:1002300080818370806480839FBF81E090E0DF9144
:10024000CF911F910F91FF90EF900895F62E0B8D97
:1002500010E00F5F1F4F0F731127E02E8C8D8E1152
:100260000CC00FB607FCFACFE889F989808185FFB9
:10027000F5CFCE010E94DD00F1CFEB8DEC0FFD2F0D
:10028000F11DE35AFF4FF0829FB7F8940B8FEA8974
:10029000FB8980818062CFCFCF93DF93EC01888D83
:1002A0008823B9F0AA89BB89E889F9898C9185FDF1
:1002B00003C0808186FD0DC00FB607FCF7CF8C917F
:1002C00085FFF2CF808185FFEDCFCE010E94DD005A
:1002D000E9CFDF91CF910895FC0101900020E9F76B
:1002E0003197AF01481B590BBC0187E291E00C9498
:1002F0005F001F920F920FB60F9211242F933F931E
:100300004F935F936F937F938F939F93AF93BF931D
:10031000EF93FF9387E291E00E94DD00FF91EF9160
:10032000BF91AF919F918F917F916F915F914F910D
:100330003F912F910F900FBE0F901F9018951F9215
:100340000F920FB60F9211242F938F939F93EF93D9
:10035000FF93E0913701F09138018081E0913D01F8
:10036000F0913E0182FD1BC09081809140018F5F22
:100370008F7320914101821741F0E0914001F0E03C
:10038000E95DFE4F958F80934001FF91EF919F9122
:100390008F912F910F900FBE0F901F901895808115
:1003A000F4CF1F920F920FB60F9211242F933F9309
:1003B0008F939F93AF93BF938091230190912401DA
:1003C000A0912501B09126013091220123E0230F55
:1003D0002D3758F50196A11DB11D20932201809360
:1003E000230190932401A0932501B09326018091CD
:1003F0001E0190911F01A0912001B0912101019651
:10040000A11DB11D80931E0190931F01A093200197
:10041000B0932101BF91AF919F918F913F912F9107
:100420000F900FBE0F901F90189526E8230F02968D
:10043000A11DB11DD2CFCF93DF93CDB7DEB7A1976A
:100440000FB6F894DEBF0FBECDBF789484B582603E
:1004500084BD84B5816084BD85B5826085BD85B568
:10046000816085BD80916E00816080936E001092E6
:100470008100809181008260809381008091810061
:1004800081608093810080918000816080938000F2
:100490008091B10084608093B1008091B000816050
:1004A0008093B00080917A00846080937A0080917C
:1004B0007A00826080937A0080917A0081608093D4
:1004C0007A0080917A00806880937A001092C1004F
:1004D000E0913701F091380182E08083E0913301AF
:1004E000F09134011082E0913501F09136018FECEA
:1004F000808310923F01E0913B01F0913C0186E046
:100500008083E0913901F0913A018081806180839C
:10051000E0913901F0913A01808188608083E09117
:100520003901F0913A01808180688083E09139013E
:10053000F0913A0180818F7D80838AE0882E912C12
:10054000A12CB12C90E4D92E20E0E22E20E0F22E56
:1005500082E191E00E946C018AE191E00E946C01CD
:100560008FB7F89420912301309124014091250107
:10057000509126018FBF19A28E010F5D1F4FCA0136
:10058000B901A50194010E941F03605DF801629307
:100590008F01211531054105510589F7309719F073
:1005A000CF010E946C018AE191E00E946C01D0921F
:1005B0007C0080917A00806480937A0080917A0038
:1005C00086FDFCCF8091780080917900E114F104E0
:1005D00009F4BECF0E94C900882309F4B9CF0E9454
:1005E0000000B6CFE7E2F1E01382128288EE93E0DA
:1005F000A0E0B0E084839583A683B78384E091E094
:100600009183808385EC90E09587848784EC90E0EB
:100610009787868780EC90E0918B808B81EC90E0CF
:10062000938B828B82EC90E0958B848B86EC90E0B0
:10063000978B868B118E128E138E148E0895A1E2E5
:100640001A2EAA1BBB1BFD010DC0AA1FBB1FEE1F4C
:10065000FF1FA217B307E407F50720F0A21BB30B97
:10066000E40BF50B661F771F881F991F1A9469F713
:1006700060957095809590959B01AC01BD01CF016F
:100680000895EE0FFF1F0590F491E02D0994F89462
:02069000FFCF9A
:1006920000000000FF005F008C004C01BD009B00C9
:0E06A200AF000A54696D653A20000D0A000091
:00000001FF
