:100000000C9436000C945E000C945E000C945E0020
:100010000C945E000C945E000C945E000C945E00E8
:100020000C945E000C945E000C945E000C945E00D8
:100030000C945E000C945E000C945E000C945E00C8
:100040000C942B020C945E000C949B020C94750291
:100050000C945E000C945E000C945E000C945E00A8
:100060000C945E000C945E00CD02D60411241FBED9
:10007000CFEFD8E0DEBFCDBF11E0A0E0B1E0E4E912
:10008000FFE002C005900D92A232B107D9F721E03E
:10009000A2E2B1E001C01D92A43DB207E1F710E079
:1000A000C5E3D0E004C02197FE010E94C505C4331A
:1000B000D107C9F70E9406030C94BD070C940000F9
:1000C0000895AF92BF92CF92DF92EF92FF920F937B
:1000D0001F93CF93DF936C017B018B01040F151FDE
:1000E000EB015E01AE18BF08C017D10759F0699146
:1000F000D601ED91FC910190F081E02DC6010995AA
:10010000892B79F7C501DF91CF911F910F91FF9056
:10011000EF90DF90CF90BF90AF900895FC01538D8A
:10012000448D252F30E0842F90E0821B930B5417D1
:1001300010F0CF96089501970895FC01918D828D5E
:10014000981761F0A28DAE0FBF2FB11D5D968C91F7
:10015000928D9F5F9F73928F90E008958FEF9FEF36
:100160000895FC01918D828D981731F0828DE80FF2
:10017000F11D858D90E008958FEF9FEF0895FC01AC
:10018000918D228D892F90E0805C9F4F821B910979
:100190008F73992708958DE291E00E94BF0021E0BE
:1001A000892B09F420E0822F089580E090E0892BCC
:1001B00029F00E94CB0081110C9400000895FC01ED
:1001C000A48DA80FB92FB11DA35ABF4F2C91848DB8
:1001D00090E001968F739927848FA689B7892C9315
:1001E000A089B1898C91837080648C93938D848D68
:1001F000981306C00288F389E02D80818F7D80836B
:100200000895EF92FF920F931F93CF93DF93EC012A
:1002100081E0888F9B8D8C8D98131AC0E889F989AD
:10022000808185FF15C09FB7F894EE89FF896083B0
:10023000E889F98980818370806480839FBF81E031
:1002400090E0DF91CF911F910F91FF90EF90089573
:10025000F62E0B8D10E00F5F1F4F0F731127E02E4E
:100260008C8D8E110CC00FB607FCFACFE889F98986
:10027000808185FFF5CFCE010E94DF00F1CFEB8DAD
:10028000EC0FFD2FF11DE35AFF4FF0829FB7F8945A
:100290000B8FEA89FB8980818062CFCFCF93DF9378
:1002A000EC01888D8823B9F0AA89BB89E889F9898E
:1002B0008C9185FD03C0808186FD0DC00FB607FCC3
:1002C000F7CF8C9185FFF2CF808185FFEDCFCE01F6
:1002D0000E94DF00E9CFDF91CF910895FC010190EA
:1002E0000020E9F73197AF01481B590BBC018DE2A3
:1002F00091E00C946100CF93DF93EC0188819981A8
:10030000009711F00E946706198218821D821C82D4
:100310001B821A82DF91CF910895FC018081918127
:10032000009711F00C94670608950F931F93CF93D5
:10033000DF93EC0188819981009759F02A813B81F4
:100340002617370730F081E0DF91CF911F910F9191
:1003500008958B016F5F7F4F0E94F006009759F060
:10036000998388831B830A832C813D81232B59F732
:10037000FC011082E8CF80E0E7CFEF92FF920F936D
:100380001F93CF93DF936115710541F480E0DF91F6
:10039000CF911F910F91FF90EF9008954115510556
:1003A000B1F07B01EC010C811D81040F151FB80118
:1003B0000E949501882351F3288139818C819D8188
:1003C000B701820F931F0E94B6071D830C8381E043
:1003D000DECFEF92FF920F931F93CF93DF93EC0149
:1003E0007B018A01BA010E94950181110BC0CE01E7
:1003F0000E947B01CE01DF91CF911F910F91FF9061
:10040000EF9008951D830C83B701888199810E9424
:10041000B607F0CFFB0101900020E9F73197AF015B
:10042000461B570B0C94E901CF93DF93EC01FB01C2
:100430008617970749F0608171816115710541F058
:10044000448155810E94E901CE01DF91CF91089549
:100450000E947B01F9CF1F920F920FB60F921124C9
:100460002F933F938F939F93AF93BF9380912901D5
:1004700090912A01A0912B01B0912C01309128017B
:1004800023E0230F2D3758F50196A11DB11D2093B0
:1004900028018093290190932A01A0932B01B09306
:1004A0002C018091240190912501A0912601B09109
:1004B00027010196A11DB11D809324019093250170
:1004C000A0932601B0932701BF91AF919F918F9187
:1004D0003F912F910F900FBE0F901F90189526E817
:1004E000230F0296A11DB11DD2CF1F920F920FB6FE
:1004F0000F9211242F933F934F935F936F937F93AA
:100500008F939F93AF93BF93EF93FF938DE291E00F
:100510000E94DF00FF91EF91BF91AF919F918F916A
:100520007F916F915F914F913F912F910F900FBEEF
:100530000F901F9018951F920F920FB60F921124D3
:100540002F938F939F93EF93FF93E0913D01F09151
:100550003E018081E0914301F091440182FD1BC086
:100560009081809146018F5F8F73209147018217A0
:1005700041F0E0914601F0E0E35DFE4F958F8093FE
:100580004601FF91EF919F918F912F910F900FBE98
:100590000F901F9018958081F4CFEDE2F1E0138267
:1005A000128288EE93E0A0E0B0E084839583A68376
:1005B000B7838AE091E09183808385EC90E0958712
:1005C000848784EC90E09787868780EC90E0918B1D
:1005D000808B81EC90E0938B828B82EC90E0958B0A
:1005E000848B86EC90E0978B868B118E128E138E07
:1005F000148EEAECF1E011821082138212821582CD
:10060000148261E271E0CF010C940A02CF93DF9370
:10061000CDB7DEB7AD970FB6F894DEBF0FBECDBF36
:10062000789484B5826084BD84B5816084BD85B5CD
:10063000826085BD85B5816085BD80916E008160D9
:1006400080936E001092810080918100826080937F
:100650008100809181008160809381008091800081
:100660008160809380008091B10084608093B100AC
:100670008091B00081608093B00080917A008460A6
:1006800080937A0080917A00826080937A008091D2
:100690007A00816080937A0080917A0080688093EC
:1006A0007A001092C100E0913D01F0913E0182E09C
:1006B0008083E0913901F0913A011082E0913B0191
:1006C000F0913C018FEC808310924501E091410153
:1006D000F091420186E08083E0913F01F09140017A
:1006E000808180618083E0913F01F09140018081B1
:1006F00088608083E0913F01F091400180818068B3
:100700008083E0913F01F091400180818F7D808363
:1007100044244A9423E0522E612C712C8E010F5FE9
:100720001F4F3AE0832E912CA12CB12C90E0292E62
:1007300090E0392E80E480937C0080917A00806480
:1007400080937A0080917A0086FDFCCF80917800BA
:10075000A0917900BA2FA82F2FEF30E00E94AA05B0
:10076000A30192010E940F05790130932301209388
:10077000220119A618A61BA61AA61DA61CA661E290
:1007800071E0CE0188960E940A02E114F10409F496
:1007900048C01BA21AA21DA21CA21FA21EA2C70112
:1007A00062E070E00E9496054AE0B8010E94DA0417
:1007B000F80101900020E9F73197AF01401B510B80
:1007C000B801CE0182960E94E9011A8219821C8228
:1007D0001B821E821D82BE016E5D7F4FC8010E947A
:1007E00014024CA55DA568A579A5C8010E94BD01AC
:1007F000811103C0C8010E947B01B801CE01889617
:100800000E941402C8010E948D01CE0182960E94AE
:100810008D01F7FE03C09FEFE91AF90AF594E794FA
:10082000B4CF8CA59DA5089701F11A8219821C826C
:100830001B821E821D8268E171E0C8010E940A02CB
:100840004CA55DA568A579A5C8010E94BD018111CF
:1008500003C0C8010E947B01B801CE0188960E94A6
:100860001402C8010E948D01DCCF8091CA019091D1
:10087000CB01009709F46DC068A579A561157105D4
:1008800009F465C02091CC013091CD0128303105AB
:1008900008F45DC00E94B6078CA59DA59093CF017A
:1008A0008093CE011DA61CA6CE0188960E948D01C4
:1008B000C0902201D09023010D2C000CEE08FF08FF
:1008C000F7FE5EC06DE28DE291E00E9401012227F9
:1008D0003327A9012C193D094E095F0919A2FE0110
:1008E000B1967F01CA01B901A50194010E94650575
:1008F000605DF70162937F012115310541055105C6
:1009000089F7E114F10419F0C7010E946E018AE130
:1009100091E00E946E014091CE015091CF01609113
:10092000CA017091CB018DE291E00E9461008FE1DC
:1009300091E00E946E012114310409F4FBCE0E9463
:10094000CB00882309F4F6CE0E940000EFCE0E946F
:10095000670688A599A59093CB018093CA018AA5C3
:100960009BA59093CD018093CC018CA59DA59093E0
:10097000CF018093CE0119A618A61BA61AA692CF66
:10098000A701960119A2CE0181967C01CA01B90185
:10099000A50194010E946505605DF70162937F01E6
:1009A000211531054105510589F7ABCF8AEC91E05E
:1009B0000C948D01BB274A3031F4992322F4BDE217
:1009C000909581959F4F0C94E604BB27FB0155271A
:1009D000AA27880F991FAA1FA41710F0A41B83959C
:1009E0005051B9F7A05DAA3308F0A95DA193009713
:1009F00079F7B111B1931192CB010C94FF04DC0192
:100A0000FC01672F71917723E1F7329704C07C9145
:100A10006D9370836291AE17BF07C8F30895052EDA
:100A200097FB1EF400940E94260557FD07D00E94F4
:100A3000650507FC03D04EF40C94260550954095AF
:100A4000309521953F4F4F4F5F4F0895909580957A
:100A5000709561957F4F8F4F9F4F08952F923F92D2
:100A60004F925F926F927F928F929F92AF92BF92BE
:100A7000CF92DF92EF92FF920F931F93CF93DF936A
:100A8000CDB7DEB7CA1BDB0B0FB6F894DEBF0FBEC7
:100A9000CDBF09942A88398848885F846E847D8414
:100AA0008C849B84AA84B984C884DF80EE80FD8016
:100AB0000C811B81AA81B981CE0FD11D0FB6F8948C
:100AC000DEBF0FBECDBFED010895A1E21A2EAA1B15
:100AD000BB1BFD010DC0AA1FBB1FEE1FFF1FA217EE
:100AE000B307E407F50720F0A21BB30BE40BF50BEB
:100AF000661F771F881F991F1A9469F76095709574
:100B0000809590959B01AC01BD01CF010895A29FF6
:100B1000B001B39FC001A39F700D811D1124911DD1
:100B2000B29F700D811D1124911D089597FB072E12
:100B300016F4009407D077FD09D00E94B10507FC98
:100B400005D03EF4909581959F4F089570956195DD
:100B50007F4F08950E948705B7FF0895821B930B6E
:100B60000895AA1BBB1B51E107C0AA1FBB1FA617F4
:100B7000B70710F0A61BB70B881F991F5A95A9F746
:100B800080959095BC01CD010895EE0FFF1F059053
:100B9000F491E02D09940F931F93CF93DF9382304C
:100BA000910510F482E090E0E091D201F091D30140
:100BB00030E020E0B0E0A0E0309799F42115310555
:100BC00009F44AC0281B390B24303105D8F58A8135
:100BD0009B816115710589F1FB0193838283FE017D
:100BE00011C0408151810281138148175907E0F0FB
:100BF0004817590799F4109761F012960C931297C1
:100C000013961C933296CF01DF91CF911F910F91D4
:100C100008950093D2011093D301F4CF211531052B
:100C200051F04217530738F0A901DB019A01BD01C9
:100C3000DF01F801C1CFEF01F9CF9093D301809389
:100C4000D201CDCFFE01E20FF31F81939193225089
:100C5000310939832883D7CF2091D0013091D10138
:100C6000232B41F420910201309103013093D101F3
:100C70002093D0012091000130910101211531050F
:100C800041F42DB73EB74091040150910501241B5A
:100C9000350BE091D001F091D101E217F307A0F4F8
:100CA0002E1B3F0B2817390778F0AC014E5F5F4FC2
:100CB0002417350748F04E0F5F1F5093D101409322
:100CC000D001819391939FCFF0E0E0E09CCFCF9350
:100CD000DF930097E9F0FC01329713821282A09112
:100CE000D201B091D301ED0130E020E01097A1F4E2
:100CF00020813181820F931F2091D0013091D10149
:100D00002817390709F061C0F093D101E093D001B1
:100D1000DF91CF910895EA01CE17DF07E8F54A8108
:100D20005B819E0141155105B1F7E901FB83EA831F
:100D300049915991C40FD51FEC17FD0761F48081CB
:100D400091810296840F951FE9019983888382819E
:100D500093819B838A83F0E0E0E012968D919C91D1
:100D600013970097B9F52D913C911197CD010296FB
:100D7000820F931F2091D0013091D101281739079C
:100D800039F6309751F51092D3011092D201B093F9
:100D9000D101A093D001BCCFD383C28340815181C4
:100DA000840F951FC817D90761F44E5F5F4F888184
:100DB0009981480F591F518340838A819B81938376
:100DC00082832115310509F0B0CFF093D301E09370
:100DD000D2019ECFFD01DC01C0CF13821282D7CF9A
:100DE000B0E0A0E0E6EFF6E00C9430058C0100974F
:100DF00051F4CB010E94CB058C01C801CDB7DEB701
:100E0000E0E10C944C05FC01E60FF71F9C01225019
:100E10003109E217F30708F49DC0D901CD91DC91A7
:100E20001197C617D70798F0C530D10530F3CE011A
:100E300004978617970708F3C61BD70B2297C19311
:100E4000D1936D937C93CF010E946706D6CF5B014F
:100E5000AC1ABD0A4C018C0E9D1EA091D201B0911E
:100E6000D301512C412CF12CE12C109731F58091BC
:100E7000D0019091D1018815990509F05CC0461602
:100E8000570608F058C08091000190910101009729
:100E900041F48DB79EB74091040150910501841B28
:100EA000950BE817F90708F055C0F093D101E093CE
:100EB000D001F90171836083A0CF8D919C9111972E
:100EC00012966C90129713967C901397A815B905FB
:100ED00059F56C0142E0C40ED11CCA14DB0420F1A8
:100EE000AC014A195B09DA011296159780F062820B
:100EF000738251834083D9016D937C93E114F10493
:100F000071F0D7011396FC93EE93129776CF229649
:100F10008C0F9D1FF90191838083F301EFCFF09334
:100F2000D301E093D20169CF4816590608F42C0189
:100F30007D01D3019ACFCB010E94CB057C010097A4
:100F400049F0AE01B8010E94AD07C8010E946706D2
:100F5000870153CF10E000E050CFFB01DC0102C05D
:100F600001900D9241505040D8F70895FB01DC01EB
:100F700001900D920020E1F7089510E0C5E3D0E064
:100F800004C0FE010E94C5052196C633D107C9F7EA
:040F9000F894FFCF03
:100F94000000D401800000000000010161008E0007
:100FA4004E01BF009D00B1003000203D3E20000DE9
:020FB4000A0031
:00000001FF
