:020000040000FA
:100000000C9465000C946B130C9457130C948D0096
:100010000C948D000C948D000C948D000C948D002C
:100020000C948D000C947F130C948D000C948D0017
:100030000C948D000C94C2130C948D000C948D00C4
:100040000C940D130C948D000C94DB120C94B512CF
:100050000C948D000C948D000C948D000C948D00EC
:100060000C948D000C948D007C3C3E5E2B3D3F2F0C
:100070005B5D3B2C2A225C000000000800020100AE
:100080000003040700000000000000000000000062
:10009000250028002B0000000000240027002A0073
:1000A000040404040404040402020202020203031E
:1000B0000303030301020408102040800102040826
:1000C0001020010204081020931411241FBECFEF4A
:1000D000D8E0DEBFCDBF11E0A0E0B1E0E2E4F5E39F
:1000E00002C005900D92A836B107D9F724E0A8E622
:1000F000B1E001C01D92A838B207E1F710E0C5E6F3
:10010000D0E004C02197FE010E943E19C436D107F9
:10011000C9F70E94EA140C949F1A0C94000090E016
:10012000FC01EC54FF4F249180569F4FFC018491B9
:10013000882399F090E0880F991FFC01EA56FF4F41
:10014000A591B491FC01E457FF4F859194918FB72D
:10015000F894EC91E22BEC938FBF0895CF93DF934B
:10016000FC018281938190936C0480936B04848161
:100170009581A681B78180936D0490936E04A093BE
:100180006F04B093700480859185A285B3858093B8
:10019000710490937204A0937304B0937404DF010C
:1001A0001C96CF014996C5E7D4E02D912993A81755
:1001B000B907D9F7818D928D90938304809382043F
:1001C00089E694E0DF91CF910895AF92BF92CF92EC
:1001D000DF92EF92FF920F931F93CF93DF936C0107
:1001E0007B018B01040F151FEB015E01AE18BF08E8
:1001F000C017D10759F06991D601ED91FC9101909A
:10020000F081E02DC6010995892B79F7C501DF91B1
:10021000CF911F910F91FF90EF90DF90CF90BF9003
:10022000AF900895FC01538D448D252F30E0842F2D
:1002300090E0821B930B541710F0CF96089501970E
:100240000895FC01918D828D981761F0A28DAE0FFB
:10025000BF2FB11D5D968C91928D9F5F9F73928F82
:1002600090E008958FEF9FEF0895FC01918D828DAE
:10027000981731F0828DE80FF11D858D90E008957B
:100280008FEF9FEF0895FC01918D228D892F90E0D3
:10029000805C9F4F821B91098F739927089581E895
:1002A00093E00E94430121E0892B09F420E0822F92
:1002B000089580E090E0892B29F00E944F01811180
:1002C0000C9400000895FC01A48DA80FB92FB11D56
:1002D000A35ABF4F2C91848D90E001968F7399277C
:1002E000848FA689B7892C93A089B1898C9183705A
:1002F00080648C93938D848D981306C00288F38953
:10030000E02D80818F7D80830895EF92FF920F937F
:100310001F93CF93DF93EC0181E0888F9B8D8C8DB1
:1003200098131AC0E889F989808185FF15C09FB7A5
:10033000F894EE89FF896083E889F9898081837068
:10034000806480839FBF81E090E0DF91CF911F9117
:100350000F91FF90EF900895F62E0B8D10E00F5F38
:100360001F4F0F731127E02E8C8D8E110CC00FB60E
:1003700007FCFACFE889F989808185FFF5CFCE01A6
:100380000E946301F1CFEB8DEC0FFD2FF11DE35ABD
:10039000FF4FF0829FB7F8940B8FEA89FB89808129
:1003A0008062CFCFCF93DF93EC01888D8823B9F0A3
:1003B000AA89BB89E889F9898C9185FD03C0808170
:1003C00086FD0DC00FB607FCF7CF8C9185FFF2CFED
:1003D000808185FFEDCFCE010E946301E9CFDF91DF
:1003E000CF91089590E0FC01E858FF4F2491FC0163
:1003F000EC54FF4F3491FC01E056FF4FE491EE23A3
:10040000C9F0222339F0233001F1A8F4213019F189
:10041000223029F1F0E0EE0FFF1FE457FF4FA591C6
:10042000B4918FB7F894EC91611126C030953E23BA
:100430003C938FBF08952730A9F02830C9F02430AD
:1004400049F7809180008F7D03C0809180008F7775
:1004500080938000DFCF84B58F7784BDDBCF84B5F8
:100460008F7DFBCF8091B0008F778093B000D2CF8B
:100470008091B0008F7DF9CF3E2BDACF2FB7F89463
:1004800060917701709178018091790190917A0162
:100490002FBF08958FB7F89480916C018FBF089596
:1004A00061E0FC0184810E94F20180916B01811165
:1004B00010926B0108958EBD00000DB407FEFDCFB4
:1004C0008EB508958FEF0C945B020F931F93CF931B
:1004D000DF93EC010E943E028B010E9462028F3F7B
:1004E00069F00E943E02601B710B6C177D07A8F338
:1004F00080E0DF91CF911F910F91089581E0F9CFB6
:100500008CBD9DBD0895CF93DF93EC0180916B016D
:10051000811109C081E080936B0180911E0490914C
:100520001F040E94800260E08C81DF91CF910C94C7
:10053000F2018F929F92AF92BF92FF920F931F93FF
:10054000CF93DF93EC01F62E49015A018E81882367
:1005500089F08F8198859C012F5F3F4F38872F83CB
:100560008230924018F40E946202F3CFCE010E94C2
:1005700050021E82CE010E9483028CE291E00E9412
:1005800065028F2D80640E945B0208E110E0D501B6
:10059000C401002E04C0B695A795979587950A9437
:1005A000D2F70E945B0208501109083F8FEF18072D
:1005B00071F785E9FF2021F028E087E8F2128FEF3C
:1005C0000E945B0210E00E9462028A8787FF04C0DB
:1005D0001F3F11F01F5FF7CFDF91CF911F910F9158
:1005E000FF90BF90AF909F908F900895AF92BF9271
:1005F000CF92DF92EF92FF920F931F93CF93DF93EF
:10060000EC016901C801820F931F8130924050F5BF
:100610008E81882379F088819981AA81BB81841792
:100620009507A607B70731F48F819885C816D906B4
:1006300008F042C0488359836A837B838B8583306B
:1006400039F089E0440F551F661F771F8A95D1F74F
:100650009A01AB0161E1CE010E949902882389F0E1
:1006600083E08D83CE010E94500280E0DF91CF9124
:100670001F910F91FF90EF90DF90CF90BF90AF90C0
:1006800008950E943E025B010E9462028A878F3FAA
:1006900069F40E943E026A197B096D327140A0F331
:1006A0008FE08D83CE010E945002DCCF8E3F89F413
:1006B00018861F8281E08E838F8198858C159D0519
:1006C00050F40E9462028F819885019698878F83EB
:1006D000F3CF8DE0E6CF6701E00EF11E0E946202CB
:1006E000F60181936F01EE15FF05C1F78F819885A3
:1006F000080F191F18870F838985882319F00115A2
:100700001240A0F08E81882389F08F8198859C010A
:100710002F5F3F4F38872F838230924018F40E941A
:100720006202F3CFCE010E9450021E8281E09ECF72
:10073000CF92DF92EF92FF920F93CF93DF93EC0172
:10074000690182E1411551056105710599F08B85BB
:10075000833039F089E0440F551F661F771F8A9553
:10076000D1F79A01AB0168E1CE010E94990288237A
:1007700019F084E08D832DC08EEF0E945B0276011C
:100780008EEFD81AF70181917F010E945B02EC1471
:10079000FD04C1F78FEF0E945B028FEF0E945B02A6
:1007A0000E9462028A878F71853071F4011116C030
:1007B000CE010E94500281E0DF91CF910F91FF9016
:1007C000EF90DF90CF90089581E18D83CE010E945C
:1007D0005002CE010E94500280E0EECF88E592E008
:1007E0000E946502811102C085E1C4CF20E030E0A3
:1007F000A9016DE0CE010E949902882311F084E1E5
:10080000B9CF0E9462028111FACFD2CF0F934091EB
:100810006E0150916F0160917001709171014115ED
:1008200051056105710599F0082F2FE731E080919E
:100830007F03909180030E949803882349F01092CF
:100840006E0110926F01109270011092710181E09F
:100850000F9108950F93CF93C82F80916D0181114F
:1008600005C0C1E08C2FCF910F91089540910001F8
:100870005091010160910201709103010C2F2FE74B
:1008800031E080917F03909180030E949803811151
:1008900002C0C0E0E7CFCC2321F381E00E94060430
:1008A0008823B9F310926D01DDCF8F929F92AF92A2
:1008B000BF92EF92FF920F931F93CF934B015C0176
:1008C000C42F8091000190910101A0910201B0918B
:1008D000030188159905AA05BB0551F181E00E9425
:1008E0002A0481110BC080E0CF911F910F91FF90DE
:1008F000EF90BF90AF909F908F9008958FE7E82E74
:1009000081E0F82E00E012E030E020E0B501A40123
:1009100080917F03909180030E94F602882319F34F
:100920008092000190920101A0920201B092030115
:1009300040916D014C2B40936D0181E0D5CF8F929A
:100940009F92AF92BF92CF92DF92EF92FF92CF939E
:1009500020E234E03093800320937F03882309F45E
:100960006DC040E060E070E0CB010E945504811151
:100970000BC080E0CF91FF90EF90DF90CF90BF90C1
:10098000AF909F908F90089580913D038F7789F766
:100990008091490390914A03A0914B03B0914C037D
:1009A00084369105A105B10520F3C0904503D09090
:1009B0004603E0904703F0904803C114D104E104DA
:1009C000F104B9F240E0C701B6010E945504882342
:1009D00081F280918A0190918B018115924049F6B4
:1009E000A0918F01AA2329F260918D0170918E014F
:1009F0006115710509F4BDCF20918C01222309F402
:100A0000B8CFA0933E042093300490E080E030E023
:100A1000E1E0F0E0C82FAF01082E02C0440F551FDF
:100A20000A94E2F72417350769F041E0480F019670
:100A30008930910579F7409339049BCFC12CD12C93
:100A40007601C0CF809339042091950130919601B1
:100A500050E040E02115310541F42091A30130918F
:100A6000A4014091A5015091A60120933104309337
:100A70003204409333045093340446015701860EE8
:100A8000971EA11CB11C80923F0490924004A0923A
:100A90004104B0924204E0919001F0919101F093F1
:100AA0004504E0934404B0E00E943319DC01CB011B
:100AB000880D991DAA1DBB1D809346049093470481
:100AC000A0934804B093490425E0EE0FFF1F2A9538
:100AD000E1F7E150FE4FEF2FFF27E6958E0F9F1FA6
:100AE000A11DB11D80933A0490933B04A0933C0454
:100AF000B0933D048090920190909301B12CA12C71
:100B00008114910441F480909F019090A001A090E5
:100B1000A101B090A201C81AD90AEA0AFB0AC80CBE
:100B2000D91CEA1CFB1C04C0F694E794D794C79424
:100B3000CA95D2F7C0923504D0923604E0923704B9
:100B4000F092380485EFC8168FE0D806E104F1046E
:100B500028F48CE08093430481E00CCF80E125EF02
:100B6000C2162FEFD206E104F104A0F38091AB018D
:100B70009091AC01A091AD01B091AE01809346047B
:100B800090934704A0934804B093490480E2E2CFD5
:100B9000CF93DF93EC016E857F858889998941E049
:100BA0000E945504882351F08A8920E2829FC00167
:100BB000112481589E4FDF91CF91089590E080E0FD
:100BC000FACF4F925F926F927F928F929F92AF92E5
:100BD000BF92CF92DF92EF92FF920F931F93CF932A
:100BE000DF93EC01423051056105710590F480E01E
:100BF000DF91CF911F910F91FF90EF90DF90CF90F9
:100C0000BF90AF909F908F907F906F905F904F902C
:100C1000089589859A85AB85BC850196A11DB11D76
:100C200084179507A607B70710F3CB88DC88ED88F3
:100C3000FE888F89803109F042C0BB27A72F962FED
:100C4000852F480159012A013B01C80ED91EEA1E11
:100C5000FB1E8091000190910101A0910201B091D1
:100C60000301C816D906EA06FB0699F58F8980317B
:100C7000C1F5B301A201552766277727440F551FF9
:100C800041585E4FFA019182808280916D018160AE
:100C900080936D018A89823080F08D819E81AF8141
:100CA000B8858C0D9D1DAE1DBF1D80936E01909368
:100CB0006F01A0937001B093710181E099CFDB01C6
:100CC000CA01E7E0B695A79597958795EA95D1F77C
:100CD000B8CF40E0C701B6010E9455048111C6CFCC
:100CE00086CFB301A2014F77552766277727440F98
:100CF000551F440F551F41585E4FFA018082918263
:100D0000A282B382C2CF8F929F92AF92BF92CF92B4
:100D1000DF92EF92FF920F931F93CF93DF93FC012B
:100D200081859285A385B4850196A11DB11D841787
:100D30009507A607B70770F480E0DF91CF911F9168
:100D40000F91FF90EF90DF90CF90BF90AF909F906A
:100D50008F90089583889488A588B6888789803184
:100D600089F5BB27A72F962F852FE9016A017B0103
:100D70008F01BC01CD01680D791D8A1D9B1D8090DE
:100D8000000190900101A0900201B090030186162D
:100D90009706A806B90601F5F8018789803111F593
:100DA000DD24EE24FF24F601EE0FFF1FE158FE4F75
:100DB00080819181B0E0A0E088839983AA83BB837E
:100DC00081E0BBCFDB01CA01C7E0B695A795979537
:100DD0008795CA95D1F7C9CF40E00E94550481118B
:100DE000DBCFAACFE894C7F8DD24EE24FF24F60178
:100DF000EE0FFF1FEE0FFF1FE158FE4F8081918124
:100E0000A281B381BF70D8CF4F925F926F927F92D1
:100E1000AF92BF92CF92DF92EF92FF920F931F9308
:100E2000CF93DF9300D000D0CDB7DEB78C014983DC
:100E30005A836B837C835901C12CD12C7601412CC0
:100E400082E0582E612C712C49815A816B817C8102
:100E50009E012F5F3F4FC8010E948306882339F10E
:100E6000F8018585A301920104C0220F331F441F9E
:100E7000551F8A95D2F7DA01C901C80ED91EEA1E9C
:100E8000FB1E49815A816B817C818789803111F1F8
:100E900088EF9FEFAFEFBFE0481759076A077B075E
:100EA00098F2F501C082D182E282F38281E00F9054
:100EB0000F900F900F90DF91CF911F910F91FF90A6
:100EC000EF90DF90CF90BF90AF907F906F905F904A
:100ED0004F90089588EF9FEFA0E0B0E0DDCFCF9373
:100EE000DF93FC012581222321F080E0DF91CF9167
:100EF0000895EC0180914304803159F582E08583A7
:100F0000178A108E118E128E8091440490914504A0
:100F1000B0E0A0E025E0880F991FAA1FBB1F2A950B
:100F2000D1F7838B948BA58BB68B8CE294E09C8F4E
:100F30008B8F81E08C831E821F82188619861A8609
:100F40001B861C861D861E861F86188A198A1A8A89
:100F5000CDCF803251F683E0858340914604509195
:100F600047046091480470914904478B508F618F0A
:100F7000728F9F012D5E3F4F8CE294E00E94040728
:100F80008111D3CFB2CF8F929F92AF92BF92CF9267
:100F9000DF92EF92FF920F931F93CF93DF93EC01B9
:100FA0008D8181110EC080E0DF91CF911F910F9153
:100FB000FF90EF90DF90CF90BF90AF909F908F9079
:100FC00008950B891C892D893E890417150726076A
:100FD000370748F34A015B01823031F48A869B86E9
:100FE000AC86BD8681E0E0CF81149104A104B104F8
:100FF00049F41E821F82188619861A861B861C8653
:101000001D86F0CF0A851B852C853D85EB8DFC8DDB
:10101000858590E00996B901A801415051096109FF
:101020007109082E04C076956795579547950A94DF
:10103000D2F775016401E1E0CE1AD108E108F108A8
:1010400004C0F694E794D794C7948A95D2F7C4164F
:10105000D506E606F70620F0012B022B032B11F52F
:101060008F89988DA98DBA8D8E839F83A887B98724
:101070008E010A5F1F4FC114D104E104F10409F489
:10108000ADCF4E815F816885798598018B8D9C8D70
:101090000E94830691E0C91AD108E108F108811184
:1010A000EACF81CFC41AD50AE60AF70AE1CF3F9208
:1010B0004F925F926F927F928F929F92AF92BF9268
:1010C000CF92DF92EF92FF920F931F93CF93DF9314
:1010D000CDB7DEB72C970FB6F894DEBF0FBECDBFED
:1010E0005C01DC015B968D909C905C9716964D9010
:1010F0005D906D907C9019974114510461047104C6
:1011000009F468C0BFEF4B1A5B0A6B0A7B0A312CEB
:10111000F40181859285A385B4859C01AD012F5F83
:101120003F4F4F4F5F4F29873A874B875C8773014B
:1011300062011D821E821F821886F40181859285BC
:10114000A385B4852D813E814F81588528173907A5
:101150004A075B0708F056C089859A85AB85BC8530
:101160008C159D05AE05BF0550F482E0C82ED12C2C
:10117000E12CF12C92E0492E512C612C712C9E0116
:101180002F5F3F4FB701A601C4010E948306882349
:10119000C9F189819A81AB81BC81892B8A2B8B2BE8
:1011A00009F1260137019FEF491A590A690A790A9C
:1011B0002D813E814F8158852F5F3F4F4F4F5F4FAD
:1011C0002D833E834F8358873FEFC31AD30AE30A28
:1011D000F30AB3CFF40140805180628073803324DE
:1011E000339496CFC414D504E604F70409F70FEF3F
:1011F0001FEF2FEF3FE0B701A601C4010E94E105F8
:10120000811119C080E02C960FB6F894DEBF0FBE96
:10121000CDBFDF91CF911F910F91FF90EF90DF90A5
:10122000CF90BF90AF909F908F907F906F905F9086
:101230004F903F900895D50116964D915D916D9117
:101240007C911997411551056105710539F0970198
:101250008601C4010E94E1058823A1F2D5011696FA
:10126000CD92DD92ED92FC921997332051F0D70187
:10127000C6010196A11DB11DF40180839183A28353
:10128000B383F5018789908DA18DB28D892B8A2B2F
:101290008B2B39F48481C78AD08EE18EF28E8068E0
:1012A0008483F50184818062848381E0ACCF1F93C5
:1012B000CF93DF93FC012581222371F1162FEC01DE
:1012C000848187FF1EC0CF010E94C805FC01892BC5
:1012D00019F18D81823040F48B899C89AD89BE895A
:1012E000848F958FA68FB78F8F89988D938F828FDC
:1012F0008F89988DA98DBA8DB58BA48B8C818F77B2
:101300008C83111103C08C818F7E8C83812FDF91A0
:10131000CF911F910C942A0480E0DF91CF911F910F
:101320000895FF920F931F93CF93DF93EC018D816C
:10133000813041F090E080E0DF91CF911F910F91DB
:10134000FF9008958C8181FFF5CF82FD1BC0009135
:101350007F0310918003C8010E9483020E946202F1
:10136000F82EC8010E9450028FEFF812E3CF8C8153
:1013700085FF1BC060E0CE010E9457098C818F7DE4
:101380008C83D8CF4B895C896D897E898A859B85C2
:10139000AC85BD8584179507A607B707C1F2CE01B6
:1013A0000E94C3078111D3CFC5CF40916E015091E8
:1013B0006F016091700170917101452B462B472B95
:1013C00021F080E00E940604B5CF80618C832A85DD
:1013D0003B85317080E092E0821B930BADCFCF93C1
:1013E000DF93EC0161E00E945709882311F01D8210
:1013F00081E0DF91CF9108952F923F924F925F92BB
:101400006F927F928F929F92AF92BF92CF92DF9214
:10141000EF92FF920F931F93CF93DF9300D000D0F2
:101420001F92CDB7DEB77C015B01342E5D83DC01FA
:1014300015968C911597813009F0CEC014962C909A
:1014400021FECAC022FCB4C0C32CDD8022947FE000
:1014500027222094B22DB1702B2ED7011A964D91D0
:101460005D916D917C911D97C114D10409F428C13F
:101470005B968D919C915C97FC0174807A948A01B3
:101480009B0169E036952795179507956A95D1F7E1
:1014900070228A011170711020C001151105E9F444
:1014A00016964D915D916D917C911997411551055D
:1014B0006105710509F099C057968D919D910D9028
:1014C000BC91A02D0097A105B10509F0B0C0C701DE
:1014D0000E945708882309F47FC080E092E0801BB7
:1014E000910B46018C159D0508F44C01D7015B96C4
:1014F0004D915C915C9716968D919D910D90BC914C
:10150000A02D0297A109B109FA01258504C0880F11
:10151000991FAA1FBB1F2A95D2F746855785608958
:101520007189840F951FA61FB71F9C01AD01270D60
:10153000311D411D511D29013A01811432E09306EC
:1015400009F07BC08091000190910101A0910201FE
:10155000B091030184159505A605B70559F48FEFE1
:101560009FEFDC018093000190930101A0930201A1
:10157000B0930301022D9501B301A20180917F0375
:10158000909180030E949803882331F19EEFB91A4D
:10159000C818D908F70182859385A485B585880D7B
:1015A000991DA11DB11D82879387A487B58755CF4B
:1015B000F701438954896589768982859385A48555
:1015C000B585481759076A077B0709F43DCFC7015E
:1015D0000E94C307811138CF81E090E0D7011396B4
:1015E0009C938E93129780E007C09E012F5F3F4F20
:1015F0000E948306811102C090E079C089819A819E
:10160000AB81BC81F701238D348DF901278948EF27
:101610005FEF60E070E0203121F048EF5FEF6FEFA7
:101620007FE084179507A607B70708F050CFF701AA
:1016300086839783A087B18750CF0115110599F54F
:10164000D7011A964D915D916D917C911D9753969E
:101650008D919D910D90BC91A02D481759076A0757
:101660007B0708F181E00E942A04882309F4B4CFA3
:1016700040920001509201016092020170920301B8
:1016800080916D01816080936D01C80181589E4FEA
:10169000D5019C01280D391DFC012E173F0759F07B
:1016A0004D914193FACF41E0C301B2010E9455042C
:1016B0008111EBCF91CF281B390BA20EB31E68CF3F
:1016C000F70183899489A589B68984179507A607A8
:1016D000B70738F48481438B548B658B768B806895
:1016E0008483F701848183FD1AC0832D9D810F902F
:1016F0000F900F900F900F90DF91CF911F910F914E
:10170000FF90EF90DF90CF90BF90AF909F908F9021
:101710007F906F905F904F903F902F90089561E081
:10172000C7010E945709882309F456CFDECFCF9313
:10173000DF931F92CDB7DEB7698341E050E0BE0171
:101740006F5F7F4F0E94FC090F90DF91CF9108954A
:10175000FC01DB0112968D919C91139793838283F8
:1017600080E291E09183808314968C911497848316
:1017700015968C911597858316964D915D916D9177
:101780007C91199746835783608771871A964D918C
:101790005D916D917C911D97428753876487758712
:1017A0001E964D915D916D917C915197468757871B
:1017B000608B718B52968C915297828B53964D9180
:1017C0005D916D917C915697438B548B658B768B95
:1017D00057964D915D916D917C915A97478B508FA3
:1017E000618F728F5B968D919C91948F838F0895FA
:1017F0000895FC01818D928D009719F061E00C94A1
:1018000057090895DC015996ED91FC913097B9F094
:1018100083899489A589B6894285538564857585B0
:10182000841B950BA60BB70B811520E89207A10529
:10183000B10538F08FEF9FE7A0E0B0E0089590E0A9
:1018400080E00895DC0159968D919C91009739F0C4
:10185000DC01ED91FC910480F581E02D099490E08C
:1018600080E00895CF93DF93EC01E98DFA8D3097F6
:1018700049F481E090E09B838A8390E080E0DF91EF
:10188000CF91089513821282898D9A8D0E94FC094E
:10189000E98DFA8D22813381232B59F7F0CFCF9335
:1018A000DF931F92CDB7DEB76983DC01ED91FC9128
:1018B0000280F381E02D41E050E0BE016F5F7F4F79
:1018C00009950F90DF91CF9108952F923F924F92FB
:1018D0005F926F927F928F929F92AF92BF92CF92C0
:1018E000DF92EF92FF920F931F93CF93DF9300D07D
:1018F0001F92CDB7DEB7FC018581811118C08FEF33
:101900009FEF0F900F900F90DF91CF911F910F914C
:10191000FF90EF90DF90CF90BF90AF909F908F900F
:101920007F906F905F904F903F902F9008958481AB
:1019300080FFE5CF438954896589768982859385BF
:10194000A485B585312C212C481759076A077B07D8
:1019500019F022242394312C6F012101CE0101962C
:101960003C01DF011696BB83AA834114510409F49C
:10197000C5C0F60142855385648575854A01F1E04D
:101980009F22D6015B968D919C915C978A019B0169
:10199000E9E03695279517950795EA95D1F71596BD
:1019A000EC91E230E9F5FC01628D738D848D958DAB
:1019B000600F711F821F931FA12C22E0B22EA81866
:1019C000B9084A145B0408F45201F601248126FD8B
:1019D00004C0A114F2E0BF0671F40091000110915F
:1019E0000101209102013091030106171707280712
:1019F000390709F05EC040E00E945504882309F4CD
:101A00007ECFC40181589E4FD3019C012A0D3B1DFE
:101A1000FC012E173F0709F46CC041914D93F9CF9B
:101A2000DC011496BC90BA94B0228114910479F42C
:101A3000B1100DC0452B462B472B69F5F601878960
:101A4000908DA18DB28D86839783A087B187D601B3
:101A50005B96ED91FC915C9716966D917D918D91C1
:101A60009C9119976250710981099109258504C0DB
:101A7000660F771F881F991F2A95D2F7068517854D
:101A800020893189600F711F821F931F6B0D711D9B
:101A9000811D911D91CFD60116964D915D916D914D
:101AA0007C9119972A813B810E9483068111CFCFB7
:101AB00026CF730185019401AB01BC0180917F03A6
:101AC000909180030E94F602882309F418CF6A0CD3
:101AD0007B1CF60182859385A485B5858A0D9B1DA7
:101AE000A11DB11D82879387A487B5874A185B081B
:101AF0003CCF281B390B620E731EEBCF2A94232890
:101B000009F0FDCE898190E0FCCEFC01818D928DA3
:101B1000009711F00C94650C8FEF9FEF08950F93D1
:101B20001F93CF93DF93EC01898D9A8D10E000E035
:101B3000009799F00E94650C8C010F3F100769F027
:101B4000898D9A8DFC014285538564857585415048
:101B50005109610971090E94C307C801DF91CF9142
:101B60001F910F91089580918204909183040097B2
:101B700061F00E94EF0980918204909183040E9499
:101B8000EF19109283041092820408958F929F920D
:101B9000AF92BF92CF92DF92EF92FF920F931F937B
:101BA000CF93DF9300D000D0CDB7DEB7FC018581A5
:101BB000813091F080E00F900F900F900F90DF91A7
:101BC000CF911F910F91FF90EF90DF90CF90BF903A
:101BD000AF909F908F900895848181FFEBCF838990
:101BE0009489A589B689892B8A2B8B2B09F45FC030
:101BF0007F0140E050E0BA01CF010E94C307882373
:101C0000C9F2F701C38CD48C8788908CA18CB28CDC
:101C100082E090E0A0E0B0E0F60180839183A283AF
:101C2000B3839E012F5F3F4FB501A401C6010E94FF
:101C30008306882309F4BECF00E010E09801B501C7
:101C4000A401C6010E94E105882309F4B3CF89806D
:101C50009A80AB80BC80F6018789803119F188EFCA
:101C60009FEFAFEFBFE088169906AA06BB06C8F241
:101C7000F701178A108E118E128E138A148A158A14
:101C8000168A84818068848361E0C7010E945709B5
:101C9000882309F48FCF40E050E0BA01C7010E94C9
:101CA000C30789CF88EF9FEFA0E0B0E0DCCF81E0F1
:101CB00082CFCF92DF92EF92FF921F93CF93DF9369
:101CC000EC0180E2689FF0011124E158FE4F9385FA
:101CD000917161F0842F827449F080E0DF91CF919F
:101CE0001F91FF90EF90DF90CF900895142F6A8B93
:101CF0008091000190910101A0910201B091030136
:101D00008E879F87A88BB98BC488D588F12CE12C4E
:101D10007601DD24CC24CF8AD88EE98EFA8E828D8E
:101D2000938DB0E0A0E0AC01BD014C295D296E2986
:101D30007F294F8B588F698F7A8F83858871B1F493
:101D4000848D958DA68DB78D8B8B9C8BAD8BBE8B2B
:101D500081E08D831F701C831E821F821886198666
:101D60001A861B861C861D8681E0B8CF803109F05B
:101D7000B4CF9E012D5E3F4F8B8D9C8D0E9404073A
:101D8000882309F4AACF84E0E4CF3F924F925F9278
:101D90006F927F928F929F92AF92BF92CF92DF927B
:101DA000EF92FF920F931F93CF93DF93CDB7DEB7E0
:101DB0002B970FB6F894DEBF0FBECDBF7C01DC01C0
:101DC00015968C91811115C0FE013196CE010C96AD
:101DD0006F0130E23193E817F907E1F7DA0130E0FB
:101DE00087E09D91B92E992329F19E3239F48A30EA
:101DF00011F480E0DAC038E08AE0F3CFE8E6F0E002
:101E00004491442321F031969413FACFF2CF8317F3
:101E100080F34FED490F4E3560F74FE9490F4A31D6
:101E200018F440EEB42EB90EF601E30FF11DB082A6
:101E30003F5FD7CF89818032E1F2322E8B01FB01E7
:101E4000838D948DD7015C969C938E935B971682BD
:101E50001782108611861286138614861586F8015D
:101E600082859385A485B58543895489658976895A
:101E700084179507A607B70708F04DC025E0B6956B
:101E8000A795979587952A95D1F7F82FFF70AF2ED4
:101E9000D80115968C91823008F4ABCFC8010E940E
:101EA000650C97FDA6CFF80182859385A485B5853D
:101EB0004F96A11DB11D82879387A487B587F0E255
:101EC000AF9EB001112461587E4F6115710509F470
:101ED00090CFDB018C91882341F0853E09F058C0FA
:101EE000BB2029F0BB24B394BACFB1100EC0F701C8
:101EF000A28A8091000190910101A0910201B0910C
:101F0000030186879787A08BB18BDB018C918111B0
:101F1000E9CFBB24B394832D8271823109F069CF5C
:101F2000BB2009F45AC0C7010E94C805009709F4F4
:101F300060CF20E2FC0111922A95E9F72BE0F6012F
:101F4000DC0101900D922A95E1F721E238E2DC01F3
:101F500051963C932E93509740E058E01F965C9327
:101F60004E931E9753963C932E93529759963C93BB
:101F70002E93589757965C934E93569781E00E9404
:101F80002A04882309F435CF432DF70162890AC05A
:101F90004BE050E0C6010E94781A892B09F05FCF10
:101FA000432D6A2DC7010E94590E2B960FB6F89447
:101FB000DEBF0FBECDBFDF91CF911F910F91FF907C
:101FC000EF90DF90CF90BF90AF909F908F907F90D9
:101FD0006F905F904F903F900895F8018581823017
:101FE00009F407CFC8010E945708882309F401CFDC
:101FF000D8015B96ED91FC915C9716968D909D9023
:10200000AD90BC901997B2E08B1A9108A108B10865
:10201000858504C0880C991CAA1CBB1C8A95D2F724
:1020200086859785A089B189880E991EAA1EBB1E38
:10203000848124013501480E511C611C711C8414DB
:102040009504A604B70409F1E1E04E1A51086108AD
:10205000710881E00E942A04882309F4CACEEFE7C0
:10206000F1E011928FE793E08E179F07D1F740922E
:10207000000150920101609202017092030180916F
:102080006D01816080936D01DACFD8015B96ED918F
:10209000FC91258580E092E0A0E0B0E004C0880FCC
:1020A000991FAA1FBB1F2A95D2F7F80143895489AB
:1020B00065897689840F951FA61FB71F838B948B24
:1020C000A58BB68BD70152961C928FE791E031CF4A
:1020D0007F928F929F92AF92BF92CF92DF92EF92B8
:1020E000FF920F931F93CF93DF93CDB7DEB7C75403
:1020F000D1090FB6F894DEBF0FBECDBF5C0119A2A7
:1021000018A280E291E09F8F8E8F1BA21C821B82FF
:102110009A8389831E82912C812C7E018EE1E80EA8
:10212000F11C0AE414E0C401F401E65CFE4F2081D6
:102130002F3209F40196DC01A65CBE4FFE01FB962E
:1021400030E020E06F014D914F3249F0442339F0E7
:1021500001962F5F3F4F41932C303105A1F72C0D95
:102160003D1DF9011082FC01E65CFE4F20812F32FB
:1021700009F401964C01FC01E65CFE4F708041E0E1
:10218000711040E030E020E0B601C801F50109958A
:1021900081111EC0F4E00A341F07B1F480E0C95B6E
:1021A000DF4F0FB6F894DEBF0FBECDBFDF91CF91EA
:1021B0001F910F91FF90EF90DF90CF90BF90AF9065
:1021C0009F908F907F900895C8010E94EF09E6CFFD
:1021D000772089F021E0A601B801C7010E94C50E51
:1021E000D82E84E00A34180779F0C8010E94EF095C
:1021F000D1100FC0D3CFE4E00A341E0719F0C80194
:102200000E94EF0981E0CBCFDD2041F28E010F5F0C
:102210001F4F902F812F8701E92EF82E84CF1F9317
:10222000CF93DF93CDB7DEB76D970FB6F894DEBFCF
:102230000FBECDBFAB011C821B8220E231E03A838E
:1022400029831E8221E0BC01CE0101960E94C50EA9
:1022500011E081110CC010E0812F6D960FB6F8943B
:10226000DEBF0FBECDBFDF91CF911F910895CE018C
:1022700001960E94EF09F0CFCF93DF93CDB7DEB781
:102280006D970FB6F894DEBF0FBECDBF442399F112
:10229000AB01BC011C821B8280E291E09A8389839E
:1022A0001E8222E0CE0101960E94C50E81110EC051
:1022B00090E081E0911101C080E06D960FB6F89436
:1022C000DEBF0FBECDBFDF91CF910895CE01019645
:1022D0000E94C60D882361F3CE0101960E94C805B5
:1022E000009731F325EEFC0120831E8281E00E94DD
:1022F0002A04982FDECF81E0E0CFEF92FF920F9378
:102300001F93CF93DF93EC017B018A011B821A821A
:1023100088EE93E0A0E0B0E08C839D83AE83BF8322
:102320008CE291E0998388838DE190E00E945319BB
:102330009A8F898F009779F02DE1F701DC010190E8
:102340000D922A95E1F74CE050E0B801CE010C96D1
:102350000E94901A188EDF91CF911F910F91FF90DC
:10236000EF9008952F923F924F925F926F927F92DB
:102370008F929F92AF92BF92CF92DF92EF92FF9295
:102380000F931F93CF93DF93CDB7DEB7C756D10915
:102390000FB6F894DEBF0FBECDBF5C013B01A69621
:1023A0004FAFA69719A218A280E291E09F8F8E8F5F
:1023B0001BA21C821B829A8389831E824E018EE19E
:1023C000880E911CC4010E946F0763018E010F5F8C
:1023D0001F4F240118016FE270E0C6010E94851AA8
:1023E000009709F459C0F60120812F3271F4FFEFF4
:1023F000CF1ADF0A902F812F8201492E582E942D5B
:10240000852D2801092F182FE6CF8C198D3008F063
:102410008CE0E82EF12CA701B601CE01885A9F4F1F
:102420000E94901AE8E5F0E0EC0FFD1FEE0DFF1D95
:102430001082C8010E94EF0921E0AE01485A5F4FA7
:10244000B201C8010E94C50E811120C01EAE1DAE92
:1024500080E291E09CAF8BAF21961FAE2197A896AA
:10246000EEADFFADA8976E0E7F1EF3018081811146
:1024700020C0BE01655C7F4FC1010E94A80B44E4EF
:1024800051E0B101C5010E947D1131C0CE0CDF1CAD
:10249000C2010E94EF09B3CFC60186199709A89619
:1024A0009FAF8EAFA897B201CE01CB960E94A80B2A
:1024B000D6CF19A218A280E291E09F8F8E8F1BA227
:1024C00021968FAD219781112DC0F50113821282C3
:1024D00088EE93E0A0E0B0E084839583A683B78381
:1024E0008CE291E091838083128E118E1486C50157
:1024F000C959DF4F0FB6F894DEBF0FBECDBFDF91D5
:10250000CF911F910F91FF90EF90DF90CF90BF90F0
:10251000AF909F908F907F906F905F904F903F9083
:102520002F900895A6962FADA697A301BE01655CD6
:102530007F4FC4010E94C50E882339F2CE01CB968D
:102540000E94EF09A6968FADA6978670863039F463
:1025500049A95AA96BA97CA9C4010E94C307B40167
:10256000C1010E94A80BA3018CCF1F920F920FB63E
:102570000F9211242F933F934F935F936F937F9309
:102580008F939F93AF93BF93EF93FF9381E893E073
:102590000E946301FF91EF91BF91AF919F918F9145
:1025A0007F916F915F914F913F912F910F900FBE4F
:1025B0000F901F9018951F920F920FB60F92112433
:1025C0002F938F939F93EF93FF93E0919103F0915B
:1025D00092038081E0919703F091980382FD1BC0E4
:1025E000908180919A038F5F8F7320919B03821754
:1025F00041F0E0919A03F0E0EF57FC4F958F809304
:102600009A03FF91EF919F918F912F910F900FBEA1
:102610000F901F9018958081F4CF1F920F920FB6E4
:102620000F9211242F933F938F939F93AF93BF9358
:102630008091770190917801A0917901B0917A0110
:102640003091760123E0230F2D3758F50196A11D17
:10265000B11D209376018093770190937801A09328
:102660007901B0937A018091720190917301A091E8
:102670007401B09175010196A11DB11D8093720185
:1026800090937301A0937401B0937501BF91AF91C2
:102690009F918F913F912F910F900FBE0F901F90A0
:1026A000189526E8230F0296A11DB11DD2CF1F92C7
:1026B0000F920FB60F9211248F939F9380917D01FB
:1026C00091E0892780937D019F918F910F900FBE9C
:1026D0000F901F9018951F920F920FB60F92112412
:1026E0008F939F9380917E0191E0892780937E0153
:1026F0009F918F910F900FBE0F901F9018951F9272
:102700000F920FB60F9211242F933F934F935F9325
:102710006F937F938F939F93AF93BF93EF93FF93A9
:1027200080917A00806480937A0080917A0086FD9F
:10273000FCCF909178008091790080917A0080613F
:1027400080937A0090936A0160916A0189E694E02F
:102750000E944F0C8BB190E289278BB985E0809362
:10276000B200FF91EF91BF91AF919F918F917F91B7
:102770006F915F914F913F912F910F900FBE0F90EE
:102780001F9018951F920F920FB60F921124CF929F
:10279000DF92EF92FF922F933F934F935F936F934C
:1027A0007F938F939F93AF93BF93CF93DF93EF93D9
:1027B000FF9380917C0190E090938500809384004A
:1027C000809169018F5F80936901809169018130F7
:1027D00009F06CC089E694E00E94020C892B09F490
:1027E00058C01092890089E694E00E94850D80937C
:1027F0006801C0917C0160916801D0917C0170E01A
:1028000090E080E00E943A1820E030E04FE753E487
:102810000E9497176B017C016FEF70E06D1B7109CF
:10282000072E000C880B990B0E943A189B01AC01F3
:10283000C701B6010E94C6186B017C016C2F70E0C5
:1028400090E080E00E943A189B01AC01C701B601FC
:102850000E942B170E940918609388008BB190E2A8
:1028600089278BB9FF91EF91DF91CF91BF91AF9104
:102870009F918F917F916F915F914F913F912F9198
:10288000FF90EF90DF90CF900F900FBE0F901F90B2
:1028900018950E94B30D10926F0084B192E08927C1
:1028A00084B91BB81AB810926901D8CF1092890068
:1028B000C0917C0160916801D0917C0170E090E052
:1028C00080E00E943A1820E030E04FE753E40E9495
:1028D00097176B017C016FEF70E06D1B7109072E7C
:1028E000000C880B990B0E943A189B01AC01C701A0
:1028F000B6010E94C6186B017C016C2F70E090E05D
:1029000080E00E943A189B01AC01C701B6010E9409
:102910002B170E9409186093880080916901883004
:1029200009F09CCFC0CFE1E8F3E01382128288EE79
:1029300093E0A0E0B0E084839583A683B7832EE084
:1029400031E03183208325EC30E03587248724EC87
:1029500030E03787268720EC30E0318B208B21EC6C
:1029600030E0338B228B22EC30E0358B248B26EC4D
:1029700030E0378B268B118E128E138E148EEEE183
:10298000F4E020E520831182E0E2F4E01582168273
:102990001186138642E050E060E070E0448755877E
:1029A0006687778713A215A614A620E231E033A725
:1029B00022A717A6E9E6F4E01382128284839583A6
:1029C000A683B7838CE291E091838083128E118E6F
:1029D00014860895CF93DF93CDB7DEB76B970FB60C
:1029E000F894DEBF0FBECDBF789484B5826084BDFD
:1029F00084B5816084BD85B5826085BD85B5816003
:102A000085BD80916E00816080936E001092810080
:102A1000809181008260809381008091810081603B
:102A200080938100809180008160809380008091FC
:102A3000B10084608093B1008091B0008160809388
:102A4000B00080917A00846080937A0080917A004F
:102A5000826080937A0080917A00816080937A000E
:102A600080917A00806880937A001092C100E09192
:102A70009103F091920382E08083E0918D03F091C5
:102A80008E031082E0918F03F09190038FEC80838E
:102A900010929903E0919503F091960386E080836C
:102AA000E0919303F0919403808180618083E091B1
:102AB0009303F0919403808188608083E091930375
:102AC000F0919403808180688083E0919303F0917A
:102AD000940380818F7D808343E150E066E471E060
:102AE00081E893E00E94E50042E050E06AE571E091
:102AF00081E893E00E94E50080914F04882321F053
:102B00008AE494E00E94EF0910922B0410922904A9
:102B100010922604109225048AE0809324040E94D7
:102B20003E028B01809124040E948F0061E080911D
:102B300024040E94F201FFB6F89480917B01811178
:102B400024C0EAEAF0E08491EEEBF0E09491E82F03
:102B5000F0E0EE0FFF1FEA56FF4FA591B491EC9104
:102B6000E92321F461E08AE00E94F2018AE00E94F8
:102B70008F008CB580618CBD8CB580648CBD8DE080
:102B80000E948F008BE00E948F0080917B018F5FFD
:102B900080937B01FFBE82E580931E0410921F0488
:102BA00080911E0490911F040E948002AAE0FA2ED8
:102BB0008FEF0E945B02FA94F110FACF80E294E06A
:102BC0000E94830220E030E0A90160E080E294E00E
:102BD0000E949902F82E80932A0481E0F81609F4E5
:102BE000A5C00E943E02601B710B613D774050F30F
:102BF00081E08093250480E294E00E94500240E14D
:102C0000D42E54E4C52E63E8B62E02E075E0A72E5C
:102C100030E0E32E30E0F32E10E281E8982E9AE0C7
:102C2000892E21EE722E80917E01882309F43BC00B
:102C3000F894D0927E00C0927C00B0927A00789492
:102C40000093B100A092B2008091700081608093E7
:102C500070001AB91BB98FE091E10E9468108823B7
:102C600021F08CE391E10E94681047E16AE371E092
:102C7000CE0101960E94B211CE0101960E94AE00D3
:102C8000789480917E018111FCCFF89410927E009F
:102C900010927A00F894109270001BB81AB87894C9
:102CA0000E94B30D789480917D01882399F1F89466
:102CB00041E06DE571E0CE0101960E94B211CE01B6
:102CC00001960E94AE00219A90928000809281002D
:102CD0001092820070927C0181E080936F001092CC
:102CE00089001AB91BB978941092850080917C01F3
:102CF00080938400789480917D018111FCCFF894B9
:102D00000E94B30D10926F0084B1802784B91BB864
:102D10001AB87894E114F10409F485CF0E944F01A8
:102D2000882309F479CF0E94000072CF2AEA31E0AB
:102D300040E050E068E080E294E00E94990282FF67
:102D40002AC0F0922B0480912B04C12CD12C760147
:102D5000823029F4C12CD12CE12CE0E4FE2E20E0BD
:102D600030E0A90167E380E294E00E949902A701A4
:102D7000960169E280E294E00E94990280932A041D
:102D80008823D1F00E943E02601B710B613D7740A9
:102D900030F388E02ECFF4E0FF2E0E946202809391
:102DA0002A04FA94F110F9CF8A3A11F082E021CF87
:102DB00082E080932B04C7CF80912B048230D1F422
:102DC00020E030E0A9016AE380E294E00E949902E9
:102DD000882311F086E00DCF0E946202807C803C47
:102DE00019F483E080932B040E9462020E94620225
:102DF0000E94620280E294E00E94500280E580938B
:102E00001E0410921F0481E00E949F048823D9F0C1
:102E10008AE494E00E946F07882309F4F0CEF894C6
:102E200080916900836080936900E89A789480E2D9
:102E30008AB91BB8F894809169008C60809369000E
:102E4000E99A7894DCCE80E00E949F04882309F4FC
:102E5000D6CEDECF5058BB27AA270E9442170C942B
:102E60008C180E947E1838F00E94851820F039F4E2
:102E70009F3F19F426F40C947B180EF4E095E7FBC1
:102E80000C947518E92F0E949D1858F3BA17620721
:102E900073078407950720F079F4A6F50C94BF1802
:102EA0000EF4E0950B2EBA2FA02D0B01B901900165
:102EB0000C01CA01A0011124FF27591B99F0593FA9
:102EC00050F4503E68F11A16F040A22F232F342FF1
:102ED0004427585FF3CF469537952795A795F0403F
:102EE0005395C9F77EF41F16BA0B620B730B840B54
:102EF000BAF09150A1F0FF0FBB1F661F771F881F0C
:102F0000C2F70EC0BA0F621F731F841F48F4879563
:102F100077956795B795F7959E3F08F0B0CF939555
:102F2000880F08F09927EE0F9795879508950E94CE
:102F3000AB170C948C180E94851858F00E947E18CC
:102F400040F029F45F3F29F00C94751851110C944E
:102F5000C0180C947B180E949D1868F39923B1F354
:102F6000552391F3951B550BBB27AA2762177307AF
:102F7000840738F09F5F5F4F220F331F441FAA1F43
:102F8000A9F335D00E2E3AF0E0E832D091505040FF
:102F9000E695001CCAF72BD0FE2F29D0660F771FAD
:102FA000881FBB1F261737074807AB07B0E809F093
:102FB000BB0B802DBF01FF2793585F4F3AF09E3F18
:102FC000510578F00C9475180C94C0185F3FE4F329
:102FD000983ED4F3869577956795B795F7959F5F5B
:102FE000C9F7880F911D9695879597F90895E1E0A7
:102FF000660F771F881FBB1F621773078407BA0706
:1030000020F0621B730B840BBA0BEE1F88F7E09560
:1030100008950E94A51888F09F5798F0B92F992716
:10302000B751B0F0E1F0660F771F881F991F1AF0B3
:10303000BA95C9F714C0B13091F00E94BF18B1E041
:1030400008950C94BF18672F782F8827B85F39F040
:10305000B93FCCF3869577956795B395D9F73EF44C
:1030600090958095709561957F4F8F4F9F4F0895F4
:10307000E89409C097FB3EF4909580957095619512
:103080007F4F8F4F9F4F9923A9F0F92F96E9BB27C8
:103090009395F695879577956795B795F111F8CF44
:1030A000FAF4BB0F11F460FF1BC06F5F7F4F8F4FAF
:1030B0009F4F16C0882311F096E911C0772321F0A5
:1030C0009EE8872F762F05C0662371F096E8862F3D
:1030D00070E060E02AF09A95660F771F881FDAF794
:1030E000880F9695879597F9089597F99F6780E8D7
:1030F00070E060E008959FEF80EC089500240A944A
:103100001616170618060906089500240A941216C2
:103110001306140605060895092E0394000C11F4F5
:10312000882352F0BB0F40F4BF2B11F460FF04C0A2
:103130006F5F7F4F8F4F9F4F089557FD9058440FFB
:10314000551F59F05F3F71F04795880F97FB991F06
:1031500061F09F3F79F087950895121613061406C3
:10316000551FF2CF4695F1DF08C016161706180650
:10317000991FF1CF86957105610508940895E8942B
:10318000BB2766277727CB0197F908950E94D918A6
:103190000C948C180E947E1838F00E94851820F03C
:1031A000952311F00C9475180C947B1811240C9431
:1031B000C0180E949D1870F3959FC1F3950F50E0C1
:1031C000551F629FF001729FBB27F00DB11D639FD9
:1031D000AA27F00DB11DAA1F649F6627B00DA11D7F
:1031E000661F829F2227B00DA11D621F739FB00D25
:1031F000A11D621F839FA00D611D221F749F332795
:10320000A00D611D231F849F600D211D822F762F2D
:103210006A2F11249F5750409AF0F1F088234AF00A
:10322000EE0FFF1FBB1F661F771F881F9150504076
:10323000A9F79E3F510580F00C9475180C94C018A6
:103240005F3FE4F3983ED4F3869577956795B795FD
:10325000F795E7959F5FC1F7FE2B880F911D969517
:10326000879597F908950E944419A59F900DB49FE2
:10327000900DA49F800D911D11240895EE0FFF1F46
:103280000590F491E02D0994A29FB001B39FC00175
:10329000A39F700D811D1124911DB29F700D811D82
:1032A0001124911D08950F931F93CF93DF938230C4
:1032B000910510F482E090E0E0918604F09187049B
:1032C00030E020E0B0E0A0E0309799F4211531051E
:1032D00009F44AC0281B390B24303105D8F58A81FE
:1032E0009B816115710589F1FB0193838283FE0146
:1032F00011C0408151810281138148175907E0F0C4
:103300004817590799F4109761F012960C93129789
:1033100013961C933296CF01DF91CF911F910F919D
:1033200008950093860410938704F4CF2115310586
:1033300051F04217530738F0A901DB019A01BD0192
:10334000DF01F801C1CFEF01F9CF9093870480939B
:103350008604CDCFFE01E20FF31F8193919322509B
:10336000310939832883D7CF209184043091850493
:10337000232B41F4209106013091070130938504FD
:103380002093840420910401309105012115310519
:1033900041F42DB73EB74091080150910901241B1B
:1033A000350BE0918404F0918504E217F307A0F453
:1033B0002E1B3F0B2817390778F0AC014E5F5F4F8B
:1033C0002417350748F04E0F5F1F50938504409334
:1033D0008404819391939FCFF0E0E0E09CCFCF9362
:1033E000DF930097E9F0FC01329713821282A091DB
:1033F0008604B0918704ED0130E020E01097A1F43D
:1034000020813181820F931F2091840430918504A3
:103410002817390709F061C0F0938504E09384040C
:10342000DF91CF910895EA01CE17DF07E8F54A81D1
:103430005B819E0141155105B1F7E901FB83EA83E8
:1034400049915991C40FD51FEC17FD0761F4808194
:1034500091810296840F951FE90199838883828167
:1034600093819B838A83F0E0E0E012968D919C919A
:1034700013970097B9F52D913C911197CD010296C4
:10348000820F931F209184043091850428173907F7
:1034900039F6309751F51092870410928604B09354
:1034A0008504A0938404BCCFD383C283408151811F
:1034B000840F951FC817D90761F44E5F5F4F88814D
:1034C0009981480F591F518340838A819B8193833F
:1034D00082832115310509F0B0CFF0938704E09382
:1034E00086049ECFFD01DC01C0CF13821282D7CFAC
:1034F000FB01DC0104C08D910190801921F4415041
:103500005040C8F7881B990B0895FC0181918617DC
:1035100021F08823D9F7992708953197CF0108958D
:10352000FB01DC014150504048F001900D92002019
:10353000C9F701C01D9241505040E0F70895F8943A
:10354000FFCFFFFFFFFF00008804800000000000A5
:103550008501E5001201D20143012101350100007E
:103560000000970BE5009109F80B000000004F0CDC
:10357000320C220CF90B020C850D8F0D74657374DF
:10358000332E747874002F005468652070726F6752
:1035900072616D2073746172746564000D0A005469
:0A35A000455354332E747874000074
:107E0000112484B714BE81FFF0D085E080938100F7
:107E100082E08093C00088E18093C10086E0809377
:107E2000C20080E18093C4008EE0C9D0259A86E02C
:107E300020E33CEF91E0309385002093840096BBD3
:107E4000B09BFECF1D9AA8958150A9F7CC24DD24C4
:107E500088248394B5E0AB2EA1E19A2EF3E0BF2EE7
:107E6000A2D0813461F49FD0082FAFD0023811F036
:107E7000013811F484E001C083E08DD089C08234E0
:107E800011F484E103C0853419F485E0A6D080C0E4
:107E9000853579F488D0E82EFF2485D0082F10E0AE
:107EA000102F00270E291F29000F111F8ED06801E7
:107EB0006FC0863521F484E090D080E0DECF843638
:107EC00009F040C070D06FD0082F6DD080E0C81688
:107ED00080E7D80618F4F601B7BEE895C0E0D1E017
:107EE00062D089930C17E1F7F0E0CF16F0E7DF06D8
:107EF00018F0F601B7BEE89568D007B600FCFDCFD4
:107F0000A601A0E0B1E02C9130E011968C91119780
:107F100090E0982F8827822B932B1296FA010C0160
:107F200087BEE89511244E5F5F4FF1E0A038BF0790
:107F300051F7F601A7BEE89507B600FCFDCF97BE46
:107F4000E89526C08437B1F42ED02DD0F82E2BD052
:107F50003CD0F601EF2C8F010F5F1F4F84911BD097
:107F6000EA94F801C1F70894C11CD11CFA94CF0C13
:107F7000D11C0EC0853739F428D08EE10CD085E9AC
:107F80000AD08FE07ACF813511F488E018D01DD067
:107F900080E101D065CF982F8091C00085FFFCCF94
:107FA0009093C60008958091C00087FFFCCF809118
:107FB000C00084FD01C0A8958091C6000895E0E648
:107FC000F0E098E1908380830895EDDF803219F02E
:107FD00088E0F5DFFFCF84E1DECF1F93182FE3DFCA
:107FE0001150E9F7F2DF1F91089580E0E8DFEE27F6
:047FF000FF270994CA
:027FFE00040479
:00000001FF
