:020000040000FA
:100000000C9465000C944C170C942B170C948D00D9
:100010000C948D000C948D000C948D000C948D002C
:100020000C948D000C947C170C948D000C946D171F
:100030000C948D000C948D000C948D000C948D000C
:100040000C94C2150C948D000C9490150C946A15A8
:100050000C948D000C948D000C948D000C948D00EC
:100060000C940C160C948D007C3C3E5E2B3D3F2F77
:100070005B5D3B2C2A225C000000000800020100AE
:100080000003040700000000000000000000000062
:10009000250028002B0000000000240027002A0073
:1000A000040404040404040402020202020203031E
:1000B0000303030301020408102040800102040826
:1000C00010200102040810208E1711241FBECFEF4C
:1000D000D8E0DEBFCDBF12E0A0E0B1E0ECECFFE382
:1000E00002C005900D92AE34B107D9F726E0AEE418
:1000F000B2E001C01D92A234B207E1F710E0C5E6FC
:10010000D0E004C02197FE010E948E1EC436D107A4
:10011000C9F70E94F5170C94E41F0C940000CF93CC
:10012000DF93FC01828193819093260680932506BC
:1001300084819581A681B7818093270690932806B4
:10014000A0932906B0932A0680859185A285B38560
:1001500080932B0690932C06A0932D06B0932E0629
:10016000DF011C96CF014996CFE2D6E02D9129936D
:10017000A817B907D9F7818D928D90933D0680938A
:100180003C0683E296E0DF91CF91089590E0FC0178
:10019000EC54FF4F249180569F4FFC01849188239B
:1001A00099F090E0880F991FFC01EA56FF4FA59146
:1001B000B491FC01E457FF4F859194918FB7F89467
:1001C000EC91E22BEC938FBF089508950895AF92C0
:1001D000BF92CF92DF92EF92FF920F931F93CF9334
:1001E000DF936C017B018B01040F151FEB015E0196
:1001F000AE18BF08C017D10759F06991D601ED912B
:10020000FC910190F081E02DC6010995892B79F7C9
:10021000C501DF91CF911F910F91FF90EF90DF907B
:10022000CF90BF90AF900895FC01538D448D252F42
:1002300030E0842F90E0821B930B541710F0CF9680
:10024000089501970895FC01918D828D981761F0B2
:10025000A28DAE0FBF2FB11D5D968C91928D9F5FC9
:100260009F73928F90E008958FEF9FEF0895FC01A8
:10027000918D828D981731F0828DE80FF11D858D5B
:1002800090E008958FEF9FEF0895FC01918D228DEE
:10029000892F90E0805C9F4F821B91098F73992773
:1002A00008958DE295E00E94450121E0892B09F433
:1002B00020E0822F089580E090E0892B29F00E94B1
:1002C000510181110C9400000895FC01A48DA80F28
:1002D000B92FB11DA35ABF4F2C91848D90E0019688
:1002E0008F739927848FA689B7892C93A089B189A8
:1002F0008C91837080648C93938D848D981306C049
:100300000288F389E02D80818F7D80830895EF92AC
:10031000FF920F931F93CF93DF93EC0181E0888FBF
:100320009B8D8C8D98131AC0E889F989808185FF8F
:1003300015C09FB7F894EE89FF896083E889F98931
:1003400080818370806480839FBF81E090E0DF9133
:10035000CF911F910F91FF90EF900895F62E0B8D86
:1003600010E00F5F1F4F0F731127E02E8C8D8E1141
:100370000CC00FB607FCFACFE889F989808185FFA8
:10038000F5CFCE010E946501F1CFEB8DEC0FFD2F73
:10039000F11DE35AFF4FF0829FB7F8940B8FEA8963
:1003A000FB8980818062CFCFCF93DF93EC01888D72
:1003B0008823B9F0AA89BB89E889F9898C9185FDE0
:1003C00003C0808186FD0DC00FB607FCF7CF8C916E
:1003D00085FFF2CF808185FFEDCFCE010E946501C0
:1003E000E9CFDF91CF91089590E0FC01E858FF4FED
:1003F0002491FC01EC54FF4F3491FC01E056FF4F77
:10040000E491EE23C9F0222339F0233001F1A8F45E
:10041000213019F1223029F1F0E0EE0FFF1FE457EF
:10042000FF4FA591B4918FB7F894EC91611126C05C
:1004300030953E233C938FBF08952730A9F0283094
:10044000C9F0243049F7809180008F7D03C08091EE
:1004500080008F7780938000DFCF84B58F7784BD55
:10046000DBCF84B58F7DFBCF8091B0008F778093F9
:10047000B000D2CF8091B0008F7DF9CF3E2BDACF84
:100480003FB7F8948091BE029091BF02A091C00244
:10049000B091C10226B5A89B05C02F3F19F0019667
:1004A000A11DB11D3FBFBA2FA92F982F8827BC01CE
:1004B000CD01620F711D811D911D42E0660F771FF6
:1004C000881F991F4A95D1F708952FB7F894609126
:1004D000BA027091BB028091BC029091BD022FBF05
:1004E000089520919602260F3327331F21323105BC
:1004F000ECF420910305FC0190E080E0243069F0E9
:1005000082E00895A09196022191AC014A585D4F76
:10051000A40FB52FB11D2C930196861798F38091E7
:100520009602680F6093960280E0089581E0089536
:100530001092030581E0809302051092DD0461E0D2
:1005400082E10E94F40161E083E10E94F401E9EBA1
:10055000F0E080818E7F808380818D7F808388E43E
:100560008093B80085E48093BC000895CF93DF9317
:1005700091E0909375028823B9F0C091B800D091B2
:10058000BA008091BC008A7B8093BC0060E082E16D
:100590000E94F40160E083E10E94F4010E9498024D
:1005A000D093BA00C093B800DF91CF9108958F9295
:1005B0009F92AF92BF92CF92DF92EF92FF920F93F2
:1005C0001F93CF93DF93D0912C05D13208F0D7C081
:1005D000182FC0912B050E9440026B017C01809175
:1005E000030581116BC082E080930305109302051F
:1005F0008FEF8093010510920005D093FF04ABE0CC
:10060000B5E0EFEDF4E080E0D81391C01092DE0485
:100610008091DE04CC0FC82BC093DE048091DD04F2
:10062000813009F088C01092DD040E9440026B0105
:100630007C018091DE048093BB0080910505909140
:100640000605A0910705B0910805892B8A2B8B2BF5
:10065000A1F00E944002009105051091060520912D
:100660000705309108056C197D098E099F09061749
:1006700017072807390708F442C08091BC0083FDA2
:10068000D8CF85EC8093BC000E9440026B017C01B6
:1006900080910305823009F450C0809101058F3F9D
:1006A00009F46FC080910105803209F46CC080911B
:1006B0000105803309F469C084E026C080910505F6
:1006C00090910605A0910705B0910805892B8A2B0A
:1006D0008B2B09F484CF0E944002809005059090F6
:1006E0000605A0900705B09008056C197D098E09D4
:1006F0009F0986169706A806B90608F070CF809164
:1007000004050E94B60285E010920A0510922C059D
:1007100010920905DF91CF911F910F91FF90EF90FB
:10072000DF90CF90BF90AF909F908F9008959D9154
:1007300091938F5F69CF85EEA5CF8091050590914C
:100740000605A0910705B0910805892B8A2B8B2BF4
:1007500009F49ECF0E944002009105051091060504
:1007600020910705309108056C197D098E099F09B4
:10077000061717072807390708F08ACFC0CF81E08E
:10078000C3CF80E0C1CF82E0BFCF83E0BDCFDC012B
:1007900011968D919C91DC01ED91FC910280F38189
:1007A000E02D42E050E00995029729F481E00E9493
:1007B000D70291E0811190E0892F08950895E0918A
:1007C000C8028091C702E81730F4F0E0EB5AFD4F01
:1007D000808190E008958FEF9FEF08959091C80277
:1007E0008091C7022FEF3FEF981748F4E92FF0E010
:1007F000EB5AFD4F208130E09F5F9093C802C90102
:1008000008958091C7029091C802891B990B0895A1
:10081000CF92DF92EF92FF920F931F93CF93DF93CC
:100820007C01CB018A0120910905222389F0EB018B
:100830006B01C40ED51ECC15DD0569F06991D70199
:10084000ED91FC910190F081E02DC7010995F3CF66
:10085000642F0E947102C801DF91CF911F910F9107
:10086000FF90EF90DF90CF900895CF93DF931F928A
:10087000CDB7DEB76983209109052223F9F02091D5
:100880002C05203258F021E030E0FC013383228334
:1008900090E080E00F90DF91CF91089580910A055C
:1008A000E82FF0E0E55FFA4F998190838F5F8093A6
:1008B0000A0580932C0581E090E0ECCF61E0CE0149
:1008C00001960E947102F7CF90E080E00895CF93E7
:1008D000DF93EC018B818823A1F0888191E09093D4
:1008E000090580932B0510920A0510922C0581E0D2
:1008F0000E94D70291E0811190E0892FDF91CF9182
:1009000008951092C8021092C70210920A05109220
:100910002C050E94980285EE90E09093C602809389
:10092000C50286EE90E09093C4028093C30281E0FA
:100930008B83CE010E946704982F8111CECFDDCF2B
:100940008FB7F89480914F028FBF089561E0FC014A
:1009500084810E94F40180914E02811110924E0216
:1009600008958EBD00000DB407FEFDCF8EB508952D
:100970008FEF0C94B1040F931F93CF93DF93EC018F
:100980000E9465028B010E94B8048F3F69F00E94AB
:100990006502601B710B6C177D07A8F380E0DF9187
:1009A000CF911F910F91089581E0F9CF8CBD9DBD2E
:1009B0000895CF93DF93EC0180914E02811109C01D
:1009C00081E080934E028091D6059091D7050E94D8
:1009D000D60460E08C81DF91CF910C94F4018F926A
:1009E0009F92AF92BF92FF920F931F93CF93DF938B
:1009F000EC01F62E49015A018E81882389F08F81FE
:100A000098859C012F5F3F4F38872F83823092401B
:100A100018F40E94B804F3CFCE010E94A6041E82EF
:100A2000CE010E94D9048CE291E00E94BB048F2D7C
:100A300080640E94B10408E110E0D501C401002ED9
:100A400004C0B695A795979587950A94D2F70E940A
:100A5000B10408501109083F8FEF180771F785E9B5
:100A6000FF2021F028E087E8F2128FEF0E94B10406
:100A700010E00E94B8048A8787FF04C01F3F11F06E
:100A80001F5FF7CFDF91CF911F910F91FF90BF9024
:100A9000AF909F908F900895AF92BF92CF92DF92C8
:100AA000EF92FF920F931F93CF93DF93EC016901B5
:100AB000C801820F931F8130924050F58E818823A8
:100AC00079F088819981AA81BB8184179507A6074F
:100AD000B70731F48F819885C816D90608F042C04F
:100AE000488359836A837B838B85833039F089E01F
:100AF000440F551F661F771F8A95D1F79A01AB01E6
:100B000061E1CE010E94EF04882389F083E08D83A8
:100B1000CE010E94A60480E0DF91CF911F910F913A
:100B2000FF90EF90DF90CF90BF90AF9008950E941C
:100B300065025B010E94B8048A878F3F69F40E94B6
:100B400065026A197B096D327140A0F38FE08D83D5
:100B5000CE010E94A604DCCF8E3F89F418861F8246
:100B600081E08E838F8198858C159D0550F40E94BD
:100B7000B8048F819885019698878F83F3CF8DE095
:100B8000E6CF6701E00EF11E0E94B804F6018193E2
:100B90006F01EE15FF05C1F78F819885080F191FAA
:100BA00018870F838985882319F001151240A0F05A
:100BB0008E81882389F08F8198859C012F5F3F4F1C
:100BC00038872F838230924018F40E94B804F3CF04
:100BD000CE010E94A6041E8281E09ECFCF92DF92BA
:100BE000EF92FF920F93CF93DF93EC01690182E1C3
:100BF000411551056105710599F08B85833039F0F8
:100C000089E0440F551F661F771F8A95D1F79A0117
:100C1000AB0168E1CE010E94EF04882319F084E063
:100C20008D832DC08EEF0E94B10476018EEFD81A0D
:100C3000F70181917F010E94B104EC14FD04C1F71A
:100C40008FEF0E94B1048FEF0E94B1040E94B8049C
:100C50008A878F71853071F4011116C0CE010E9410
:100C6000A60481E0DF91CF910F91FF90EF90DF908C
:100C7000CF90089581E18D83CE010E94A604CE011C
:100C80000E94A60480E0EECF88E592E00E94BB04BB
:100C9000811102C085E1C4CF20E030E0A9016DE000
:100CA000CE010E94EF04882311F084E1B9CF0E94A5
:100CB000B8048111FACFD2CF0F93409151025091D5
:100CC0005202609153027091540241155105610521
:100CD000710599F0082F2DED32E08091DB029091A3
:100CE000DC020E94EE05882349F010925102109216
:100CF0005202109253021092540281E00F91089513
:100D00000F93CF93C82F80915002811105C0C1E08D
:100D10008C2FCF910F9108954091000150910101C6
:100D200060910201709103010C2F2DED32E0809152
:100D3000DB029091DC020E94EE05811102C0C0E04E
:100D4000E7CFCC2321F381E00E945C068823B9F32E
:100D500010925002DDCF8F929F92AF92BF92EF928E
:100D6000FF920F931F93CF934B015C01C42F80918F
:100D7000000190910101A0910201B0910301881539
:100D80009905AA05BB0551F181E00E9480068111F9
:100D90000BC080E0CF911F910F91FF90EF90BF901B
:100DA000AF909F908F9008958DEDE82E82E0F82E01
:100DB00000E012E030E020E0B501A4018091DB0208
:100DC0009091DC020E944C05882319F38092000167
:100DD00090920101A0920201B09203014091500251
:100DE0004C2B4093500281E0D5CFCF93DF93EC01A1
:100DF0006E857F858889998941E00E94AB068823AA
:100E000051F08A8920E2829FC001112483529D4FB4
:100E1000DF91CF91089590E080E0FACF8F929F927A
:100E2000AF92BF92CF92DF92EF92FF92CF9328EDD5
:100E300035E03093DC022093DB02882309F46DC097
:100E400040E060E070E0CB010E94AB0681110BC076
:100E500080E0CF91FF90EF90DF90CF90BF90AF9068
:100E60009F908F90089580919B048F7789F7809150
:100E7000A7049091A804A091A904B091AA04843673
:100E80009105A105B10520F3C090A304D090A4045E
:100E9000E090A504F090A604C114D104E104F1048B
:100EA000B9F240E0C701B6010E94AB06882381F287
:100EB0008091E8029091E9028115924049F6A09153
:100EC000ED02AA2329F26091EB027091EC02611508
:100ED000710509F4BDCF2091EA02222309F4B8CFAD
:100EE000A093F6052093E80590E080E030E0E1E093
:100EF000F0E0C82FAF01082E02C0440F551F0A941E
:100F0000E2F72417350769F041E0480F0196893070
:100F1000910579F74093F1059BCFC12CD12C760137
:100F2000C0CF8093F1052091F3023091F40250E09C
:100F300040E02115310541F4209101033091020375
:100F400040910303509104032093E9053093EA058F
:100F50004093EB055093EC0546015701860E971E12
:100F6000A11CB11C8092F7059092F805A092F9059A
:100F7000B092FA05E091EE02F091EF02F093FD05D8
:100F8000E093FC05B0E00E94831EDC01CB01880DDC
:100F9000991DAA1DBB1D8093FE059093FF05A0938C
:100FA0000006B093010625E0EE0FFF1F2A95E1F73A
:100FB000E150FE4FEF2FFF27E6958E0F9F1FA11DDB
:100FC000B11D8093F2059093F305A093F405B093BF
:100FD000F5058090F0029090F102B12CA12C8114C3
:100FE000910441F48090FD029090FE02A090FF02D7
:100FF000B0900003C81AD90AEA0AFB0AC80CD91C27
:10100000EA1CFB1C04C0F694E794D794C794CA95D5
:10101000D2F7C092ED05D092EE05E092EF05F09286
:10102000F00585EFC8168FE0D806E104F10428F436
:101030008CE08093FB0581E00CCF80E125EFC216A8
:101040002FEFD206E104F104A0F3809109039091FF
:101050000A03A0910B03B0910C038093FE059093BB
:10106000FF05A0930006B093010680E2E2CF4F9205
:101070005F926F927F928F929F92AF92BF92CF9228
:10108000DF92EF92FF920F931F93CF93DF93EC01C8
:10109000423051056105710590F480E0DF91CF91F8
:1010A0001F910F91FF90EF90DF90CF90BF90AF9086
:1010B0009F908F907F906F905F904F90089589855B
:1010C0009A85AB85BC850196A11DB11D8417950736
:1010D000A607B70710F3CB88DC88ED88FE888F89D8
:1010E000803109F042C0BB27A72F962F852F4801DA
:1010F00059012A013B01C80ED91EEA1EFB1E809130
:10110000000190910101A0910201B0910301C81664
:10111000D906EA06FB0699F58F898031C1F5B3013E
:10112000A201552766277727440F551F43525D4F6D
:10113000FA019182808280915002816080935002F6
:101140008A89823080F08D819E81AF81B8858C0D37
:101150009D1DAE1DBF1D8093510290935202A0931E
:101160005302B093540281E099CFDB01CA01E7E05A
:10117000B695A79597958795EA95D1F7B8CF40E0B2
:10118000C701B6010E94AB068111C6CF86CFB3015D
:10119000A2014F77552766277727440F551F440F25
:1011A000551F43525D4FFA0180829182A282B38221
:1011B000C2CF8F929F92AF92BF92CF92DF92EF9267
:1011C000FF920F931F93CF93DF93FC01818592854C
:1011D000A385B4850196A11DB11D84179507A607A7
:1011E000B70770F480E0DF91CF911F910F91FF90CE
:1011F000EF90DF90CF90BF90AF909F908F90089529
:1012000083889488A588B6888789803189F5BB272B
:10121000A72F962F852FE9016A017B018F01BC0161
:10122000CD01680D791D8A1D9B1D80900001909055
:101230000101A0900201B090030186169706A8064E
:10124000B90601F5F8018789803111F5DD24EE2416
:10125000FF24F601EE0FFF1FE352FD4F80819181C5
:10126000B0E0A0E088839983AA83BB8381E0BBCFF1
:10127000DB01CA01C7E0B695A79597958795CA95F2
:10128000D1F7C9CF40E00E94AB068111DBCFAACFD6
:10129000E894C7F8DD24EE24FF24F601EE0FFF1FCB
:1012A000EE0FFF1FE352FD4F80819181A281B38138
:1012B000BF70D8CF4F925F926F927F92AF92BF92E2
:1012C000CF92DF92EF92FF920F931F93CF93DF9312
:1012D00000D000D0CDB7DEB78C0149835A836B8331
:1012E0007C835901C12CD12C7601412C82E0582EEF
:1012F000612C712C49815A816B817C819E012F5F09
:101300003F4FC8010E94D908882339F1F80185852B
:10131000A301920104C0220F331F441F551F8A9559
:10132000D2F7DA01C901C80ED91EEA1EFB1E498197
:101330005A816B817C818789803111F188EF9FEF21
:10134000AFEFBFE0481759076A077B0798F2F5012E
:10135000C082D182E282F38281E00F900F900F90E1
:101360000F90DF91CF911F910F91FF90EF90DF9041
:10137000CF90BF90AF907F906F905F904F90089507
:1013800088EF9FEFA0E0B0E0DDCFCF93DF93FC01CB
:101390002581222321F080E0DF91CF910895EC0197
:1013A0008091FB05803159F582E08583178A108E84
:1013B000118E128E8091FC059091FD05B0E0A0E0A9
:1013C00025E0880F991FAA1FBB1F2A95D1F7838B91
:1013D000948BA58BB68B84EE95E09C8F8B8F81E0F0
:1013E0008C831E821F82188619861A861B861C868D
:1013F0001D861E861F86188A198A1A8ACDCF8032CA
:1014000051F683E085834091FE055091FF05609180
:10141000000670910106478B508F618F728F9F017C
:101420002D5E3F4F84EE95E00E945A098111D3CF83
:10143000B2CF8F929F92AF92BF92CF92DF92EF92F4
:10144000FF920F931F93CF93DF93EC018D81811156
:101450000EC080E0DF91CF911F910F91FF90EF9030
:10146000DF90CF90BF90AF909F908F9008950B89A1
:101470001C892D893E89041715072607370748F36D
:101480004A015B01823031F48A869B86AC86BD8638
:1014900081E0E0CF81149104A104B10449F41E82DB
:1014A0001F82188619861A861B861C861D86F0CF19
:1014B0000A851B852C853D85EB8DFC8D858590E00F
:1014C0000996B901A8014150510961097109082E15
:1014D00004C076956795579547950A94D2F775019C
:1014E0006401E1E0CE1AD108E108F10804C0F694E5
:1014F000E794D794C7948A95D2F7C416D506E60622
:10150000F70620F0012B022B032B11F58F89988D04
:10151000A98DBA8D8E839F83A887B9878E010A5FB4
:101520001F4FC114D104E104F10409F4ADCF4E8181
:101530005F816885798598018B8D9C8D0E94D90883
:1015400091E0C91AD108E108F1088111EACF81CFF1
:10155000C41AD50AE60AF70AE1CF20913C06309179
:101560003D062115310541F0AB01BC01C9010E94C6
:10157000190A91E0811101C090E0892F08953F92EE
:101580004F925F926F927F928F929F92AF92BF9293
:10159000CF92DF92EF92FF920F931F93CF93DF933F
:1015A000CDB7DEB72C970FB6F894DEBF0FBECDBF18
:1015B0005C01DC015B968D909C905C9716964D903B
:1015C0005D906D907C9019974114510461047104F1
:1015D00009F468C0BFEF4B1A5B0A6B0A7B0A312C17
:1015E000F40181859285A385B4859C01AD012F5FAF
:1015F0003F4F4F4F5F4F29873A874B875C87730177
:1016000062011D821E821F821886F40181859285E7
:10161000A385B4852D813E814F81588528173907D0
:101620004A075B0708F056C089859A85AB85BC855B
:101630008C159D05AE05BF0550F482E0C82ED12C57
:10164000E12CF12C92E0492E512C612C712C9E0141
:101650002F5F3F4FB701A601C4010E94D90888231C
:10166000C9F189819A81AB81BC81892B8A2B8B2B13
:1016700009F1260137019FEF491A590A690A790AC7
:101680002D813E814F8158852F5F3F4F4F4F5F4FD8
:101690002D833E834F8358873FEFC31AD30AE30A53
:1016A000F30AB3CFF4014080518062807380332409
:1016B000339496CFC414D504E604F70409F70FEF6A
:1016C0001FEF2FEF3FE0B701A601C4010E943708CA
:1016D000811119C080E02C960FB6F894DEBF0FBEC2
:1016E000CDBFDF91CF911F910F91FF90EF90DF90D1
:1016F000CF90BF90AF909F908F907F906F905F90B2
:101700004F903F900895D50116964D915D916D9142
:101710007C911997411551056105710539F09701C3
:101720008601C4010E9437088823A1F2D5011696CC
:10173000CD92DD92ED92FC921997332051F0D701B2
:10174000C6010196A11DB11DF40180839183A2837E
:10175000B383F5018789908DA18DB28D892B8A2B5A
:101760008B2B39F48481C78AD08EE18EF28E80680B
:101770008483F50184818062848381E0ACCF1F93F0
:10178000CF93DF93FC012581222371F1162FEC0109
:10179000848187FF1EC0CF010E94F506FC01892BC2
:1017A00019F18D81823040F48B899C89AD89BE8985
:1017B000848F958FA68FB78F8F89988D938F828F07
:1017C0008F89988DA98DBA8DB58BA48B8C818F77DD
:1017D0008C83111103C08C818F7E8C83812FDF91CC
:1017E000CF911F910C94800680E0DF91CF911F91E3
:1017F0000895FF920F931F93CF93DF93EC018D8198
:10180000813041F090E080E0DF91CF911F910F9106
:10181000FF9008958C8181FFF5CF82FD1BC0009160
:10182000DB021091DC02C8010E94D9040E94B804B6
:10183000F82EC8010E94A6048FEFF812E3CF8C8126
:1018400085FF1BC060E0CE010E94BF0B8C818F7DA5
:101850008C83D8CF4B895C896D897E898A859B85ED
:10186000AC85BD8584179507A607B707C1F2CE01E1
:101870000E94190A8111D3CFC5CF409151025091D6
:1018800052026091530270915402452B462B472B14
:1018900021F080E00E945C06B5CF80618C832A85B0
:1018A0003B85317080E092E0821B930BADCFCF93EC
:1018B000DF93EC0161E00E94BF0B882311F01D82D1
:1018C00081E0DF91CF9108952F923F924F925F92E6
:1018D0006F927F928F929F92AF92BF92CF92DF9240
:1018E000EF92FF920F931F93CF93DF9300D000D01E
:1018F0001F92CDB7DEB77C015B01342E5D83DC0126
:1019000015968C911597813009F0CEC014962C90C5
:1019100021FECAC022FCB4C0C32CDD8022947FE02B
:1019200027222094B22DB1702B2ED7011A964D91FB
:101930005D916D917C911D97C114D10409F428C16A
:101940005B968D919C915C97FC0174807A948A01DE
:101950009B0169E036952795179507956A95D1F70C
:1019600070228A011170711020C001151105E9F46F
:1019700016964D915D916D917C9119974115510588
:101980006105710509F099C057968D919D910D9053
:10199000BC91A02D0097A105B10509F0B0C0C70109
:1019A0000E94BF0A882309F47FC080E092E0801B78
:1019B000910B46018C159D0508F44C01D7015B96EF
:1019C0004D915C915C9716968D919D910D90BC9177
:1019D000A02D0297A109B109FA01258504C0880F3D
:1019E000991FAA1FBB1F2A95D2F746855785608984
:1019F0007189840F951FA61FB71F9C01AD01270D8C
:101A0000311D411D511D29013A01811432E0930617
:101A100009F07BC08091000190910101A091020129
:101A2000B091030184159505A605B70559F48FEF0C
:101A30009FEFDC018093000190930101A0930201CC
:101A4000B0930301022D9501B301A2018091DB0245
:101A50009091DC020E94EE05882331F19EEFB91AC5
:101A6000C818D908F70182859385A485B585880DA6
:101A7000991DA11DB11D82879387A487B58755CF76
:101A8000F701438954896589768982859385A48580
:101A9000B585481759076A077B0709F43DCFC70189
:101AA0000E94190A811138CF81E090E0D701139686
:101AB0009C938E93129780E007C09E012F5F3F4F4B
:101AC0000E94D908811102C090E079C089819A8171
:101AD000AB81BC81F701238D348DF901278948EF53
:101AE0005FEF60E070E0203121F048EF5FEF6FEFD3
:101AF0007FE084179507A607B70708F050CFF701D6
:101B000086839783A087B18750CF0115110599F57A
:101B1000D7011A964D915D916D917C911D975396C9
:101B20008D919D910D90BC91A02D481759076A0782
:101B30007B0708F181E00E948006882309F4B4CF76
:101B400040920001509201016092020170920301E3
:101B500080915002816080935002C80183529D4F52
:101B6000D5019C01280D391DFC012E173F0759F0A6
:101B70004D914193FACF41E0C301B2010E94AB06FF
:101B80008111EBCF91CF281B390BA20EB31E68CF6A
:101B9000F70183899489A589B68984179507A607D3
:101BA000B70738F48481438B548B658B768B8068C0
:101BB0008483F701848183FD1AC0832D9D810F905A
:101BC0000F900F900F900F90DF91CF911F910F9179
:101BD000FF90EF90DF90CF90BF90AF909F908F904D
:101BE0007F906F905F904F903F902F90089561E0AD
:101BF000C7010E94BF0B882309F456CFDECFCF93D5
:101C0000DF931F92CDB7DEB7698341E050E0BE019C
:101C10006F5F7F4F0E94640C0F90DF91CF9108950A
:101C2000FC01DB0112968D919C9113979383828323
:101C300080E691E09183808314968C91149784833D
:101C400015968C911597858316964D915D916D91A2
:101C50007C91199746835783608771871A964D91B7
:101C60005D916D917C911D9742875387648775873D
:101C70001E964D915D916D917C9151974687578746
:101C8000608B718B52968C915297828B53964D91AB
:101C90005D916D917C915697438B548B658B768BC0
:101CA00057964D915D916D917C915A97478B508FCE
:101CB000618F728F5B968D919C91948F838F089525
:101CC0000895FC01818D928D009719F061E00C94CC
:101CD000BF0B0895DC015996ED91FC913097B9F056
:101CE00083899489A589B6894285538564857585DC
:101CF000841B950BA60BB70B811520E89207A10555
:101D0000B10538F08FEF9FE7A0E0B0E0089590E0D4
:101D100080E00895DC0159968D919C91009739F0EF
:101D2000DC01ED91FC910480F581E02D099490E0B7
:101D300080E00895CF93DF93EC01E98DFA8D309721
:101D400049F481E090E09B838A8390E080E0DF911A
:101D5000CF91089513821282898D9A8D0E94640C0E
:101D6000E98DFA8D22813381232B59F7F0CFCF9360
:101D7000DF931F92CDB7DEB76983DC01ED91FC9153
:101D80000280F381E02D41E050E0BE016F5F7F4FA4
:101D900009950F90DF91CF9108952F923F924F9226
:101DA0005F926F927F928F929F92AF92BF92CF92EB
:101DB000DF92EF92FF920F931F93CF93DF9300D0A8
:101DC0001F92CDB7DEB7FC018581811118C08FEF5E
:101DD0009FEF0F900F900F90DF91CF911F910F9178
:101DE000FF90EF90DF90CF90BF90AF909F908F903B
:101DF0007F906F905F904F903F902F9008958481D7
:101E000080FFE5CF438954896589768982859385EA
:101E1000A485B585312C212C481759076A077B0703
:101E200019F022242394312C6F012101CE01019657
:101E30003C01DF011696BB83AA834114510409F4C7
:101E4000C5C0F60142855385648575854A01F1E078
:101E50009F22D6015B968D919C915C978A019B0194
:101E6000E9E03695279517950795EA95D1F71596E8
:101E7000EC91E230E9F5FC01628D738D848D958DD6
:101E8000600F711F821F931FA12C22E0B22EA81891
:101E9000B9084A145B0408F45201F601248126FDB6
:101EA00004C0A114F2E0BF0671F40091000110918A
:101EB000010120910201309103010617170728073D
:101EC000390709F05EC040E00E94AB06882309F4A0
:101ED0007ECFC40183529D4FD3019C012A0D3B1D2F
:101EE000FC012E173F0709F46CC041914D93F9CFC7
:101EF000DC011496BC90BA94B0228114910479F458
:101F0000B1100DC0452B462B472B69F5F60187898B
:101F1000908DA18DB28D86839783A087B187D601DE
:101F20005B96ED91FC915C9716966D917D918D91EC
:101F30009C9119976250710981099109258504C006
:101F4000660F771F881F991F2A95D2F70685178578
:101F500020893189600F711F821F931F6B0D711DC6
:101F6000811D911D91CFD60116964D915D916D9178
:101F70007C9119972A813B810E94D9088111CFCF8A
:101F800026CF730185019401AB01BC018091DB0276
:101F90009091DC020E944C05882309F418CF6A0C4A
:101FA0007B1CF60182859385A485B5858A0D9B1DD2
:101FB000A11DB11D82879387A487B5874A185B0846
:101FC0003CCF281B390B620E731EEBCF2A942328BB
:101FD00009F0FDCE898190E0FCCEFC01818D928DCF
:101FE000009711F00C94CD0E8FEF9FEF08950F9393
:101FF0001F93CF93DF93EC01898D9A8D10E000E061
:10200000009799F00E94CD0E8C010F3F100769F0E8
:10201000898D9A8DFC014285538564857585415073
:102020005109610971090E94190AC801DF91CF9114
:102030001F910F910895FC0101900020E9F731975D
:10204000AF01481B590BBC018DE295E00C94E700F1
:102050008F929F92AF92BF920F931F93CF93DF9374
:10206000CDB7DEB7A1970FB6F894DEBF0FBECDBFD8
:1020700019A2423008F44AE08E010F5D1F4F842EF2
:10208000912CB12CA12CA50194010E94611EE62F78
:10209000B901CA01EA30F4F4E05DD801EE938D0194
:1020A000232B242B252B79F790E080E0109719F053
:1020B000CD010E941B10A1960FB6F894DEBF0FBE93
:1020C000CDBFDF91CF911F910F91BF90AF909F90A7
:1020D0008F900895E95CE1CFCF93DF930E941B10AE
:1020E000EC018AE791E00E941B108C0F9D1FDF918D
:1020F000CF910895CF93DF9300D0CDB7DEB780E3C3
:1021000089831A828091210690912206FC01248104
:10211000358122303105A0F0208131E0309309056E
:1021200020932B0510920A0510922C05BE016F5FBB
:102130007F4F0E94C7030F900F90DF91CF910895BA
:1021400080E0F9CF8F929F92AF92BF92CF92DF92B1
:10215000EF92FF920F931F93CF93DF9300D000D0A5
:10216000CDB7DEB7FC018581813091F080E00F9022
:102170000F900F900F90DF91CF911F910F91FF90D3
:10218000EF90DF90CF90BF90AF909F908F90089589
:10219000848181FFEBCF83899489A589B689892BB6
:1021A0008A2B8B2B09F45FC07F0140E050E0BA011D
:1021B000CF010E94190A8823C9F2F701C38CD48C7D
:1021C0008788908CA18CB28C82E090E0A0E0B0E097
:1021D000F60180839183A283B3839E012F5F3F4FDB
:1021E000B501A401C6010E94D908882309F4BECF15
:1021F00000E010E09801B501A401C6010E94370873
:10220000882309F4B3CF89809A80AB80BC80F60123
:102210008789803119F188EF9FEFAFEFBFE0881613
:102220009906AA06BB06C8F2F701178A108E118E0E
:10223000128E138A148A158A168A84818068848390
:1022400061E0C7010E94BF0B882309F48FCF40E0F3
:1022500050E0BA01C7010E94190A89CF88EF9FEFA9
:10226000A0E0B0E0DCCF81E082CFCF92DF92EF92AE
:10227000FF921F93CF93DF93EC0180E2689FF00100
:102280001124E352FD4F9385917161F0842F827484
:1022900049F080E0DF91CF911F91FF90EF90DF90A8
:1022A000CF900895142F6A8B8091000190910101C5
:1022B000A0910201B09103018E879F87A88BB98BF3
:1022C000C488D588F12CE12C7601DD24CC24CF8A7A
:1022D000D88EE98EFA8E828D938DB0E0A0E0AC01AD
:1022E000BD014C295D296E297F294F8B588F698F3D
:1022F0007A8F83858871B1F4848D958DA68DB78D85
:102300008B8B9C8BAD8BBE8B81E08D831F701C8370
:102310001E821F82188619861A861B861C861D86B9
:1023200081E0B8CF803109F0B4CF9E012D5E3F4FE0
:102330008B8D9C8D0E945A09882309F4AACF84E0D2
:10234000E4CFCF93DF93682F70E090E080E04AE025
:102350000E942810EC018AE791E00E941B108C0F6C
:102360009D1FDF91CF91089580913C0690913D068D
:10237000009761F00E94570C80913C0690913D06B9
:102380000E943F1F10923D0610923C06089585ED75
:102390008093BC008091050590910605A0910705EA
:1023A000B09108050796A11DB11D23E0B695A7952C
:1023B000979587952A95D1F72091BC0024FD03C0FD
:1023C000109203050895409105055091060560910E
:1023D000070570910805452B462B472B69F300979D
:1023E000A105B10541F025E32A95F1F70000019719
:1023F000A109B109E1CF809104050C94B6023F9286
:102400004F925F926F927F928F929F92AF92BF9204
:10241000CF92DF92EF92FF920F931F93CF93DF93B0
:10242000CDB7DEB72B970FB6F894DEBF0FBECDBF8A
:102430007C01DC0115968C91811115C0FE0131964D
:10244000CE010C966F0130E23193E817F907E1F7FE
:10245000DA0130E087E09D91B92E992329F19E326F
:1024600039F48A3011F480E0DAC038E08AE0F3CF42
:10247000E8E6F0E04491442321F031969413FACF3A
:10248000F2CF831780F34FED490F4E3560F74FE9D8
:10249000490F4A3118F440EEB42EB90EF601E30F9D
:1024A000F11DB0823F5FD7CF89818032E1F2322EB9
:1024B0008B01FB01838D948DD7015C969C938E9349
:1024C0005B971682178210861186128613861486F1
:1024D0001586F80182859385A485B585438954893D
:1024E0006589768984179507A607B70708F04DC058
:1024F00025E0B695A795979587952A95D1F7F82F5A
:10250000FF70AF2ED80115968C91823008F4ABCFB6
:10251000C8010E94CD0E97FDA6CFF8018285938554
:10252000A485B5854F96A11DB11D82879387A48789
:10253000B587F0E2AF9EB001112463527D4F611563
:10254000710509F490CFDB018C91882341F0853E21
:1025500009F058C0BB2029F0BB24B394BACFB11006
:102560000EC0F701A28A8091000190910101A09113
:102570000201B091030186879787A08BB18BDB01A5
:102580008C918111E9CFBB24B394832D8271823168
:1025900009F069CFBB2009F45AC0C7010E94F506B3
:1025A000009709F460CF20E2FC0111922A95E9F727
:1025B0002BE0F601DC0101900D922A95E1F721E272
:1025C00038E2DC0151963C932E93509740E058E05E
:1025D0001F965C934E931E9753963C932E9352975F
:1025E00059963C932E93589757965C934E935697D3
:1025F00081E00E948006882309F435CF432DF7013E
:1026000062890AC04BE050E0C6010E94C81F892BB6
:1026100009F05FCF432D6A2DC7010E9435112B961B
:102620000FB6F894DEBF0FBECDBFDF91CF911F91E3
:102630000F91FF90EF90DF90CF90BF90AF909F9061
:102640008F907F906F905F904F903F900895F8012A
:102650008581823009F407CFC8010E94BF0A882310
:1026600009F401CFD8015B96ED91FC915C97169629
:102670008D909D90AD90BC901997B2E08B1A910807
:10268000A108B108858504C0880C991CAA1CBB1C34
:102690008A95D2F786859785A089B189880E991E7B
:1026A000AA1EBB1E848124013501480E511C611CE9
:1026B000711C84149504A604B70409F1E1E04E1AD4
:1026C00051086108710881E00E948006882309F49E
:1026D000CACEEDEDF2E011928DED94E08E179F07DA
:1026E000D1F7409200015092010160920201709274
:1026F000030180915002816080935002DACFD801AB
:102700005B96ED91FC91258580E092E0A0E0B0E041
:1027100004C0880F991FAA1FBB1F2A95D2F7F80182
:102720004389548965897689840F951FA61FB71F31
:10273000838B948BA58BB68BD70152961C928DED13
:1027400092E031CF7F928F929F92AF92BF92CF92C1
:10275000DF92EF92FF920F931F93CF93DF93CDB74A
:10276000DEB7C754D1090FB6F894DEBF0FBECDBF98
:102770005C0119A218A280E691E09F8F8E8F1BA2A8
:102780001C821B829A8389831E82912C812C7E015C
:102790008EE1E80EF11C02E016E0C401F401E358FA
:1027A000FE4F20812F3209F40196DC01A358BE4F61
:1027B000FE01FB9630E020E06F014D914F3249F071
:1027C000442339F001962F5F3F4F41932C30310560
:1027D000A1F72C0D3D1DF9011082FC01E358FE4FBD
:1027E00020812F3209F401964C01FC01E358FE4F81
:1027F000708041E0711040E030E020E0B601C80197
:10280000F501099581111EC0F6E002301F07B1F4F1
:1028100080E0C95BDF4F0FB6F894DEBF0FBECDBFBF
:10282000DF91CF911F910F91FF90EF90DF90CF90AC
:10283000BF90AF909F908F907F900895C8010E94A5
:10284000570CE6CF772089F021E0A601B801C70137
:102850000E94FF11D82E86E00230180779F0C801D7
:102860000E94570CD1100FC0D3CFE6E002301E07F4
:1028700019F0C8010E94570C81E0CBCFDD2041F256
:102880008E010F5F1F4F902F812F8701E92EF82EA9
:1028900084CF1F93CF93DF93CDB7DEB76D970FB67D
:1028A000F894DEBF0FBECDBFAB011C821B8220E6B9
:1028B00031E03A8329831E8221E0BC01CE010196DA
:1028C0000E94FF1111E081110CC010E0812F6D9664
:1028D0000FB6F894DEBF0FBECDBFDF91CF911F9131
:1028E0000895CE0101960E94570CF0CFCF93DF934D
:1028F000CDB7DEB76D970FB6F894DEBF0FBECDBF74
:10290000442399F1AB01BC011C821B8280E691E05B
:102910009A8389831E8222E0CE0101960E94FF11D4
:1029200081110EC090E081E0911101C080E06D96B0
:102930000FB6F894DEBF0FBECDBFDF91CF910895E3
:10294000CE0101960E94A210882361F3CE01019668
:102950000E94F506009731F325EEFC0120831E82CC
:1029600081E00E948006982FDECF81E0E0CFEF92D9
:10297000FF920F931F93CF93DF93EC017B018A01AA
:102980001B821A8288EE93E0A0E0B0E08C839D83E6
:10299000AE83BF838CE691E0998388838DE190E0DC
:1029A0000E94A31E9A8F898F009779F02DE1F7017D
:1029B000DC0101900D922A95E1F74CE050E0B8015E
:1029C000CE010C960E94D51F188EDF91CF911F91DA
:1029D0000F91FF90EF900895CF92DF92FF920F93A7
:1029E0001F93CF93DF93CDB7DEB7C755D1090FB68D
:1029F000F894DEBF0FBECDBF8C01F62E1C821B8269
:102A000080E6C82E81E0D82EDA82C9821E82CE01ED
:102A100001960E94C509BE016F5F7F4FCE01CB9624
:102A20000E94100E19A218A2DF8ECE8E1BA2219634
:102A30008FAD2197811122C0F8011382128288EE96
:102A400093E0A0E0B0E084839583A683B7838CE60F
:102A500091E091838083128E118E1486C801C95A29
:102A6000DF4F0FB6F894DEBF0FBECDBFDF91CF9121
:102A70001F910F91FF90DF90CF9008952F2D4DE77C
:102A800051E0BE01655C7F4FCE014E960E94FF1162
:102A9000882391F2CE01CB960E94570C8F2D867021
:102AA000863041F449A95AA96BA97CA9CE014E965A
:102AB0000E94190ABE01625E7F4FCE0101960E94FC
:102AC000100E4DE751E0BE016F5F7F4FC8010E94BD
:102AD000B714C4CF1F920F920FB60F9211242F93E9
:102AE0003F934F935F936F937F938F939F93AF9396
:102AF000BF93EF93FF938DE295E00E946501FF91F4
:102B0000EF91BF91AF919F918F917F916F915F9165
:102B10004F913F912F910F900FBE0F901F901895DE
:102B20001F920F920FB60F9211242F938F939F93A2
:102B3000EF93FF93E0913D05F0913E058081E09198
:102B40004305F091440582FD1BC0908180914605AC
:102B50008F5F8F7320914705821741F0E091460502
:102B6000F0E0E35DFA4F958F80934605FF91EF917A
:102B70009F918F912F910F900FBE0F901F901895DE
:102B80008081F4CF1F920F920FB60F9211242F93D2
:102B90003F938F939F93AF93BF938091BA0290918D
:102BA000BB02A091BC02B091BD023091B90223E0FA
:102BB000230F2D3758F50196A11DB11D2093B902A1
:102BC0008093BA029093BB02A093BC02B093BD0263
:102BD0008091BE029091BF02A091C002B091C1024B
:102BE0000196A11DB11D8093BE029093BF02A093D8
:102BF000C002B093C102BF91AF919F918F913F915D
:102C00002F910F900FBE0F901F90189526E8230F5D
:102C10000296A11DB11DD2CF1F920F920FB60F9237
:102C200011242F933F934F935F936F937F938F93D1
:102C30009F93AF93BF93EF93FF938091B900887FE9
:102C4000803609F44AC0F0F5883209F4A7C018F5B7
:102C5000803109F49BC0B8F4882309F4F9C08830A6
:102C600009F494C0FF91EF91BF91AF919F918F9123
:102C70007F916F915F914F913F912F910F900FBE78
:102C80000F901F901895883109F488C0803251F751
:102C90008093010514C0803409F49DC040F4803352
:102CA000B9F38833F9F68093010585ECB0C080351F
:102CB00009F485C0883509F496C0883499F60E94D5
:102CC000C711D0CF883909F48CC038F5883729F07E
:102CD00050F4883611F0803729F683E0809303059D
:102CE0001092B80257C0883809F47BC0803919F0B7
:102CF000803809F0B7CF8091B802803208F071C0F7
:102D0000E091B80281E08E0F8093B8028091BB0001
:102D1000F0E0E856FD4F80833DC0803B39F0E0F4A1
:102D2000803A09F479C0883A09F09CCF84E0809316
:102D300003051092970210929602E091C502F0915D
:102D4000C60209958091960281110FC081E080939F
:102D500096021092760209C0803C09F4A6CF883C06
:102D600009F4A3CF883B09F07DCFE091970281E081
:102D70008E0F80939702F0E0EA58FD4F8081809398
:102D8000BB00909197028091960229C08091DE0449
:102D90008093BB0085EC8093BC0064CF90910005CC
:102DA0008091FF04981758F5E091000581E08E0F9F
:102DB00080930005F0E0E152FB4F8081E9CFE09184
:102DC000000581E08E0F809300058091BB00F0E04C
:102DD000E152FB4F8083909100058091FF0498178A
:102DE000C8F285E8D8CFE091000581E08E0F80938E
:102DF00000058091BB00F0E0E152FB4F80838091A1
:102E0000020581115CCF81E08093DD0484EA809328
:102E1000BC001092030526CF85EC8093BC00109275
:102E200003058091B802803230F4E091B802F0E0FE
:102E3000E856FD4F10826091B80270E0E091C30245
:102E4000F091C40288E992E009951092B8020ACF85
:102E50001092010534CF1F920F920FB60F921124DA
:102E60002F938F939F938091040190E0019683703C
:102E70009927809304012FEF83EC99E02150804043
:102E80009040E1F700C000009F918F912F910F902B
:102E90000FBE0F901F9018951F920F920FB60F92B2
:102EA00011242F938F939F938091050190E00196B9
:102EB00083709927809305012FEF83EC99E02150CF
:102EC00080409040E1F700C000009F918F912F91CA
:102ED0000F900FBE0F901F9018951F920F920FB674
:102EE0000F9211248F9381E08093D5028F910F90E0
:102EF0000FBE0F901F9018951F920F920FB60F9252
:102F000011248F9381E08093CE0285E08093B200FC
:102F10008F910F900FBE0F901F901895EDE2F5E086
:102F20001382128288EE93E0A0E0B0E08483958360
:102F3000A683B7832CE331E03183208325EC30E096
:102F40003587248724EC30E03787268720EC30E073
:102F5000318B208B21EC30E0338B228B22EC30E064
:102F6000358B248B26EC30E0378B268B118E128E1E
:102F7000138E148EEAECF5E013821282848395831B
:102F8000A683B7832EE431E031832083E6EDF5E0BC
:102F900020E520831182E8EDF5E015821682118686
:102FA000138642E050E060E070E044875587668712
:102FB000778713A215A614A620E631E033A722A72F
:102FC00017A6E3E2F6E01382128284839583A68338
:102FD000B7838CE691E091838083128E118E1486E4
:102FE00010922206109221060895CF93DF93CDB759
:102FF000DEB76B970FB6F894DEBF0FBECDBF7894E7
:1030000084B5826084BD84B5816084BD85B58260ED
:1030100085BD85B5816085BD80916E00816080939E
:103020006E00109281008091810082608093810007
:103030008091810081608093810080918000816017
:10304000809380008091B10084608093B100809172
:10305000B00081608093B00080917A00846080939A
:103060007A0080917A00826080937A0080917A0061
:10307000816080937A0080917A00806880937A00E2
:103080001092C100F89480E8809361001092610072
:103090007894209A289AE0913D05F0913E0582E0CF
:1030A0008083E0913905F0913A051082E0913B056B
:1030B000F0913C058FEC808310924505E09141052D
:1030C000F091420586E08083E0913F05F091400554
:1030D000808180618083E0913F05F091400580818F
:1030E00088608083E0913F05F09140058081806891
:1030F0008083E0913F05F091400580818F7D808342
:1031000087E891E00E946C1080910706882321F0E7
:1031100082E096E00E94570C1092E3051092E105C0
:103120001092DE051092DD058AE08093DC050E9496
:1031300065028B018091DC050E94C60061E08091F0
:10314000DC050E94F401FFB6F8948091C20281115F
:1031500024C0EAEAF0E08491EEEBF0E09491E82FED
:10316000F0E0EE0FFF1FEA56FF4FA591B491EC91EE
:10317000E92321F461E08AE00E94F4018AE00E94E0
:10318000C6008CB580618CBD8CB580648CBD8DE033
:103190000E94C6008BE00E94C6008091C2028F5F31
:1031A0008093C202FFBE82E58093D6051092D705B8
:1031B0008091D6059091D7050E94D604BAE0FB2EE7
:1031C0008FEF0E94B104FA94F110FACF88ED95E0E8
:1031D0000E94D90420E030E0A90160E088ED95E08C
:1031E0000E94EF04F82E8093E20581E0F81609F4BE
:1031F000ECC00E946502601B710B613D774050F38B
:1032000081E08093DD0588ED95E00E94A6048BE9BE
:1032100091E00E946C1010E27AEFC72ED12CE0E012
:10322000AE2EE0E0BE2E48E0942E53E4852E63E8F7
:10323000762E02E080910501813009F021C284E000
:1032400092E00E946C10809105010E94A111F894F7
:1032500083E192E00E946C1089E494E10E94A21341
:10326000882321F086E794E10E94A21367E1CE0152
:1032700001960E94EC14CE0101960E948F003CE062
:10328000E32E31E0F32EF70161917F0183E296E0B6
:103290000E94B70EF8E3EF16F1E0FF06A1F71092D7
:1032A000DA0290927E0080927C0070927A00009305
:1032B000B10085E08093B2008091700081608093BE
:1032C0007000559A5D9A78940E9440026093D602ED
:1032D0007093D7028093D8029093D902F0900501A1
:1032E00083E0F81609F446C18091DA02882321F0C0
:1032F000809105018330C1F78091CE02882371F35C
:1033000080917A00806480937A0080917A0086FDB3
:10331000FCCF609178008091790090917A00906163
:1033200090937A0090E0982F8827680F792F711D6D
:1033300090E080E00E94661D20E030E040E85EE31F
:103340000E94F41D0E94301D6093C9026091C90261
:1033500083E296E00E94B70E0E9440022091D602BE
:103360003091D7024091D8025091D902621B730B61
:10337000840B950B6093D1027093D2028093D30299
:103380009093D4020E9440026093D6027093D702B9
:103390008093D8029093D9028BB181278BB9109278
:1033A000CE028091CA029091CB02A091CC02B09142
:1033B000CD020196A11DB11D8093CA029093CB024C
:1033C000A093CC02B093CD0289CF2AEA31E040E04D
:1033D00050E068E088ED95E00E94EF0482FF2AC08B
:1033E000F092E3058091E305C12CD12C7601823067
:1033F00029F4C12CD12CE12CF0E4FF2E20E030E0A8
:10340000A90167E388ED95E00E94EF04A70196010A
:1034100069E288ED95E00E94EF048093E20588233D
:10342000D1F00E946502601B710B613D774030F363
:1034300088E0E7CEA4E0FA2E0E94B8048093E2056B
:10344000FA94F110F9CF8A3A11F082E0DACE82E0F4
:103450008093E305C7CF8091E3058230D1F420E06B
:1034600030E0A9016AE388ED95E00E94EF0488232B
:1034700011F086E0C6CE0E94B804807C803C19F42E
:1034800083E08093E3050E94B8040E94B8040E9480
:10349000B80488ED95E00E94A60480E58093D605E7
:1034A0001092D70581E00E940E07882309F458C0C6
:1034B00082E096E00E94C509882309F4A8CE809195
:1034C000210690912206009709F051C086E090E015
:1034D0000E94A31E8C0180E6F80180838AEC95E0AF
:1034E00092838183138280E290E09583848310939A
:1034F0002206009321061092C8021092C702109271
:103500000A0510922C050E94980285EE90E0909397
:10351000C6028093C50286EE90E09093C402809329
:10352000C30281E0F8018383C8010E9467040E94FE
:103530007A10F89480916900816080936900E89A1C
:10354000789489EB91E00E946C10F8948091690066
:10355000846080936900E99A789481EE91E059CE75
:1035600080E00E940E07882309F451CEA1CF0E946B
:103570003F1FACCF6091D1027091D2028091D302F3
:103580009091D4024AE00E9428108AE791E00E94BC
:103590001B1080910401833011F0F0920401F89423
:1035A0000E94B41110927E0010927A00F89410924A
:1035B0007000589B03C08BB181278BB98AB18127DA
:1035C0008AB97894789463E0CE0101960E94EC1455
:1035D000CE0101960E948F0068E270E080E090E0EA
:1035E0000E94AD0AF12CE12C6091CA027091CB02CD
:1035F0008091CC029091CD020E2C04C096958795B7
:10360000779567950A94D2F783E296E00E94B70E09
:10361000E8E0EE0EF11CF0E2EF16F10429F764E0A9
:1036200070E080E090E00E94AD0AF12CE12C609106
:10363000CA027091CB028091CC029091CD02645D60
:103640007F4F8F4F9F4F0E2C04C09695879577958F
:1036500067950A94D2F783E296E00E94B70E88E05D
:10366000E80EF11CE0E2EE16F10409F70E94B41135
:103670001092CA021092CB021092CC021092CD028C
:1036800080910401813009F000C185E292E00E943E
:103690006C10809104010E94A111F89482E392E0E1
:1036A0000E946C1061E0CE0101960E94EC14CE01E4
:1036B00001960E948F0082E492E00E946C106DE2FD
:1036C00070E080E090E00E94AD0A8CE08093B8004A
:1036D000109280008AE08093810010928200009313
:1036E0006F001092850010928400D0928900C092E1
:1036F0008800559A5D9A7894809104010E94A111E6
:103700001092DA0278940E9440026093D60270937D
:10371000D7028093D8029093D902FF24F39480912A
:103720000401833009F485C08091DA0281110E947E
:103730007A108091DA028111FCCF8091D502882322
:1037400071F383E296E00E946A0E892B09F46CC043
:1037500083E296E00E94ED0F9093D0028093CF0217
:103760006091CF027091D0026F3F710511F008F0A7
:1037700058C090E080E00E94661D20E030E04FE7F6
:1037800053E40E94BE1C20E030EC43E755E40E9465
:10379000F41D20E030E048EC52E40E94521C0E94EC
:1037A000371D79836A838091210690912206FC015E
:1037B000248135812230310570F02081F092090595
:1037C00020932B0510920A0510922C05BE016F5F05
:1037D0007F4F0E94C7030E9440022091D602309181
:1037E000D7024091D8025091D902621B730B840B0F
:1037F000950B6093D1027093D2028093D302909381
:10380000D4020E9440026093D6027093D702809344
:10381000D8029093D9028BB181278BB91092D5022F
:103820007ECF60EA7FE0BDCF1092D50283E0809327
:1038300004016091D1027091D2028091D3029091E3
:10384000D4024AE00E9428108AE791E00E941B10EF
:1038500080910501833019F083E080930501F8948D
:103860000E94B41110928000109281001092820088
:1038700010926F0078940E947A10589B03C08BB10D
:1038800081278BB98AB181278AB9A114B10409F4BF
:10389000D1CC0E945101882309F4C5CC0E940000BC
:1038A000C2CC5058BB27AA270E94691C0C94BA1D91
:1038B0000E94AC1D38F00E94B31D20F039F49F3FE8
:1038C00019F426F40C94A91D0EF4E095E7FB0C9472
:1038D000A31DE92F0E94CB1D58F3BA176207730787
:1038E0008407950720F079F4A6F50C94ED1D0EF4ED
:1038F000E0950B2EBA2FA02D0B01B90190010C0100
:10390000CA01A0011124FF27591B99F0593F50F417
:10391000503E68F11A16F040A22F232F342F44276F
:10392000585FF3CF469537952795A795F040539567
:10393000C9F77EF41F16BA0B620B730B840BBAF037
:103940009150A1F0FF0FBB1F661F771F881FC2F7A2
:103950000EC0BA0F621F731F841F48F487957795B6
:103960006795B795F7959E3F08F0B0CF9395880F70
:1039700008F09927EE0F9795879508950E94D21C1D
:103980000C94BA1D0E94B31D58F00E94AC1D40F06B
:1039900029F45F3F29F00C94A31D51110C94EE1DE6
:1039A0000C94A91D0E94CB1D68F39923B1F35523F4
:1039B00091F3951B550BBB27AA2762177307840742
:1039C00038F09F5F5F4F220F331F441FAA1FA9F3D8
:1039D00035D00E2E3AF0E0E832D091505040E695C6
:1039E000001CCAF72BD0FE2F29D0660F771F881F27
:1039F000BB1F261737074807AB07B0E809F0BB0B1A
:103A0000802DBF01FF2793585F4F3AF09E3F51052D
:103A100078F00C94A31D0C94EE1D5F3FE4F3983EE8
:103A2000D4F3869577956795B795F7959F5FC9F716
:103A3000880F911D9695879597F90895E1E0660F97
:103A4000771F881FBB1F621773078407BA0720F010
:103A5000621B730B840BBA0BEE1F88F7E095089579
:103A60000E94371D6894B1110C94EE1D08950E94B8
:103A7000D31D88F09F5798F0B92F9927B751B0F010
:103A8000E1F0660F771F881F991F1AF0BA95C9F7E2
:103A900014C0B13091F00E94ED1DB1E008950C9476
:103AA000ED1D672F782F8827B85F39F0B93FCCF329
:103AB000869577956795B395D9F73EF4909580955F
:103AC000709561957F4F8F4F9F4F0895E89409C07F
:103AD00097FB3EF490958095709561957F4F8F4F41
:103AE0009F4F9923A9F0F92F96E9BB279395F69557
:103AF000879577956795B795F111F8CFFAF4BB0FD5
:103B000011F460FF1BC06F5F7F4F8F4F9F4F16C038
:103B1000882311F096E911C0772321F09EE8872FC2
:103B2000762F05C0662371F096E8862F70E060E07E
:103B30002AF09A95660F771F881FDAF7880F9695F7
:103B4000879597F9089597F99F6780E870E060E09E
:103B500008959FEF80EC089500240A941616170626
:103B600018060906089500240A941216130614066E
:103B700005060895092E0394000C11F4882352F0D1
:103B8000BB0F40F4BF2B11F460FF04C06F5F7F4F89
:103B90008F4F9F4F089557FD9058440F551F59F070
:103BA0005F3F71F04795880F97FB991F61F09F3F2A
:103BB00079F087950895121613061406551FF2CF53
:103BC0004695F1DF08C0161617061806991FF1CFA3
:103BD00086957105610508940895E894BB276627CA
:103BE0007727CB0197F908950E94071E0C94BA1D00
:103BF0000E94AC1D38F00E94B31D20F0952311F0F7
:103C00000C94A31D0C94A91D11240C94EE1D0E946C
:103C1000CB1D70F3959FC1F3950F50E0551F629F28
:103C2000F001729FBB27F00DB11D639FAA27F00D15
:103C3000B11DAA1F649F6627B00DA11D661F829F3C
:103C40002227B00DA11D621F739FB00DA11D621F21
:103C5000839FA00D611D221F749F3327A00D611D3E
:103C6000231F849F600D211D822F762F6A2F112420
:103C70009F5750409AF0F1F088234AF0EE0FFF1F53
:103C8000BB1F661F771F881F91505040A9F79E3FAA
:103C9000510580F00C94A31D0C94EE1D5F3FE4F3DE
:103CA000983ED4F3869577956795B795F795E79500
:103CB0009F5FC1F7FE2B880F911D9695879597F909
:103CC0000895A1E21A2EAA1BBB1BFD010DC0AA1F5D
:103CD000BB1FEE1FFF1FA217B307E407F50720F075
:103CE000A21BB30BE40BF50B661F771F881F991FF0
:103CF0001A9469F760957095809590959B01AC0139
:103D0000BD01CF0108950E94941EA59F900DB49F00
:103D1000900DA49F800D911D11240895EE0FFF1F9B
:103D20000590F491E02D0994A29FB001B39FC001CA
:103D3000A39F700D811D1124911DB29F700D811DD7
:103D40001124911D08950F931F93CF93DF93823019
:103D5000910510F482E090E0E0914006F091410678
:103D600030E020E0B0E0A0E0309799F42115310573
:103D700009F44AC0281B390B24303105D8F58A8153
:103D80009B816115710589F1FB0193838283FE019B
:103D900011C0408151810281138148175907E0F019
:103DA0004817590799F4109761F012960C931297DF
:103DB00013961C933296CF01DF91CF911F910F91F3
:103DC00008950093400610934106F4CF2115310564
:103DD00051F04217530738F0A901DB019A01BD01E8
:103DE000DF01F801C1CFEF01F9CF90934106809335
:103DF0004006CDCFFE01E20FF31F81939193225035
:103E0000310939832883D7CF20913E0630913F0670
:103E1000232B41F4209108013091090130933F0692
:103E200020933E06209106013091070121153105AE
:103E300041F42DB73EB740910A0150910B01241B6C
:103E4000350BE0913E06F0913F06E217F307A0F430
:103E50002E1B3F0B2817390778F0AC014E5F5F4FE0
:103E60002417350748F04E0F5F1F50933F064093CD
:103E70003E06819391939FCFF0E0E0E09CCFCF93FB
:103E8000DF930097E9F0FC01329713821282A09130
:103E90004006B0914106ED0130E020E01097A1F41A
:103EA00020813181820F931F20913E0630913F0681
:103EB0002817390709F061C0F0933F06E0933E06EA
:103EC000DF91CF910895EA01CE17DF07E8F54A8127
:103ED0005B819E0141155105B1F7E901FB83EA833E
:103EE00049915991C40FD51FEC17FD0761F48081EA
:103EF00091810296840F951FE901998388838281BD
:103F000093819B838A83F0E0E0E012968D919C91EF
:103F100013970097B9F52D913C911197CD01029619
:103F2000820F931F20913E0630913F0628173907D4
:103F300039F6309751F51092410610924006B09331
:103F40003F06A0933E06BCCFD383C28340815181FC
:103F5000840F951FC817D90761F44E5F5F4F8881A2
:103F60009981480F591F518340838A819B81938394
:103F700082832115310509F0B0CFF0934106E0931B
:103F800040069ECFFD01DC01C0CF13821282D7CF45
:103F9000FB01DC0104C08D910190801921F4415096
:103FA0005040C8F7881B990B0895FB01DC01415074
:103FB000504048F001900D920020C9F701C01D92B9
:103FC00041505040E0F70895F894FFCFFFFFFFFF06
:103FD00002020000420680005249464600000000EE
:103FE00057415645666D7420100000000100010025
:103FF000401F0000401F0000010008006461746160
:1040000000000000000000008701E7001401D40157
:104010004501230137010000000035040804640451
:10402000DE030104EE03DF0300000000FF0DE700E4
:10403000F90B600E00000000B70E9A0E8A0E610E9A
:104040006A0EED0FF70F0D0A0054455354332E77C7
:104050006176005468652070726F6772616D2073BD
:1040600074617274656400534420636172642069F2
:104070006E697469616C697A6174696F6E206661DA
:10408000696C656400496E736964652074686520B5
:1040900073657475705F7265636F7264696E675F74
:1040A00062746E2066756E6374696F6E00496E731C
:1040B000696465207468652073657475705F706CE1
:1040C00061795F62746E2066756E6374696F6E00ED
:1040D0005265636F72642070726573736564005318
:1040E000746172746564205265636F7264696E678F
:1040F00000506C617920707265737365640053744D
:10410000617274656420506C6179696E67004669FC
:0A4110006C65204F70656E65640059
:107E0000112484B714BE81FFF0D085E080938100F7
:107E100082E08093C00088E18093C10086E0809377
:107E2000C20080E18093C4008EE0C9D0259A86E02C
:107E300020E33CEF91E0309385002093840096BBD3
:107E4000B09BFECF1D9AA8958150A9F7CC24DD24C4
:107E500088248394B5E0AB2EA1E19A2EF3E0BF2EE7
:107E6000A2D0813461F49FD0082FAFD0023811F036
:107E7000013811F484E001C083E08DD089C08234E0
:107E800011F484E103C0853419F485E0A6D080C0E4
:107E9000853579F488D0E82EFF2485D0082F10E0AE
:107EA000102F00270E291F29000F111F8ED06801E7
:107EB0006FC0863521F484E090D080E0DECF843638
:107EC00009F040C070D06FD0082F6DD080E0C81688
:107ED00080E7D80618F4F601B7BEE895C0E0D1E017
:107EE00062D089930C17E1F7F0E0CF16F0E7DF06D8
:107EF00018F0F601B7BEE89568D007B600FCFDCFD4
:107F0000A601A0E0B1E02C9130E011968C91119780
:107F100090E0982F8827822B932B1296FA010C0160
:107F200087BEE89511244E5F5F4FF1E0A038BF0790
:107F300051F7F601A7BEE89507B600FCFDCF97BE46
:107F4000E89526C08437B1F42ED02DD0F82E2BD052
:107F50003CD0F601EF2C8F010F5F1F4F84911BD097
:107F6000EA94F801C1F70894C11CD11CFA94CF0C13
:107F7000D11C0EC0853739F428D08EE10CD085E9AC
:107F80000AD08FE07ACF813511F488E018D01DD067
:107F900080E101D065CF982F8091C00085FFFCCF94
:107FA0009093C60008958091C00087FFFCCF809118
:107FB000C00084FD01C0A8958091C6000895E0E648
:107FC000F0E098E1908380830895EDDF803219F02E
:107FD00088E0F5DFFFCF84E1DECF1F93182FE3DFCA
:107FE0001150E9F7F2DF1F91089580E0E8DFEE27F6
:047FF000FF270994CA
:027FFE00040479
:00000001FF
