:020000040000FA
:100000000C9465000C940B170C94F7160C948D004F
:100010000C948D000C948D000C948D000C948D002C
:100020000C948D000C942E170C948D000C941F17BB
:100030000C948D000C948D000C948D000C948D000C
:100040000C948E150C948D000C945C150C94361544
:100050000C948D000C948D000C948D000C948D00EC
:100060000C94D8150C948D007C3C3E5E2B3D3F2FAC
:100070005B5D3B2C2A225C000000000800020100AE
:100080000003040700000000000000000000000062
:10009000250028002B0000000000240027002A0073
:1000A000040404040404040402020202020203031E
:1000B0000303030301020408102040800102040826
:1000C0001020010204081020401711241FBECFEF9A
:1000D000D8E0DEBFCDBF11E0A0E0B1E0E0E8F8E39A
:1000E00002C005900D92AA37B107D9F725E0AAE71B
:1000F000B1E001C01D92A336B207E1F710E0C5E6FA
:10010000D0E004C02197FE010E94DD1AC436D10759
:10011000C9F70E94A7170C943E1C0C940000CF93C3
:10012000DF93FC018281938190934705809346057C
:1001300084819581A681B781809348059093490574
:10014000A0934A05B0934B0580859185A285B38520
:1001500080934C0590934D05A0934E05B0934F05A9
:10016000DF011C96CF014996C0E5D5E02D9129937A
:10017000A817B907D9F7818D928D90935E0580936A
:100180005D0584E495E0DF91CF91089590E0FC0156
:10019000EC54FF4F249180569F4FFC01849188239B
:1001A00099F090E0880F991FFC01EA56FF4FA59146
:1001B000B491FC01E457FF4F859194918FB7F89467
:1001C000EC91E22BEC938FBF089508950895AF92C0
:1001D000BF92CF92DF92EF92FF920F931F93CF9334
:1001E000DF936C017B018B01040F151FEB015E0196
:1001F000AE18BF08C017D10759F06991D601ED912B
:10020000FC910190F081E02DC6010995892B79F7C9
:10021000C501DF91CF911F910F91FF90EF90DF907B
:10022000CF90BF90AF900895FC01538D448D252F42
:1002300030E0842F90E0821B930B541710F0CF9680
:10024000089501970895FC01918D828D981761F0B2
:10025000A28DAE0FBF2FB11D5D968C91928D9F5FC9
:100260009F73928F90E008958FEF9FEF0895FC01A8
:10027000918D828D981731F0828DE80FF11D858D5B
:1002800090E008958FEF9FEF0895FC01918D228DEE
:10029000892F90E0805C9F4F821B91098F73992773
:1002A00008958EE494E00E94450121E0892B09F431
:1002B00020E0822F089580E090E0892B29F00E94B1
:1002C000510181110C9400000895FC01A48DA80F28
:1002D000B92FB11DA35ABF4F2C91848D90E0019688
:1002E0008F739927848FA689B7892C93A089B189A8
:1002F0008C91837080648C93938D848D981306C049
:100300000288F389E02D80818F7D80830895EF92AC
:10031000FF920F931F93CF93DF93EC0181E0888FBF
:100320009B8D8C8D98131AC0E889F989808185FF8F
:1003300015C09FB7F894EE89FF896083E889F98931
:1003400080818370806480839FBF81E090E0DF9133
:10035000CF911F910F91FF90EF900895F62E0B8D86
:1003600010E00F5F1F4F0F731127E02E8C8D8E1141
:100370000CC00FB607FCFACFE889F989808185FFA8
:10038000F5CFCE010E946501F1CFEB8DEC0FFD2F73
:10039000F11DE35AFF4FF0829FB7F8940B8FEA8963
:1003A000FB8980818062CFCFCF93DF93EC01888D72
:1003B0008823B9F0AA89BB89E889F9898C9185FDE0
:1003C00003C0808186FD0DC00FB607FCF7CF8C916E
:1003D00085FFF2CF808185FFEDCFCE010E946501C0
:1003E000E9CFDF91CF91089590E0FC01E858FF4FED
:1003F0002491FC01EC54FF4F3491FC01E056FF4F77
:10040000E491EE23C9F0222339F0233001F1A8F45E
:10041000213019F1223029F1F0E0EE0FFF1FE457EF
:10042000FF4FA591B4918FB7F894EC91611126C05C
:1004300030953E233C938FBF08952730A9F0283094
:10044000C9F0243049F7809180008F7D03C08091EE
:1004500080008F7780938000DFCF84B58F7784BD55
:10046000DBCF84B58F7DFBCF8091B0008F778093F9
:10047000B000D2CF8091B0008F7DF9CF3E2BDACF84
:100480003FB7F8948091EA019091EB01A091EC01C3
:10049000B091ED0126B5A89B05C02F3F19F001963C
:1004A000A11DB11D3FBFBA2FA92F982F8827BC01CE
:1004B000CD01620F711D811D911D42E0660F771FF6
:1004C000881F991F4A95D1F708952FB7F894609126
:1004D000E6017091E7018091E8019091E9012FBF59
:1004E00008952091C201260F3327331F2132310591
:1004F000ECF420912402FC0190E080E0243069F0CB
:1005000082E00895A091C2012191AC014E555E4F49
:10051000A40FB52FB11D2C930196861798F38091E7
:10052000C201680F6093C20180E0089581E00895E0
:100530001092240281E0809323021092FE0161E078
:1005400082E10E94F40161E083E10E94F401E9EBA1
:10055000F0E080818E7F808380818D7F808388E43E
:100560008093B80085E48093BC000895CF93DF9317
:1005700091E09093A1018823B9F0C091B800D09187
:10058000BA008091BC008A7B8093BC0060E082E16D
:100590000E94F40160E083E10E94F4010E9498024D
:1005A000D093BA00C093B800DF91CF9108958F9295
:1005B0009F92AF92BF92CF92DF92EF92FF920F93F2
:1005C0001F93CF93DF93D0914D02D13208F0D7C063
:1005D000182FC0914C020E9440026B017C01809157
:1005E000240281116BC082E08093240210932302C5
:1005F0008FEF8093220210922102D0932002ACE26E
:10060000B2E0E0E0F2E080E0D81391C01092FF0188
:100610008091FF01CC0FC82BC093FF018091FE0198
:10062000813009F088C01092FE010E9440026B01E7
:100630007C018091FF018093BB0080912602909104
:100640002702A0912802B0912902892B8A2B8B2B9B
:10065000A1F00E94400200912602109127022091F1
:100660002802309129026C197D098E099F0906170D
:1006700017072807390708F442C08091BC0083FDA2
:10068000D8CF85EC8093BC000E9440026B017C01B6
:1006900080912402823009F450C0809122028F3F61
:1006A00009F46FC080912202803209F46CC08091FD
:1006B0002202803309F469C084E026C080912602BA
:1006C00090912702A0912802B0912902892B8A2BB0
:1006D0008B2B09F484CF0E944002809026029090D8
:1006E0002702A0902802B09029026C197D098E097A
:1006F0009F0986169706A806B90608F070CF809164
:1007000025020E94B60285E010922B0210924D0243
:1007100010922A02DF91CF911F910F91FF90EF90DD
:10072000DF90CF90BF90AF909F908F9008959D9154
:1007300091938F5F69CF85EEA5CF8091260290912E
:100740002702A0912802B0912902892B8A2B8B2B9A
:1007500009F49ECF0E9440020091260210912702C8
:1007600020912802309129026C197D098E099F0978
:10077000061717072807390708F08ACFC0CF81E08E
:10078000C3CF80E0C1CF82E0BFCF83E0BDCF08956B
:10079000E091F4018091F301E81730F4F0E0EF57B5
:1007A000FE4F808190E008958FEF9FEF0895909124
:1007B000F4018091F3012FEF3FEF981748F4E92FF0
:1007C000F0E0EF57FE4F208130E09F5F9093F401FF
:1007D000C90108958091F3019091F401891B990B4F
:1007E0000895CF92DF92EF92FF920F931F93CF93D2
:1007F000DF937C01CB018A0120912A02222389F018
:10080000EB016B01C40ED51ECC15DD0569F06991B5
:10081000D701ED91FC910190F081E02DC701099580
:10082000F3CF642F0E947102C801DF91CF911F9115
:100830000F91FF90EF90DF90CF900895CF93DF93CB
:100840001F92CDB7DEB7698320912A022223F9F0E7
:1008500020914D02203258F021E030E0FC0133833A
:10086000228390E080E00F90DF91CF9108958091F6
:100870002B02E82FF0E0E45DFD4F998190838F5FBC
:1008800080932B0280934D0281E090E0ECCF61E0F9
:10089000CE0101960E947102F7CF90E080E00895AA
:1008A000CF93DF93EC018B818823A1F0888191E0C5
:1008B00090932A0280934C0210922B0210924D02C8
:1008C00081E00E94D70291E0811190E0892FDF91B1
:1008D000CF9108951092F4011092F30110922B021F
:1008E00010924D020E94980285EE90E09093F201E2
:1008F0008093F10186EE90E09093F0018093EF01F8
:1009000081E08B83CE010E945004982F8111CECFBD
:10091000DDCF8FB7F89480917B018FBF089561E0A0
:10092000FC0184810E94F40180917A01811110926E
:100930007A0108958EBD00000DB407FEFDCF8EB57F
:1009400008958FEF0C949A040F931F93CF93DF9326
:10095000EC010E9465028B010E94A1048F3F69F0A7
:100960000E946502601B710B6C177D07A8F380E085
:10097000DF91CF911F910F91089581E0F9CF8CBD48
:100980009DBD0895CF93DF93EC0180917A01811191
:1009900009C081E080937A018091F7049091F80476
:1009A0000E94BF0460E08C81DF91CF910C94F40130
:1009B0008F929F92AF92BF92FF920F931F93CF930C
:1009C000DF93EC01F62E49015A018E81882389F0CC
:1009D0008F8198859C012F5F3F4F38872F8382300E
:1009E000924018F40E94A104F3CFCE010E948F041C
:1009F0001E82CE010E94C2048CE291E00E94A404F7
:100A00008F2D80640E949A0408E110E0D501C40192
:100A1000002E04C0B695A795979587950A94D2F7AE
:100A20000E949A0408501109083F8FEF180771F7C8
:100A300085E9FF2021F028E087E8F2128FEF0E947D
:100A40009A0410E00E94A1048A8787FF04C01F3F18
:100A500011F01F5FF7CFDF91CF911F910F91FF90A2
:100A6000BF90AF909F908F900895AF92BF92CF921A
:100A7000DF92EF92FF920F931F93CF93DF93EC01DE
:100A80006901C801820F931F8130924050F58E8119
:100A9000882379F088819981AA81BB818417950781
:100AA000A607B70731F48F819885C816D90608F0D4
:100AB00042C0488359836A837B838B85833039F0B6
:100AC00089E0440F551F661F771F8A95D1F79A0159
:100AD000AB0161E1CE010E94D804882389F083E054
:100AE0008D83CE010E948F0480E0DF91CF911F9112
:100AF0000F91FF90EF90DF90CF90BF90AF9008954F
:100B00000E9465025B010E94A1048A878F3F69F4FD
:100B10000E9465026A197B096D327140A0F38FE073
:100B20008D83CE010E948F04DCCF8E3F89F418861E
:100B30001F8281E08E838F8198858C159D0550F4EE
:100B40000E94A1048F819885019698878F83F3CFA7
:100B50008DE0E6CF6701E00EF11E0E94A104F601D0
:100B600081936F01EE15FF05C1F78F819885080FFE
:100B7000191F18870F838985882319F001151240E2
:100B8000A0F08E81882389F08F8198859C012F5F4A
:100B90003F4F38872F838230924018F40E94A1047F
:100BA000F3CFCE010E948F041E8281E09ECFCF92B0
:100BB000DF92EF92FF920F93CF93DF93EC016901E5
:100BC00082E1411551056105710599F08B858330EE
:100BD00039F089E0440F551F661F771F8A95D1F7BA
:100BE0009A01AB0168E1CE010E94D804882319F074
:100BF00084E08D832DC08EEF0E949A0476018EEFE3
:100C0000D81AF70181917F010E949A04EC14FD0427
:100C1000C1F78FEF0E949A048FEF0E949A040E94FE
:100C2000A1048A878F71853071F4011116C0CE013D
:100C30000E948F0481E0DF91CF910F91FF90EF90A0
:100C4000DF90CF90089581E18D83CE010E948F04C3
:100C5000CE010E948F0480E0EECF88E592E00E94F2
:100C6000A404811102C085E1C4CF20E030E0A901D5
:100C70006DE0CE010E94D804882311F084E1B9CF41
:100C80000E94A1048111FACFD2CF0F9340917D0130
:100C900050917E0160917F01709180014115510555
:100CA0006105710599F0082F2EE432E08091FC0176
:100CB0009091FD010E94D705882349F010927D0193
:100CC00010927E0110927F011092800181E00F91BD
:100CD00008950F93CF93C82F80917C01811105C097
:100CE000C1E08C2FCF910F91089540910001509158
:100CF000010160910201709103010C2F2EE432E09A
:100D00008091FC019091FD010E94D705811102C0E4
:100D1000C0E0E7CFCC2321F381E00E944506882381
:100D2000B9F310927C01DDCF8F929F92AF92BF9268
:100D3000EF92FF920F931F93CF934B015C01C42F4F
:100D40008091000190910101A0910201B0910301F5
:100D500088159905AA05BB0551F181E00E94690635
:100D600081110BC080E0CF911F910F91FF90EF9008
:100D7000BF90AF909F908F9008958EE4E82E82E010
:100D8000F82E00E012E030E020E0B501A4018091EF
:100D9000FC019091FD010E943505882319F3809292
:100DA000000190920101A0920201B09203014091D2
:100DB0007C014C2B40937C0181E0D5CFCF93DF9316
:100DC000EC016E857F858889998941E00E949406AF
:100DD000882351F08A8920E2829FC0011124825B1E
:100DE0009D4FDF91CF91089590E080E0FACF8F92F0
:100DF0009F92AF92BF92CF92DF92EF92FF92CF93EA
:100E000029EF34E03093FD012093FC01882309F49D
:100E10006DC040E060E070E0CB010E94940681115B
:100E20000BC080E0CF91FF90EF90DF90CF90BF900C
:100E3000AF909F908F90089580910C048F7789F7E1
:100E40008091180490911904A0911A04B0911B0488
:100E500084369105A105B10520F3C0901404D0900B
:100E60001504E0901604F0901704C114D104E104B5
:100E7000F104B9F240E0C701B6010E94940688234C
:100E800081F28091590290915A028115924049F65F
:100E9000A0915E02AA2329F260915C0270915D022A
:100EA0006115710509F4BDCF20915B02222309F47D
:100EB000B8CFA09317052093090590E080E030E0BB
:100EC000E1E0F0E0C82FAF01082E02C0440F551F2B
:100ED0000A94E2F72417350769F041E0480F0196BC
:100EE0008930910579F7409312059BCFC12CD12C05
:100EF0007601C0CF80931205209164023091650283
:100F000050E040E02115310541F42091720230910A
:100F10007302409174025091750220930A05309338
:100F20000B0540930C0550930D0546015701860EA5
:100F3000971EA11CB11C8092180590921905A092D1
:100F40001A05B0921B05E0915F02F0916002F093E8
:100F50001E05E0931D05B0E00E94D21ADC01CB0112
:100F6000880D991DAA1DBB1D80931F059093200518
:100F7000A0932105B093220525E0EE0FFF1F2A95CF
:100F8000E1F7E150FE4FEF2FFF27E6958E0F9F1FF1
:100F9000A11DB11D8093130590931405A093150511
:100FA000B09316058090610290906202B12CA12C42
:100FB0008114910441F480906E0290906F02A09091
:100FC0007002B0907102C81AD90AEA0AFB0AC80C6A
:100FD000D91CEA1CFB1C04C0F694E794D794C79470
:100FE000CA95D2F7C0920E05D0920F05E092100577
:100FF000F092110585EFC8168FE0D806E104F104E0
:1010000028F48CE080931C0581E00CCF80E125EF73
:10101000C2162FEFD206E104F104A0F380917A0208
:1010200090917B02A0917C02B0917D0280931F057C
:1010300090932005A0932105B093220580E2E2CF92
:101040004F925F926F927F928F929F92AF92BF92D8
:10105000CF92DF92EF92FF920F931F93CF93DF9384
:10106000EC01423051056105710590F480E0DF919B
:10107000CF911F910F91FF90EF90DF90CF90BF9095
:10108000AF909F908F907F906F905F904F9008955A
:1010900089859A85AB85BC850196A11DB11D8417F4
:1010A0009507A607B70710F3CB88DC88ED88FE8884
:1010B0008F89803109F042C0BB27A72F962F852F3B
:1010C000480159012A013B01C80ED91EEA1EFB1E28
:1010D0008091000190910101A0910201B091030162
:1010E000C816D906EA06FB0699F58F898031C1F545
:1010F000B301A201552766277727440F551F425B8E
:101100005D4FFA019182808280917C0181608093A1
:101110007C018A89823080F08D819E81AF81B88583
:101120008C0D9D1DAE1DBF1D80937D0190937E0192
:10113000A0937F01B093800181E099CFDB01CA01C8
:10114000E7E0B695A79597958795EA95D1F7B8CF3B
:1011500040E0C701B6010E9494068111C6CF86CF38
:10116000B301A2014F77552766277727440F551FF4
:10117000440F551F425B5D4FFA0180829182A2822B
:10118000B382C2CF8F929F92AF92BF92CF92DF92E3
:10119000EF92FF920F931F93CF93DF93FC01818512
:1011A0009285A385B4850196A11DB11D841795076D
:1011B000A607B70770F480E0DF91CF911F910F91E0
:1011C000FF90EF90DF90CF90BF90AF909F908F9067
:1011D000089583889488A588B6888789803189F5A1
:1011E000BB27A72F962F852FE9016A017B018F016D
:1011F000BC01CD01680D791D8A1D9B1D80900001E9
:1012000090900101A0900201B0900301861697060C
:10121000A806B90601F5F8018789803111F5DD24AA
:10122000EE24FF24F601EE0FFF1FE25BFD4F8081ED
:101230009181B0E0A0E088839983AA83BB8381E099
:10124000BBCFDB01CA01C7E0B695A79597958795F7
:10125000CA95D1F7C9CF40E00E9494068111DBCF37
:10126000AACFE894C7F8DD24EE24FF24F601EE0FA0
:10127000FF1FEE0FFF1FE25BFD4F80819181A28176
:10128000B381BF70D8CF4F925F926F927F92AF922F
:10129000BF92CF92DF92EF92FF920F931F93CF9363
:1012A000DF9300D000D0CDB7DEB78C0149835A83DD
:1012B0006B837C835901C12CD12C7601412C82E0B7
:1012C000582E612C712C49815A816B817C819E0141
:1012D0002F5F3F4FC8010E94C208882339F1F801EF
:1012E0008585A301920104C0220F331F441F551F9F
:1012F0008A95D2F7DA01C901C80ED91EEA1EFB1E73
:1013000049815A816B817C818789803111F188EF15
:101310009FEFAFEFBFE0481759076A077B0798F2C6
:10132000F501C082D182E282F38281E00F900F90BA
:101330000F900F90DF91CF911F910F91FF90EF9041
:10134000DF90CF90BF90AF907F906F905F904F9065
:10135000089588EF9FEFA0E0B0E0DDCFCF93DF935B
:10136000FC012581222321F080E0DF91CF910895B7
:10137000EC0180911C05803159F582E08583178A44
:10138000108E118E128E80911D0590911E05B0E079
:10139000A0E025E0880F991FAA1FBB1F2A95D1F74F
:1013A000838B948BA58BB68B85E095E09C8F8B8F80
:1013B00081E08C831E821F82188619861A861B86FE
:1013C0001C861D861E861F86188A198A1A8ACDCF0A
:1013D000803251F683E0858340911F0550912005AE
:1013E0006091210570912205478B508F618F728F1C
:1013F0009F012D5E3F4F85E095E00E9443098111DA
:10140000D3CFB2CF8F929F92AF92BF92CF92DF9203
:10141000EF92FF920F931F93CF93DF93EC018D8197
:1014200081110EC080E0DF91CF911F910F91FF904D
:10143000EF90DF90CF90BF90AF909F908F900895E6
:101440000B891C892D893E89041715072607370744
:1014500048F34A015B01823031F48A869B86AC8670
:10146000BD8681E0E0CF81149104A104B10449F468
:101470001E821F82188619861A861B861C861D8668
:10148000F0CF0A851B852C853D85EB8DFC8D8585F0
:1014900090E00996B901A80141505109610971090B
:1014A000082E04C076956795579547950A94D2F70C
:1014B00075016401E1E0CE1AD108E108F10804C029
:1014C000F694E794D794C7948A95D2F7C416D506B4
:1014D000E606F70620F0012B022B032B11F58F896E
:1014E000988DA98DBA8D8E839F83A887B9878E0129
:1014F0000A5F1F4FC114D104E104F10409F4ADCF18
:101500004E815F816885798598018B8D9C8D0E94C5
:10151000C20891E0C91AD108E108F1088111EACFA7
:1015200081CFC41AD50AE60AF70AE1CF3F924F925B
:101530005F926F927F928F929F92AF92BF92CF9263
:10154000DF92EF92FF920F931F93CF93DF93CDB76C
:10155000DEB72C970FB6F894DEBF0FBECDBF5C018F
:10156000DC015B968D909C905C9716964D905D90FB
:101570006D907C901997411451046104710409F431
:1015800068C0BFEF4B1A5B0A6B0A7B0A312CF4016F
:1015900081859285A385B4859C01AD012F5F3F4F66
:1015A0004F4F5F4F29873A874B875C8773016201F2
:1015B0001D821E821F821886F40181859285A38573
:1015C000B4852D813E814F815885281739074A07F8
:1015D0005B0708F056C089859A85AB85BC858C155C
:1015E0009D05AE05BF0550F482E0C82ED12CE12C3C
:1015F000F12C92E0492E512C612C712C9E012F5F11
:101600003F4FB701A601C4010E94C2088823C9F157
:1016100089819A81AB81BC81892B8A2B8B2B09F123
:10162000260137019FEF491A590A690A790A2D8163
:101630003E814F8158852F5F3F4F4F4F5F4F2D8326
:101640003E834F8358873FEFC31AD30AE30AF30A56
:10165000B3CFF4014080518062807380332433948F
:1016600096CFC414D504E604F70409F70FEF1FEF73
:101670002FEF3FE0B701A601C4010E9420088111AD
:1016800019C080E02C960FB6F894DEBF0FBECDBF18
:10169000DF91CF911F910F91FF90EF90DF90CF904E
:1016A000BF90AF909F908F907F906F905F904F9082
:1016B0003F900895D50116964D915D916D917C9165
:1016C0001997411551056105710539F0970186019A
:1016D000C4010E9420088823A1F2D5011696CD925C
:1016E000DD92ED92FC921997332051F0D701C6019B
:1016F0000196A11DB11DF40180839183A283B38360
:10170000F5018789908DA18DB28D892B8A2B8B2B2A
:1017100039F48481C78AD08EE18EF28E806884830A
:10172000F50184818062848381E0ACCF1F93CF93E5
:10173000DF93FC012581222371F1162FEC018481B6
:1017400087FF1EC0CF010E94DE06FC01892B19F124
:101750008D81823040F48B899C89AD89BE89848FCC
:10176000958FA68FB78F8F89988D938F828F8F8952
:10177000988DA98DBA8DB58BA48B8C818F778C8336
:10178000111103C08C818F7E8C83812FDF91CF91CB
:101790001F910C94690680E0DF91CF911F9108950D
:1017A000FF920F931F93CF93DF93EC018D818130D4
:1017B00041F090E080E0DF91CF911F910F91FF9079
:1017C00008958C8181FFF5CF82FD1BC00091FC0143
:1017D0001091FD01C8010E94C2040E94A104F82ECC
:1017E000C8010E948F048FEFF812E3CF8C8185FF30
:1017F0001BC060E0CE010E94960B8C818F7D8C8394
:10180000D8CF4B895C896D897E898A859B85AC851B
:10181000BD8584179507A607B707C1F2CE010E94C0
:10182000020A8111D3CFC5CF40917D0150917E0135
:1018300060917F0170918001452B462B472B21F051
:1018400080E00E944506B5CF80618C832A853B8568
:10185000317080E092E0821B930BADCFCF93DF938A
:10186000EC0161E00E94960B882311F01D8281E05B
:10187000DF91CF9108952F923F924F925F926F9296
:101880007F928F929F92AF92BF92CF92DF92EF9210
:10189000FF920F931F93CF93DF9300D000D01F923E
:1018A000CDB7DEB77C015B01342E5D83DC0115967C
:1018B0008C911597813009F0CEC014962C9021FEA2
:1018C000CAC022FCB4C0C32CDD8022947FE0272252
:1018D0002094B22DB1702B2ED7011A964D915D91A7
:1018E0006D917C911D97C114D10409F428C15B96B8
:1018F0008D919C915C97FC0174807A948A019B0184
:1019000069E036952795179507956A95D1F7702266
:101910008A011170711020C001151105E9F41696A5
:101920004D915D916D917C9119974115510561051E
:10193000710509F099C057968D919D910D90BC91BC
:10194000A02D0097A105B10509F0B0C0C7010E9404
:10195000960A882309F47FC080E092E0801B910BF7
:1019600046018C159D0508F44C01D7015B964D91FD
:101970005C915C9716968D919D910D90BC91A02DD8
:101980000297A109B109FA01258504C0880F991FA2
:10199000AA1FBB1F2A95D2F7468557856089718992
:1019A000840F951FA61FB71F9C01AD01270D311D88
:1019B000411D511D29013A01811432E0930609F0BD
:1019C0007BC08091000190910101A0910201B09132
:1019D000030184159505A605B70559F48FEF9FEF10
:1019E000DC018093000190930101A0930201B09368
:1019F0000301022D9501B301A2018091FC01909198
:101A0000FD010E94D705882331F19EEFB91AC8184D
:101A1000D908F70182859385A485B585880D991D20
:101A2000A11DB11D82879387A487B58755CFF70184
:101A3000438954896589768982859385A485B5858E
:101A4000481759076A077B0709F43DCFC7010E9471
:101A5000020A811138CF81E090E0D70113969C9360
:101A60008E93129780E007C09E012F5F3F4F0E9428
:101A7000C208811102C090E079C089819A81AB814E
:101A8000BC81F701238D348DF901278948EF5FEF81
:101A900060E070E0203121F048EF5FEF6FEF7FE012
:101AA00084179507A607B70708F050CFF70186837C
:101AB0009783A087B18750CF0115110599F5D701FC
:101AC0001A964D915D916D917C911D9753968D91D4
:101AD0009D910D90BC91A02D481759076A077B076F
:101AE00008F181E00E946906882309F4B4CF40928E
:101AF00000015092010160920201709203018091F5
:101B00007C01816080937C01C801825B9D4FD5017F
:101B10009C01280D391DFC012E173F0759F04D91EE
:101B20004193FACF41E0C301B2010E9494068111B2
:101B3000EBCF91CF281B390BA20EB31E68CFF70154
:101B400083899489A589B68984179507A607B7075D
:101B500038F48481438B548B658B768B80688483C7
:101B6000F701848183FD1AC0832D9D810F900F9012
:101B70000F900F900F90DF91CF911F910F91FF90D9
:101B8000EF90DF90CF90BF90AF909F908F907F901D
:101B90006F905F904F903F902F90089561E0C70144
:101BA0000E94960B882309F456CFDECFCF93DF93A4
:101BB0001F92CDB7DEB7698341E050E0BE016F5F91
:101BC0007F4F0E943B0C0F90DF91CF910895FC0155
:101BD000DB0112968D919C9113979383828382E30C
:101BE00091E09183808314968C9114978483159649
:101BF0008C911597858316964D915D916D917C9191
:101C0000199746835783608771871A964D915D9126
:101C10006D917C911D9742875387648775871E96C7
:101C20004D915D916D917C91519746875787608B5F
:101C3000718B52968C915297828B53964D915D91F8
:101C40006D917C915697438B548B658B768B579611
:101C50004D915D916D917C915A97478B508F618F1B
:101C6000728F5B968D919C91948F838F08950895C8
:101C7000FC01818D928D009719F061E00C94960B18
:101C80000895DC015996ED91FC913097B9F0838964
:101C90009489A589B6894285538564857585841B99
:101CA000950BA60BB70B811520E89207A105B1058E
:101CB00038F08FEF9FE7A0E0B0E0089590E080E07B
:101CC0000895DC0159968D919C91009739F0DC01C3
:101CD000ED91FC910480F581E02D099490E080E085
:101CE0000895CF93DF93EC01E98DFA8D309749F495
:101CF00081E090E09B838A8390E080E0DF91CF9148
:101D0000089513821282898D9A8D0E943B0CE98D71
:101D1000FA8D22813381232B59F7F0CFCF93DF93B4
:101D20001F92CDB7DEB76983DC01ED91FC91028093
:101D3000F381E02D41E050E0BE016F5F7F4F0995D8
:101D40000F90DF91CF9108952F923F924F925F9223
:101D50006F927F928F929F92AF92BF92CF92DF92BB
:101D6000EF92FF920F931F93CF93DF9300D01F92B8
:101D7000CDB7DEB7FC018581811118C08FEF9FEFD1
:101D80000F900F900F90DF91CF911F910F91FF90C7
:101D9000EF90DF90CF90BF90AF909F908F907F900B
:101DA0006F905F904F903F902F900895848180FFB7
:101DB000E5CF438954896589768982859385A48591
:101DC000B585312C212C481759076A077B0719F074
:101DD00022242394312C6F012101CE0101963C0174
:101DE000DF011696BB83AA834114510409F4C5C0D0
:101DF000F60142855385648575854A01F1E09F228D
:101E0000D6015B968D919C915C978A019B01E9E0DC
:101E10003695279517950795EA95D1F71596EC9184
:101E2000E230E9F5FC01628D738D848D958D600F34
:101E3000711F821F931FA12C22E0B22EA818B9088F
:101E40004A145B0408F45201F601248126FD04C003
:101E5000A114F2E0BF0671F400910001109101019C
:101E6000209102013091030106171707280739074F
:101E700009F05EC040E00E949406882309F47ECFFA
:101E8000C401825B9D4FD3019C012A0D3B1DFC01C7
:101E90002E173F0709F46CC041914D93F9CFDC0137
:101EA0001496BC90BA94B0228114910479F4B110C4
:101EB0000DC0452B462B472B69F5F6018789908D80
:101EC000A18DB28D86839783A087B187D6015B965B
:101ED000ED91FC915C9716966D917D918D919C9101
:101EE00019976250710981099109258504C0660F0F
:101EF000771F881F991F2A95D2F706851785208995
:101F00003189600F711F821F931F6B0D711D811D21
:101F1000911D91CFD60116964D915D916D917C9159
:101F200019972A813B810E94C2088111CFCF26CF09
:101F3000730185019401AB01BC018091FC0190917A
:101F4000FD010E943505882309F418CF6A0C7B1C1B
:101F5000F60182859385A485B5858A0D9B1DA11DFB
:101F6000B11D82879387A487B5874A185B083CCF49
:101F7000281B390B620E731EEBCF2A94232809F01D
:101F8000FDCE898190E0FCCEFC01818D928D009781
:101F900011F00C94A40E8FEF9FEF08950F931F93F1
:101FA000CF93DF93EC01898D9A8D10E000E00097CC
:101FB00099F00E94A40E8C010F3F100769F0898DE3
:101FC0009A8DFC0142855385648575854150510980
:101FD000610971090E94020AC801DF91CF911F9126
:101FE0000F9108958F929F92AF92BF92CF92DF92FE
:101FF000EF92FF920F931F93CF93DF9300D000D007
:10200000CDB7DEB7FC018581813091F080E00F9083
:102010000F900F900F90DF91CF911F910F91FF9034
:10202000EF90DF90CF90BF90AF909F908F900895EA
:10203000848181FFEBCF83899489A589B689892B17
:102040008A2B8B2B09F45FC07F0140E050E0BA017E
:10205000CF010E94020A8823C9F2F701C38CD48CF5
:102060008788908CA18CB28C82E090E0A0E0B0E0F8
:10207000F60180839183A283B3839E012F5F3F4F3C
:10208000B501A401C6010E94C208882309F4BECF8D
:1020900000E010E09801B501A401C6010E942008EB
:1020A000882309F4B3CF89809A80AB80BC80F60185
:1020B0008789803119F188EF9FEFAFEFBFE0881675
:1020C0009906AA06BB06C8F2F701178A108E118E70
:1020D000128E138A148A158A168A848180688483F2
:1020E00061E0C7010E94960B882309F48FCF40E07E
:1020F00050E0BA01C7010E94020A89CF88EF9FEF22
:10210000A0E0B0E0DCCF81E082CFCF92DF92EF920F
:10211000FF921F93CF93DF93EC0180E2689FF00161
:102120001124E25BFD4F9385917161F0842F8274DD
:1021300049F080E0DF91CF911F91FF90EF90DF9009
:10214000CF900895142F6A8B809100019091010126
:10215000A0910201B09103018E879F87A88BB98B54
:10216000C488D588F12CE12C7601DD24CC24CF8ADB
:10217000D88EE98EFA8E828D938DB0E0A0E0AC010E
:10218000BD014C295D296E297F294F8B588F698F9E
:102190007A8F83858871B1F4848D958DA68DB78DE6
:1021A0008B8B9C8BAD8BBE8B81E08D831F701C83D2
:1021B0001E821F82188619861A861B861C861D861B
:1021C00081E0B8CF803109F0B4CF9E012D5E3F4F42
:1021D0008B8D9C8D0E944309882309F4AACF84E04B
:1021E000E4CF80915D0590915E05009761F00E94BB
:1021F0002E0C80915D0590915E050E948E1B1092C1
:102200005E0510925D051092800010928100109280
:10221000820010926F001BB81AB8089585ED809364
:10222000BC008091260290912702A0912802B091D3
:1022300029020796A11DB11D23E0B695A795979594
:1022400087952A95D1F72091BC0024FD03C01092F8
:10225000240208954091260250912702609128029D
:1022600070912902452B462B472B69F30097A10556
:10227000B10541F025E32A95F1F700000197A10986
:10228000B109E1CF809125020C94B6023F924F92A2
:102290005F926F927F928F929F92AF92BF92CF92F6
:1022A000DF92EF92FF920F931F93CF93DF93CDB7FF
:1022B000DEB72B970FB6F894DEBF0FBECDBF7C0103
:1022C000DC0115968C91811115C0FE013196CE016D
:1022D0000C966F0130E23193E817F907E1F7DA0164
:1022E00030E087E09D91B92E992329F19E3239F48F
:1022F0008A3011F480E0DAC038E08AE0F3CFE8E613
:10230000F0E04491442321F031969413FACFF2CFB8
:10231000831780F34FED490F4E3560F74FE9490FB2
:102320004A3118F440EEB42EB90EF601E30FF11D58
:10233000B0823F5FD7CF89818032E1F2322E8B01AC
:10234000FB01838D948DD7015C969C938E935B9754
:1023500016821782108611861286138614861586B9
:10236000F80182859385A485B5854389548965895B
:10237000768984179507A607B70708F04DC025E0B2
:10238000B695A795979587952A95D1F7F82FFF7061
:10239000AF2ED80115968C91823008F4ABCFC801CE
:1023A0000E94A40E97FDA6CFF80182859385A4858F
:1023B000B5854F96A11DB11D82879387A487B587E8
:1023C000F0E2AF9EB0011124625B7D4F6115710593
:1023D00009F490CFDB018C91882341F0853E09F010
:1023E00058C0BB2029F0BB24B394BACFB1100EC0A3
:1023F000F701A28A8091000190910101A091020150
:10240000B091030186879787A08BB18BDB018C91FC
:102410008111E9CFBB24B394832D8271823109F0FD
:1024200069CFBB2009F45AC0C7010E94DE0600979D
:1024300009F460CF20E2FC0111922A95E9F72BE024
:10244000F601DC0101900D922A95E1F721E238E2D4
:10245000DC0151963C932E93509740E058E01F9634
:102460005C934E931E9753963C932E935297599696
:102470003C932E93589757965C934E93569781E0D2
:102480000E946906882309F435CF432DF70162893C
:102490000AC04BE050E0C6010E94171C892B09F0CE
:1024A0005FCF432D6A2DC7010E9485102B960FB672
:1024B000F894DEBF0FBECDBFDF91CF911F910F917A
:1024C000FF90EF90DF90CF90BF90AF909F908F9054
:1024D0007F906F905F904F903F900895F8018581B5
:1024E000823009F407CFC8010E94960A882309F4B4
:1024F00001CFD8015B96ED91FC915C9716968D907B
:102500009D90AD90BC901997B2E08B1A9108A108EC
:10251000B108858504C0880C991CAA1CBB1C8A952F
:10252000D2F786859785A089B189880E991EAA1E43
:10253000BB1E848124013501480E511C611C711C95
:1025400084149504A604B70409F1E1E04E1A510879
:102550006108710881E00E946906882309F4CACEE7
:10256000EEE4F2E011928EE494E08E179F07D1F72B
:1025700040920001509201016092020170920301A9
:1025800080917C01816080937C01DACFD8015B96D9
:10259000ED91FC91258580E092E0A0E0B0E004C0E0
:1025A000880F991FAA1FBB1F2A95D2F7F8014389EC
:1025B000548965897689840F951FA61FB71F838B61
:1025C000948BA58BB68BD70152961C928EE492E029
:1025D00031CF7F928F929F92AF92BF92CF92DF9234
:1025E000EF92FF920F931F93CF93DF93CDB7DEB798
:1025F000C754D1090FB6F894DEBF0FBECDBF5C0142
:1026000019A218A282E391E09F8F8E8F1BA21C82D9
:102610001B829A8389831E82912C812C7E018EE1FC
:10262000E80EF11C03E215E0C401F401E45BFE4F87
:1026300020812F3209F40196DC01A45BBE4FFE011C
:10264000FB9630E020E06F014D914F3249F044237A
:1026500039F001962F5F3F4F41932C303105A1F7A0
:102660002C0D3D1DF9011082FC01E45BFE4F208121
:102670002F3209F401964C01FC01E45BFE4F70809F
:1026800041E0711040E030E020E0B601C801F50102
:10269000099581111EC0F5E003321F07B1F480E0F7
:1026A000C95BDF4F0FB6F894DEBF0FBECDBFDF9121
:1026B000CF911F910F91FF90EF90DF90CF90BF903F
:1026C000AF909F908F907F900895C8010E942E0C2C
:1026D000E6CF772089F021E0A601B801C7010E946A
:1026E0004611D82E85E00332180779F0C8010E9400
:1026F0002E0CD1100FC0D3CFE5E003321E0719F026
:10270000C8010E942E0C81E0CBCFDD2041F28E016A
:102710000F5F1F4F902F812F8701E92EF82E84CF56
:102720001F93CF93DF93CDB7DEB76D970FB6F894B5
:10273000DEBF0FBECDBFAB011C821B8222E331E0A6
:102740003A8329831E8221E0BC01CE0101960E94BA
:10275000461111E081110CC010E0812F6D960FB66B
:10276000F894DEBF0FBECDBFDF91CF911F910895CA
:10277000CE0101960E942E0CF0CFCF93DF93CDB700
:10278000DEB76D970FB6F894DEBF0FBECDBF442302
:1027900099F1AB01BC011C821B8282E391E09A8318
:1027A00089831E8222E0CE0101960E94461181118A
:1027B0000EC090E081E0911101C080E06D960FB6EF
:1027C000F894DEBF0FBECDBFDF91CF910895CE014B
:1027D00001960E94F20F882361F3CE0101960E94B8
:1027E000DE06009731F325EEFC0120831E8281E096
:1027F0000E946906982FDECF81E0E0CFEF92FF9232
:102800000F931F93CF93DF93EC017B018A011B820F
:102810001A8288EE93E0A0E0B0E08C839D83AE83C3
:10282000BF838EE391E0998388838DE190E00E94DD
:10283000F21A9A8F898F009779F02DE1F701DC0168
:1028400001900D922A95E1F74CE050E0B801CE01DD
:102850000C960E942F1C188EDF91CF911F910F9123
:10286000FF90EF9008952F923F924F925F926F9258
:102870007F928F929F92AF92BF92CF92DF92EF9210
:10288000FF920F931F93CF93DF93CDB7DEB7C75659
:10289000D1090FB6F894DEBF0FBECDBF5C013B017E
:1028A000A6964FAFA69719A218A282E391E09F8F38
:1028B0008E8F1BA21C821B829A8389831E824E01EB
:1028C0008EE1880E911CC4010E94AE0963018E0145
:1028D0000F5F1F4F240118016FE270E0C6010E94D4
:1028E000241C009709F459C0F60120812F3271F49D
:1028F000FFEFCF1ADF0A902F812F8201492E582E29
:10290000942D852D2801092F182FE6CF8C198D3095
:1029100008F08CE0E82EF12CA701B601CE01885A10
:102920009F4F0E942F1CE8E5F0E0EC0FFD1FEE0D1D
:10293000FF1D1082C8010E942E0C21E0AE01485AF2
:102940005F4FB201C8010E944611811120C01EAE26
:102950001DAE82E391E09CAF8BAF21961FAE219715
:10296000A896EEADFFADA8976E0E7F1EF301808195
:10297000811120C0BE01655C7F4FC1010E94E70D3F
:1029800046E551E0B101C5010E94FE1331C0CE0CF5
:10299000DF1CC2010E942E0CB3CFC6018619970915
:1029A000A8969FAF8EAFA897B201CE01CB960E949A
:1029B000E70DD6CF19A218A282E391E09F8F8E8FE8
:1029C0001BA221968FAD219781112DC0F501138295
:1029D000128288EE93E0A0E0B0E084839583A68322
:1029E000B7838EE391E091838083128E118E1486DB
:1029F000C501C959DF4F0FB6F894DEBF0FBECDBF7A
:102A0000DF91CF911F910F91FF90EF90DF90CF90CA
:102A1000BF90AF909F908F907F906F905F904F90FE
:102A20003F902F900895A6962FADA697A301BE01C3
:102A3000655C7F4FC4010E944611882339F2CE01A4
:102A4000CB960E942E0CA6968FADA69786708630E8
:102A500039F449A95AA96BA97CA9C4010E94020AA8
:102A6000B401C1010E94E70DA3018CCF1F920F9208
:102A70000FB60F9211242F933F934F935F936F9351
:102A80007F938F939F93AF93BF93EF93FF938EE4C6
:102A900094E00E946501FF91EF91BF91AF919F91EA
:102AA0008F917F916F915F914F913F912F910F90F7
:102AB0000FBE0F901F9018951F920F920FB60F9296
:102AC00011242F938F939F93EF93FF93E0915E04D4
:102AD000F0915F048081E0916404F091650482FDCF
:102AE0001BC09081809167048F5F8F732091680471
:102AF000821741F0E0916704F0E0E25BFB4F958FB5
:102B000080936704FF91EF919F918F912F910F9088
:102B10000FBE0F901F9018958081F4CF1F920F92D7
:102B20000FB60F9211242F933F938F939F93AF93E0
:102B3000BF938091E6019091E701A091E801B091E7
:102B4000E9013091E50123E0230F2D3758F5019677
:102B5000A11DB11D2093E5018093E6019093E7014B
:102B6000A093E801B093E9018091EA019091EB0113
:102B7000A091EC01B091ED010196A11DB11D8093D2
:102B8000EA019093EB01A093EC01B093ED01BF91AA
:102B9000AF919F918F913F912F910F900FBE0F900A
:102BA0001F90189526E8230F0296A11DB11DD2CFC4
:102BB0001F920F920FB60F9211242F933F934F93B2
:102BC0005F936F937F938F939F93AF93BF93EF9395
:102BD000FF938091B900887F803609F44AC0F0F5F0
:102BE000883209F4A7C018F5803109F49BC0B8F405
:102BF000882309F4F9C0883009F494C0FF91EF915B
:102C0000BF91AF919F918F917F916F915F914F9104
:102C10003F912F910F900FBE0F901F901895883104
:102C200009F488C0803251F78093220214C08034A6
:102C300009F49DC040F48033B9F38833F9F68093EA
:102C4000220285ECB0C0803509F485C0883509F4CE
:102C500096C0883499F60E940E11D0CF883909F4B5
:102C60008CC038F5883729F050F4883611F0803759
:102C700029F683E0809324021092E40157C088383B
:102C800009F47BC0803919F0803809F0B7CF809102
:102C9000E401803208F071C0E091E40181E08E0F20
:102CA0008093E4018091BB00F0E0EC53FE4F808301
:102CB0003DC0803B39F0E0F4803A09F479C0883AAD
:102CC00009F09CCF84E0809324021092C3011092FB
:102CD000C201E091F101F091F20109958091C201E8
:102CE00081110FC081E08093C2011092A20109C03E
:102CF000803C09F4A6CF883C09F4A3CF883B09F0B7
:102D00007DCFE091C30181E08E0F8093C301F0E09D
:102D1000EE55FE4F80818093BB009091C30180915E
:102D2000C20129C08091FF018093BB0085EC809394
:102D3000BC0064CF9091210280912002981758F531
:102D4000E091210281E08E0F80932102F0E0E050BB
:102D5000FE4F8081E9CFE091210281E08E0F8093C8
:102D600021028091BB00F0E0E050FE4F8083909103
:102D70002102809120029817C8F285E8D8CFE0910F
:102D8000210281E08E0F809321028091BB00F0E050
:102D9000E050FE4F80838091230281115CCF81E05F
:102DA0008093FE0184EA8093BC001092240226CF17
:102DB00085EC8093BC00109224028091E401803263
:102DC00030F4E091E401F0E0EC53FE4F10826091AA
:102DD000E40170E0E091EF01F091F00184EC91E00A
:102DE00009951092E4010ACF1092220234CF1F926B
:102DF0000F920FB60F9211248F939F938091FA0137
:102E000091E089278093FA019F918F910F900FBED7
:102E10000F901F9018951F920F920FB60F921124CA
:102E20008F939F938091FB0191E089278093FB0111
:102E30009F918F910F900FBE0F901F9018951F922A
:102E40000F920FB60F9211248F9381E08093F901B6
:102E50008F910F900FBE0F901F9018951F920F9299
:102E60000FB60F9211248F9381E08093F60185E0D5
:102E70008093B2008F910F900FBE0F901F90189506
:102E8000EEE4F4E01382128288EE93E0A0E0B0E07A
:102E900084839583A683B7832EE031E0318320833A
:102EA00025EC30E03587248724EC30E0378726870F
:102EB00020EC30E0318B208B21EC30E0338B228B07
:102EC00022EC30E0358B248B26EC30E0378B268BE0
:102ED000118E128E138E148EEBEEF4E0138212829A
:102EE00084839583A683B78320E231E031832083F6
:102EF000E7EFF4E020E520831182E9EFF4E01582AA
:102F000016821186138642E050E060E070E044874C
:102F100055876687778713A215A614A622E331E0AA
:102F200033A722A717A6E4E4F5E013821282848374
:102F30009583A683B7838EE391E091838083128E7D
:102F4000118E148610924305109242050895CF9376
:102F5000DF93CDB7DEB76B970FB6F894DEBF0FBE29
:102F6000CDBF789484B5826084BD84B5816084BD12
:102F700085B5826085BD85B5816085BD80916E0017
:102F8000816080936E001092810080918100826048
:102F90008093810080918100816080938100809185
:102FA00080008160809380008091B1008460809374
:102FB000B1008091B00081608093B00080917A0070
:102FC000846080937A0080917A00826080937A0096
:102FD00080917A00816080937A0080917A00806885
:102FE00080937A001092C100E0915E04F0915F043A
:102FF00082E08083E0915A04F0915B041082E091BA
:103000005C04F0915D048FEC808310926604E09183
:103010006204F091630486E08083E0916004F091A3
:103020006104808180618083E0916004F09161049B
:10303000808188608083E0916004F09161048081E8
:1030400080688083E0916004F091610480818F7DCD
:10305000808343E150E068E571E08EE494E00E94F3
:10306000E70042E050E06CE671E08EE494E00E94FC
:10307000E70080912805882321F083E295E00E94F3
:103080002E0C10920405109202051092FF0410926B
:10309000FE048AE08093FD040E9465028B0180910A
:1030A000FD040E94C60061E08091FD040E94F401CD
:1030B000FFB6F8948091EE01811124C0EAEAF0E0B5
:1030C0008491EEEBF0E09491E82FF0E0EE0FFF1F1B
:1030D000EA56FF4FA591B491EC91E92321F461E008
:1030E0008AE00E94F4018AE00E94C6008CB58061EB
:1030F0008CBD8CB580648CBD8DE00E94C6008BE0D9
:103100000E94C6008091EE018F5F8093EE01FFBEAA
:1031100082E58093F7041092F8048091F70490916F
:10312000F8040E94BF044AE0F42E8FEF0E949A0434
:10313000FA94F110FACF89EF94E00E94C20420E0E3
:1031400030E0A90160E089EF94E00E94D804F82EF5
:103150008093030521E0821709F478C00E9465027C
:10316000601B710B613D774050F381E08093FE045A
:1031700089EF94E00E948F048CE3E82E8FE0F82E14
:10318000CC24CA94D12C10E28091FB01882309F44D
:103190004AC1F89488E080937E0083E480937C00A9
:1031A00083E880937A00789482E08093B10085E090
:1031B0008093B200809170008160809370001AB992
:1031C0001BB980E993E10E94E912882321F08DEB7D
:1031D00093E10E94E91247E16CE471E0CE010196AF
:1031E0000E943314CE0101960E948F007894809142
:1031F000FB01882309F4F9C08091F6018823F9F0D6
:1032000080917A00806480937A0080917A0086FDB4
:10321000FCCF909178008091790080917A00806154
:1032200080937A009093F5016091F50184E495E034
:103230000E948E0E8BB181278BB91092F60180917E
:10324000FA018823A1F21092FA01D1CF2AEA31E0E3
:1032500040E050E068E089EF94E00E94D80482FFEB
:103260002AC0F092040580910405C12CD12C76016E
:10327000823029F4C12CD12CE12C20E4F22E20E064
:1032800030E0A90167E389EF94E00E94D804A70128
:10329000960169E289EF94E00E94D80480930305C7
:1032A0008823D1F00E946502601B710B613D77405D
:1032B00030F388E05BCF34E0F32E0E94A1048093CA
:1032C0000305FA94F110F9CF8A3A11F082E04ECF5B
:1032D00082E080930405C7CF809104058230D1F449
:1032E00020E030E0A9016AE389EF94E00E94D8046D
:1032F000882311F086E03ACF0E94A104807C803CB4
:1033000019F483E0809304050E94A1040E94A104A3
:103310000E94A10489EF94E00E948F0480E58093CD
:10332000F7041092F80481E00E94F706882309F45C
:1033300055C083E295E00E94AE09882309F41CCFB2
:103340008091420590914305009711F00E948E1BD9
:1033500086E090E00E94F21A8C0180E6F8018083FA
:103360008BEE94E092838183138280E290E09583D8
:10337000848310934305009342051092F401109248
:10338000F30110922B0210924D020E94980285EEDA
:1033900090E09093F2018093F10186EE90E090939B
:1033A000F0018093EF0181E0D80113968C93C8015E
:1033B0000E945004F89480916900836080936900B2
:1033C000E89A789480E28AB91BB8F89480916900F1
:1033D0008C6080936900E99A7894CECE80E00E9458
:1033E000F706882309F4C8CEA4CFF89480915D0530
:1033F00090915E05009761F00E942E0C80915D0512
:1034000090915E050E948E1B10925E0510925D05E4
:1034100010927E0010927A00F894109270001BB8FF
:103420001AB8789478948091FA01882309F499C0A5
:10343000F89441E06FE671E0CE0101960E943314EA
:10344000CE0101960E948F008CE08093B80010920C
:1034500080008AE0809381001092820082E0809355
:103460006F0010928500109284008AEF90E0909394
:103470008900809388001AB91BB97894789401E088
:103480008091FA01882309F468C08091F9018823AA
:1034900009F458C084E495E00E94410E892B09F498
:1034A00059C084E495E00E94C40F9093F801809382
:1034B000F7012091F7013091F8012E9DC0012F9D59
:1034C000900D3E9D900D1124B6010E94BE1A6C59BC
:1034D0007F4F7093F8016093F7018091F70190910D
:1034E000F8018115B0E19B0710F08FEF9FE0998301
:1034F0008A83E0914205F09143058481958102978A
:10350000E0F081819281208100932A0220934C0275
:1035100010922B0210924D02DC01ED91FC91028081
:10352000F381E02D42E050E0BE016F5F7F4F0995CF
:10353000029719F481E00E94D7028BB181278BB9E1
:103540001092F9018091FB01882309F499CF109220
:10355000FB0196CF0E94F110F0CFF8940E94F11079
:10356000789480E090E0892B09F40ECE0E945101FE
:10357000882309F409CE0E94000005CEAA1BBB1BBC
:1035800051E107C0AA1FBB1FA617B70710F0A61B63
:10359000B70B881F991F5A95A9F780959095BC0184
:1035A000CD0108950E94E31AA59F900DB49F900D40
:1035B000A49F800D911D11240895EE0FFF1F05900B
:1035C000F491E02D0994A29FB001B39FC001A39F85
:1035D000700D811D1124911DB29F700D811D11244C
:1035E000911D08950F931F93CF93DF938230910520
:1035F00010F482E090E0E0916105F091620530E026
:1036000020E0B0E0A0E0309799F42115310509F4ED
:103610004AC0281B390B24303105D8F58A819B819B
:103620006115710589F1FB0193838283FE0111C04D
:10363000408151810281138148175907E0F04817F2
:10364000590799F4109761F012960C9312971396FC
:103650001C933296CF01DF91CF911F910F91089566
:103660000093610510936205F4CF2115310551F0E7
:103670004217530738F0A901DB019A01BD01DF01B0
:10368000F801C1CFEF01F9CF9093620580936105F6
:10369000CDCFFE01E20FF31F8193919322503109A8
:1036A00039832883D7CF20915F0530916005232B84
:1036B00041F4209106013091070130936005209379
:1036C0005F0520910401309105012115310541F478
:1036D0002DB73EB74091080150910901241B350BCD
:1036E000E0915F05F0916005E217F307A0F42E1B4F
:1036F0003F0B2817390778F0AC014E5F5F4F241756
:10370000350748F04E0F5F1F5093600540935F05EB
:10371000819391939FCFF0E0E0E09CCFCF93DF9334
:103720000097E9F0FC01329713821282A0916105A3
:10373000B0916205ED0130E020E01097A1F4208106
:103740003181820F931F20915F053091600528170A
:10375000390709F061C0F0936005E0935F05DF91E0
:10376000CF910895EA01CE17DF07E8F54A815B8122
:103770009E0141155105B1F7E901FB83EA834991A7
:103780005991C40FD51FEC17FD0761F48081918119
:103790000296840F951FE901998388838281938122
:1037A0009B838A83F0E0E0E012968D919C911397C1
:1037B0000097B9F52D913C911197CD010296820F9A
:1037C000931F20915F05309160052817390739F65E
:1037D000309751F51092620510926105B093600523
:1037E000A0935F05BCCFD383C28340815181840FF6
:1037F000951FC817D90761F44E5F5F4F8881998183
:10380000480F591F518340838A819B819383828310
:103810002115310509F0B0CFF0936205E093610501
:103820009ECFFD01DC01C0CF13821282D7CFFB01F6
:10383000DC0104C08D910190801921F44150504069
:10384000C8F7881B990B0895FC018191861721F018
:103850008823D9F7992708953197CF010895FB015F
:10386000DC014150504048F001900D920020C9F712
:1038700001C01D9241505040E0F70895F894FFCFE9
:10388000FFFFFFFF000063058000000000008701CC
:10389000E7001401D40145012301370100000000B5
:1038A0001E04F1034D04C703EA03D703C803000055
:1038B0000000D60DE700D00B370E000000008E0E82
:1038C000710E610E380E410EC40FCE0F7465737405
:1038D000332E747874002F005468652070726F67FF
:1038E00072616D2073746172746564000D0A005416
:0A38F000455354332E747874000021
:107E0000112484B714BE81FFF0D085E080938100F7
:107E100082E08093C00088E18093C10086E0809377
:107E2000C20080E18093C4008EE0C9D0259A86E02C
:107E300020E33CEF91E0309385002093840096BBD3
:107E4000B09BFECF1D9AA8958150A9F7CC24DD24C4
:107E500088248394B5E0AB2EA1E19A2EF3E0BF2EE7
:107E6000A2D0813461F49FD0082FAFD0023811F036
:107E7000013811F484E001C083E08DD089C08234E0
:107E800011F484E103C0853419F485E0A6D080C0E4
:107E9000853579F488D0E82EFF2485D0082F10E0AE
:107EA000102F00270E291F29000F111F8ED06801E7
:107EB0006FC0863521F484E090D080E0DECF843638
:107EC00009F040C070D06FD0082F6DD080E0C81688
:107ED00080E7D80618F4F601B7BEE895C0E0D1E017
:107EE00062D089930C17E1F7F0E0CF16F0E7DF06D8
:107EF00018F0F601B7BEE89568D007B600FCFDCFD4
:107F0000A601A0E0B1E02C9130E011968C91119780
:107F100090E0982F8827822B932B1296FA010C0160
:107F200087BEE89511244E5F5F4FF1E0A038BF0790
:107F300051F7F601A7BEE89507B600FCFDCF97BE46
:107F4000E89526C08437B1F42ED02DD0F82E2BD052
:107F50003CD0F601EF2C8F010F5F1F4F84911BD097
:107F6000EA94F801C1F70894C11CD11CFA94CF0C13
:107F7000D11C0EC0853739F428D08EE10CD085E9AC
:107F80000AD08FE07ACF813511F488E018D01DD067
:107F900080E101D065CF982F8091C00085FFFCCF94
:107FA0009093C60008958091C00087FFFCCF809118
:107FB000C00084FD01C0A8958091C6000895E0E648
:107FC000F0E098E1908380830895EDDF803219F02E
:107FD00088E0F5DFFFCF84E1DECF1F93182FE3DFCA
:107FE0001150E9F7F2DF1F91089580E0E8DFEE27F6
:047FF000FF270994CA
:027FFE00040479
:00000001FF
