:020000040000FA
:100000000C9465000C9466180C948D000C948D0073
:100010000C948D000C9447180C948D000C948D005A
:100020000C948D000C9488180C948D000C94791805
:100030000C948D000C948D000C948D000C948D000C
:100040000C94DE160C948D000C94AC160C94861651
:100050000C948D000C948D000C948D000C948D00EC
:100060000C9428170C948D007C3C3E5E2B3D3F2F5A
:100070005B5D3B2C2A225C000000000800020100AE
:100080000003040700000000000000000000000062
:10009000250028002B0000000000240027002A0073
:1000A000040404040404040402020202020203031E
:1000B0000303030301020408102040800102040826
:1000C00010200102040810209A1811241FBECFEF3F
:1000D000D8E0DEBFCDBF12E0A0E0B1E0E0E0F4E4A4
:1000E00002C005900D92A83FB107D9F726E0A8EF0E
:1000F000B2E001C01D92A53FB207E1F710E0C5E6EE
:10010000D0E004C02197FE010E949D20C436D10793
:10011000C9F70E9410190C94FE210C940000CF9393
:10012000DF93FC01828193819093D9068093D80656
:1001300084819581A681B7818093DA069093DB064E
:10014000A093DC06B093DD0680859185A285B385FA
:100150008093DE069093DF06A093E006B093E1065D
:10016000DF011C96CF014996C2EED6E02D9129936E
:10017000A817B907D9F7818D928D9093F0068093D7
:10018000EF0686ED96E0DF91CF91089508950895EA
:1001900090E0FC01EC54FF4F249180569F4FFC01EE
:1001A0008491882399F090E0880F991FFC01EA560A
:1001B000FF4FA591B491FC01E457FF4F85919491B5
:1001C0008FB7F894EC91E22BEC938FBF0895AF9228
:1001D000BF92CF92DF92EF92FF920F931F93CF9334
:1001E000DF936C017B018B01040F151FEB015E0196
:1001F000AE18BF08C017D10759F06991D601ED912B
:10020000FC910190F081E02DC6010995892B79F7C9
:10021000C501DF91CF911F910F91FF90EF90DF907B
:10022000CF90BF90AF900895FC01538D448D252F42
:1002300030E0842F90E0821B930B541710F0CF9680
:10024000089501970895FC01918D828D981761F0B2
:10025000A28DAE0FBF2FB11D5D968C91928D9F5FC9
:100260009F73928F90E008958FEF9FEF0895FC01A8
:10027000918D828D981731F0828DE80FF11D858D5B
:1002800090E008958FEF9FEF0895FC01918D228DEE
:10029000892F90E0805C9F4F821B91098F73992773
:1002A000089584ED95E00E94450121E0892B09F431
:1002B00020E0822F089580E090E0892B29F00E94B1
:1002C000510181110C9400000895FC01A48DA80F28
:1002D000B92FB11DA35ABF4F2C91848D90E0019688
:1002E0008F739927848FA689B7892C93A089B189A8
:1002F0008C91837080648C93938D848D981306C049
:100300000288F389E02D80818F7D80830895EF92AC
:10031000FF920F931F93CF93DF93EC0181E0888FBF
:100320009B8D8C8D98131AC0E889F989808185FF8F
:1003300015C09FB7F894EE89FF896083E889F98931
:1003400080818370806480839FBF81E090E0DF9133
:10035000CF911F910F91FF90EF900895F62E0B8D86
:1003600010E00F5F1F4F0F731127E02E8C8D8E1141
:100370000CC00FB607FCFACFE889F989808185FFA8
:10038000F5CFCE010E946501F1CFEB8DEC0FFD2F73
:10039000F11DE35AFF4FF0829FB7F8940B8FEA8963
:1003A000FB8980818062CFCFCF93DF93EC01888D72
:1003B0008823B9F0AA89BB89E889F9898C9185FDE0
:1003C00003C0808186FD0DC00FB607FCF7CF8C916E
:1003D00085FFF2CF808185FFEDCFCE010E946501C0
:1003E000E9CFDF91CF91089590E0FC01E858FF4FED
:1003F0002491FC01EC54FF4F3491FC01E056FF4F77
:10040000E491EE23C9F0222339F0233001F1A8F45E
:10041000213019F1223029F1F0E0EE0FFF1FE457EF
:10042000FF4FA591B4918FB7F894EC91611126C05C
:1004300030953E233C938FBF08952730A9F0283094
:10044000C9F0243049F7809180008F7D03C08091EE
:1004500080008F7780938000DFCF84B58F7784BD55
:10046000DBCF84B58F7DFBCF8091B0008F778093F9
:10047000B000D2CF8091B0008F7DF9CF3E2BDACF84
:100480003FB7F8948091680390916903A0916A0343
:10049000B0916B0326B5A89B05C02F3F19F00196BC
:1004A000A11DB11D3FBFBA2FA92F982F8827BC01CE
:1004B000CD01620F711D811D911D42E0660F771FF6
:1004C000881F991F4A95D1F708958F929F92AF92F6
:1004D000BF92CF92DF92EF92FF924B015C010E949C
:1004E00040026B017C010E9440026C197D098E095B
:1004F0009F09683E734081059105A8F321E0821AA7
:100500009108A108B10888EEC80E83E0D81EE11C4E
:10051000F11C81149104A104B10429F7FF90EF901C
:10052000DF90CF90BF90AF909F908F9008952FB79E
:10053000F8946091640370916503809166039091D3
:1005400067032FBF089520914003260F3327331FE1
:1005500021323105ECF42091AA05FC0190E080E005
:10056000243069F082E00895A09140032191AC010C
:10057000405E5C4FA40FB52FB11D2C9301968617DA
:1005800098F380914003680F6093400380E00895E2
:1005900081E008951092AA0581E08093A905109248
:1005A000840561E082E10E94F40161E083E10E9440
:1005B000F401E9EBF0E080818E7F808380818D7F84
:1005C000808388E48093B80085E48093BC0008951C
:1005D00010928303109282031092B1051092D305FA
:1005E0000E94CA0286EC90E090938103809380037E
:1005F00087EC90E090937F0380937E030895CF93E0
:10060000DF9391E090931F038823B9F0C091B80065
:10061000D091BA008091BC008A7B8093BC0060E0DE
:1006200082E10E94F40160E083E10E94F4010E94F3
:10063000CA02D093BA00C093B800DF91CF91089559
:100640008F929F92AF92BF92CF92DF92EF92FF92E2
:100650000F931F93CF93DF93D091D305D13208F03E
:10066000D7C0182FC091D2050E9440026B017C01B7
:100670008091AA0581116BC082E08093AA05109336
:10068000A9058FEF8093A8051092A705D093A60522
:10069000A2EBB5E0E6E8F5E080E0D81391C0109257
:1006A000850580918505CC0FC82BC0938505809169
:1006B0008405813009F088C0109284050E944002B0
:1006C0006B017C01809185058093BB008091AC0516
:1006D0009091AD05A091AE05B091AF05892B8A2B05
:1006E0008B2BA1F00E9440020091AC051091AD054A
:1006F0002091AE053091AF056C197D098E099F09D7
:10070000061717072807390708F442C08091BC0074
:1007100083FDD8CF85EC8093BC000E9440026B0122
:100720007C018091AA05823009F450C08091A8050F
:100730008F3F09F46FC08091A805803209F46CC026
:100740008091A805803309F469C084E026C08091B7
:10075000AC059091AD05A091AE05B091AF05892B88
:100760008A2B8B2B09F484CF0E9440028090AC0529
:100770009090AD05A090AE05B090AF056C197D09C5
:100780008E099F0986169706A806B90608F070CF4D
:100790008091AB050E94FF0285E01092B105109296
:1007A000D3051092B005DF91CF911F910F91FF906B
:1007B000EF90DF90CF90BF90AF909F908F90089573
:1007C0009D9191938F5F69CF85EEA5CF8091AC0508
:1007D0009091AD05A091AE05B091AF05892B8A2B04
:1007E0008B2B09F49ECF0E9440020091AC05109122
:1007F000AD052091AE053091AF056C197D098E09CC
:100800009F09061717072807390708F08ACFC0CFB6
:1008100081E0C3CF80E0C1CF82E0BFCF83E0BDCF16
:10082000DC0111968D919C91DC01ED91FC9102808F
:10083000F381E02D42E050E00995029729F481E030
:100840000E94200391E0811190E0892F089508957E
:10085000E091830380918203E81730F4F0E0E150E7
:10086000FD4F808190E008958FEF9FEF0895909164
:100870008303809182032FEF3FEF981748F4E92F0D
:10088000F0E0E150FD4F208130E09F5F90938303C3
:10089000C90108958091820390918303891B990B6C
:1008A0000895CF92DF92EF92FF920F931F93CF9311
:1008B000DF937C01CB018A012091B005222389F0CE
:1008C000EB016B01C40ED51ECC15DD0569F06991F5
:1008D000D701ED91FC910190F081E02DC7010995C0
:1008E000F3CF642F0E94A302C801DF91CF911F9123
:1008F0000F91FF90EF90DF90CF900895CF93DF930B
:100900001F92CDB7DEB769832091B0052223F9F09D
:100910002091D305203258F021E030E0FC013383F0
:10092000228390E080E00F90DF91CF910895809135
:10093000B105E82FF0E0EE54FA4F998190838F5F74
:100940008093B1058093D30581E090E0ECCF61E026
:10095000CE0101960E94A302F7CFFC01248131E071
:100960003093B0052093D2051092B1051092D305B3
:100970008385682B81E796E00E947E0481E00C94D9
:10098000200390E080E00895CF93DF93EC018B810A
:100990008823A1F0888191E09093B0058093D205DF
:1009A0001092B1051092D30581E00E94200391E0DE
:1009B000811190E0892FDF91CF9108950E94E80284
:1009C00081E08B83CE010E94C404982F8111E2CF75
:1009D000F1CF8FB7F8948091F9028FBF089561E04D
:1009E000FC0184810E94F4018091F802811110922F
:1009F000F80208958EBD00000DB407FEFDCF8EB540
:100A000008958FEF0C94FA040F931F93CF93DF9305
:100A1000EC010E9497028B010E9401058F3F69F053
:100A20000E949702601B710B6C177D07A8F380E092
:100A3000DF91CF911F910F91089581E0F9CF8CBD87
:100A40009DBD0895CF93DF93EC018091F802811151
:100A500009C081E08093F80280917D0690917E0626
:100A60000E941F0560E08C81DF91CF910C94F4010E
:100A70008F929F92AF92BF92FF920F931F93CF934B
:100A8000DF93EC01F62E49015A018E81882389F00B
:100A90008F8198859C012F5F3F4F38872F8382304D
:100AA000924018F40E940105F3CFCE010E94EF049A
:100AB0001E82CE010E9422058CE291E00E94040574
:100AC0008F2D80640E94FA0408E110E0D501C40172
:100AD000002E04C0B695A795979587950A94D2F7EE
:100AE0000E94FA0408501109083F8FEF180771F7A8
:100AF00085E9FF2021F028E087E8F2128FEF0E94BD
:100B0000FA0410E00E9401058A8787FF04C01F3F96
:100B100011F01F5FF7CFDF91CF911F910F91FF90E1
:100B2000BF90AF909F908F900895AF92BF92CF9259
:100B3000DF92EF92FF920F931F93CF93DF93EC011D
:100B40006901C801820F931F8130924050F58E8158
:100B5000882379F088819981AA81BB8184179507C0
:100B6000A607B70731F48F819885C816D90608F013
:100B700042C0488359836A837B838B85833039F0F5
:100B800089E0440F551F661F771F8A95D1F79A0198
:100B9000AB0161E1CE010E943805882389F083E032
:100BA0008D83CE010E94EF0480E0DF91CF911F91F1
:100BB0000F91FF90EF90DF90CF90BF90AF9008958E
:100BC0000E9497025B010E9401058A878F3F69F4AA
:100BD0000E9497026A197B096D327140A0F38FE081
:100BE0008D83CE010E94EF04DCCF8E3F89F41886FE
:100BF0001F8281E08E838F8198858C159D0550F42E
:100C00000E9401058F819885019698878F83F3CF85
:100C10008DE0E6CF6701E00EF11E0E940105F601AE
:100C200081936F01EE15FF05C1F78F819885080F3D
:100C3000191F18870F838985882319F00115124021
:100C4000A0F08E81882389F08F8198859C012F5F89
:100C50003F4F38872F838230924018F40E9401055D
:100C6000F3CFCE010E94EF041E8281E09ECFCF928F
:100C7000DF92EF92FF920F93CF93DF93EC01690124
:100C800082E1411551056105710599F08B8583302D
:100C900039F089E0440F551F661F771F8A95D1F7F9
:100CA0009A01AB0168E1CE010E943805882319F052
:100CB00084E08D832DC08EEF0E94FA0476018EEFC2
:100CC000D81AF70181917F010E94FA04EC14FD0407
:100CD000C1F78FEF0E94FA048FEF0E94FA040E947E
:100CE00001058A878F71853071F4011116C0CE011C
:100CF0000E94EF0481E0DF91CF910F91FF90EF9080
:100D0000DF90CF90089581E18D83CE010E94EF04A2
:100D1000CE010E94EF0480E0EECF88E592E00E94D1
:100D20000405811102C085E1C4CF20E030E0A901B3
:100D30006DE0CE010E943805882311F084E1B9CF1F
:100D40000E9401058111FACFD2CF0F934091FB028F
:100D50005091FC026091FD027091FE024115510517
:100D60006105710599F0082F24E833E080917C0338
:100D700090917D030E943706882349F01092FB0270
:100D80001092FC021092FD021092FE0281E00F917F
:100D900008950F93CF93C82F8091FA02811105C057
:100DA000C1E08C2FCF910F91089540910001509197
:100DB000010160910201709103010C2F24E833E0DE
:100DC00080917C0390917D030E943706811102C0BF
:100DD000C0E0E7CFCC2321F381E00E94A506882361
:100DE000B9F31092FA02DDCF8F929F92AF92BF9229
:100DF000EF92FF920F931F93CF934B015C01C42F8F
:100E00008091000190910101A0910201B091030134
:100E100088159905AA05BB0551F181E00E94C90614
:100E200081110BC080E0CF911F910F91FF90EF9047
:100E3000BF90AF909F908F90089584E8E82E83E054
:100E4000F82E00E012E030E020E0B501A40180912E
:100E50007C0390917D030E949505882319F380926D
:100E6000000190920101A0920201B0920301409111
:100E7000FA024C2B4093FA0281E0D5CFCF93DF9357
:100E8000EC016E857F858889998941E00E94F4068E
:100E9000882351F08A8920E2829FC00111248C5757
:100EA0009C4FDF91CF91089590E080E0FACF8F9230
:100EB0009F92AF92BF92CF92DF92EF92FF92CF9329
:100EC0002FE736E030937D0320937C03882309F4D9
:100ED0006DC040E060E070E0CB010E94F40681113B
:100EE0000BC080E0CF91FF90EF90DF90CF90BF904C
:100EF000AF909F908F900895809142058F7789F7EA
:100F000080914E0590914F05A0915005B0915105EB
:100F100084369105A105B10520F3C0904A05D09013
:100F20004B05E0904C05F0904D05C114D104E1044F
:100F3000F104B9F240E0C701B6010E94F40688232B
:100F400081F280918F03909190038115924049F630
:100F5000A0919403AA2329F26091920370919303C4
:100F60006115710509F4BDCF20919103222309F485
:100F7000B8CFA0939D0620938F0690E080E030E0EC
:100F8000E1E0F0E0C82FAF01082E02C0440F551F6A
:100F90000A94E2F72417350769F041E0480F0196FB
:100FA0008930910579F7409398069BCFC12CD12CBD
:100FB0007601C0CF8093980620919A0330919B03CD
:100FC00050E040E02115310541F42091A803309113
:100FD000A9034091AA035091AB032093900630934C
:100FE0009106409392065093930646015701860E50
:100FF000971EA11CB11C80929E0690929F06A09203
:10100000A006B092A106E0919503F0919603F093AB
:10101000A406E093A306B0E00E94A320DC01CB016C
:10102000880D991DAA1DBB1D8093A5069093A60649
:10103000A093A706B093A80625E0EE0FFF1F2A9500
:10104000E1F7E150FE4FEF2FFF27E6958E0F9F1F30
:10105000A11DB11D8093990690939A06A0939B06BB
:10106000B0939C068090970390909803B12CA12C8C
:101070008114910441F48090A4039090A503A09062
:10108000A603B090A703C81AD90AEA0AFB0AC80C3B
:10109000D91CEA1CFB1C04C0F694E794D794C794AF
:1010A000CA95D2F7C0929406D0929506E092960621
:1010B000F092970685EFC8168FE0D806E104F10498
:1010C00028F48CE08093A20681E00CCF80E125EF2C
:1010D000C2162FEFD206E104F104A0F38091B00311
:1010E0009091B103A091B203B091B3038093A50690
:1010F0009093A606A093A706B093A80680E2E2CF3D
:101100004F925F926F927F928F929F92AF92BF9217
:10111000CF92DF92EF92FF920F931F93CF93DF93C3
:10112000EC01423051056105710590F480E0DF91DA
:10113000CF911F910F91FF90EF90DF90CF90BF90D4
:10114000AF909F908F907F906F905F904F90089599
:1011500089859A85AB85BC850196A11DB11D841733
:101160009507A607B70710F3CB88DC88ED88FE88C3
:101170008F89803109F042C0BB27A72F962F852F7A
:10118000480159012A013B01C80ED91EEA1EFB1E67
:101190008091000190910101A0910201B0910301A1
:1011A000C816D906EA06FB0699F58F898031C1F584
:1011B000B301A201552766277727440F551F4C57C7
:1011C0005C4FFA01918280828091FA028160809363
:1011D000FA028A89823080F08D819E81AF81B88544
:1011E0008C0D9D1DAE1DBF1D8093FB029093FC02D4
:1011F000A093FD02B093FE0281E099CFDB01CA010A
:10120000E7E0B695A79597958795EA95D1F7B8CF7A
:1012100040E0C701B6010E94F4068111C6CF86CF17
:10122000B301A2014F77552766277727440F551F33
:10123000440F551F4C575C4FFA0180829182A28265
:10124000B382C2CF8F929F92AF92BF92CF92DF9222
:10125000EF92FF920F931F93CF93DF93FC01818551
:101260009285A385B4850196A11DB11D84179507AC
:10127000A607B70770F480E0DF91CF911F910F911F
:10128000FF90EF90DF90CF90BF90AF909F908F90A6
:10129000089583889488A588B6888789803189F5E0
:1012A000BB27A72F962F852FE9016A017B018F01AC
:1012B000BC01CD01680D791D8A1D9B1D8090000128
:1012C00090900101A0900201B0900301861697064C
:1012D000A806B90601F5F8018789803111F5DD24EA
:1012E000EE24FF24F601EE0FFF1FEC57FC4F808128
:1012F0009181B0E0A0E088839983AA83BB8381E0D9
:10130000BBCFDB01CA01C7E0B695A7959795879536
:10131000CA95D1F7C9CF40E00E94F4068111DBCF16
:10132000AACFE894C7F8DD24EE24FF24F601EE0FDF
:10133000FF1FEE0FFF1FEC57FC4F80819181A281B0
:10134000B381BF70D8CF4F925F926F927F92AF926E
:10135000BF92CF92DF92EF92FF920F931F93CF93A2
:10136000DF9300D000D0CDB7DEB78C0149835A831C
:101370006B837C835901C12CD12C7601412C82E0F6
:10138000582E612C712C49815A816B817C819E0180
:101390002F5F3F4FC8010E942209882339F1F801CD
:1013A0008585A301920104C0220F331F441F551FDE
:1013B0008A95D2F7DA01C901C80ED91EEA1EFB1EB2
:1013C00049815A816B817C818789803111F188EF55
:1013D0009FEFAFEFBFE0481759076A077B0798F206
:1013E000F501C082D182E282F38281E00F900F90FA
:1013F0000F900F90DF91CF911F910F91FF90EF9081
:10140000DF90CF90BF90AF907F906F905F904F90A4
:10141000089588EF9FEFA0E0B0E0DDCFCF93DF939A
:10142000FC012581222321F080E0DF91CF910895F6
:10143000EC018091A206803159F582E08583178AFC
:10144000108E118E128E8091A3069091A406B0E0AA
:10145000A0E025E0880F991FAA1FBB1F2A95D1F78E
:10146000838B948BA58BB68B8BE896E09C8F8B8FB0
:1014700081E08C831E821F82188619861A861B863D
:101480001C861D861E861F86188A198A1A8ACDCF49
:10149000803251F683E085834091A5065091A606DF
:1014A0006091A7067091A806478B508F618F728F4D
:1014B0009F012D5E3F4F8BE896E00E94A3098111AA
:1014C000D3CFB2CF8F929F92AF92BF92CF92DF9243
:1014D000EF92FF920F931F93CF93DF93EC018D81D7
:1014E00081110EC080E0DF91CF911F910F91FF908D
:1014F000EF90DF90CF90BF90AF909F908F90089526
:101500000B891C892D893E89041715072607370783
:1015100048F34A015B01823031F48A869B86AC86AF
:10152000BD8681E0E0CF81149104A104B10449F4A7
:101530001E821F82188619861A861B861C861D86A7
:10154000F0CF0A851B852C853D85EB8DFC8D85852F
:1015500090E00996B901A80141505109610971094A
:10156000082E04C076956795579547950A94D2F74B
:1015700075016401E1E0CE1AD108E108F10804C068
:10158000F694E794D794C7948A95D2F7C416D506F3
:10159000E606F70620F0012B022B032B11F58F89AD
:1015A000988DA98DBA8D8E839F83A887B9878E0168
:1015B0000A5F1F4FC114D104E104F10409F4ADCF57
:1015C0004E815F816885798598018B8D9C8D0E9405
:1015D000220991E0C91AD108E108F1088111EACF86
:1015E00081CFC41AD50AE60AF70AE1CF2091EF06A7
:1015F0003091F0062115310541F0AB01BC01C90164
:101600000E94620A91E0811101C090E0892F089543
:101610003F924F925F926F927F928F929F92AF9282
:10162000BF92CF92DF92EF92FF920F931F93CF93CF
:10163000DF93CDB7DEB72C970FB6F894DEBF0FBEA1
:10164000CDBF5C01DC015B968D909C905C971696FB
:101650004D905D906D907C901997411451046104F8
:10166000710409F468C0BFEF4B1A5B0A6B0A7B0A6E
:10167000312CF40181859285A385B4859C01AD014F
:101680002F5F3F4F4F4F5F4F29873A874B875C87CC
:10169000730162011D821E821F821886F4018185FA
:1016A0009285A385B4852D813E814F815885281769
:1016B00039074A075B0708F056C089859A85AB85CC
:1016C000BC858C159D05AE05BF0550F482E0C82E83
:1016D000D12CE12CF12C92E0492E512C612C712C53
:1016E0009E012F5F3F4FB701A601C4010E9422094E
:1016F0008823C9F189819A81AB81BC81892B8A2B8E
:101700008B2B09F1260137019FEF491A590A690A03
:10171000790A2D813E814F8158852F5F3F4F4F4F72
:101720005F4F2D833E834F8358873FEFC31AD30A01
:10173000E30AF30AB3CFF4014080518062807380E2
:101740003324339496CFC414D504E604F70409F780
:101750000FEF1FEF2FEF3FE0B701A601C4010E947A
:101760008008811119C080E02C960FB6F894DEBF76
:101770000FBECDBFDF91CF911F910F91FF90EF90E2
:10178000DF90CF90BF90AF909F908F907F906F90A1
:101790005F904F903F900895D50116964D915D91C1
:1017A0006D917C911997411551056105710539F0CD
:1017B00097018601C4010E9480088823A1F2D50107
:1017C0001696CD92DD92ED92FC921997332051F04E
:1017D000D701C6010196A11DB11DF401808391833B
:1017E000A283B383F5018789908DA18DB28D892B5A
:1017F0008A2B8B2B39F48481C78AD08EE18EF28EAE
:1018000080688483F50184818062848381E0ACCF29
:101810001F93CF93DF93FC012581222371F1162FB3
:10182000EC01848187FF1EC0CF010E943E07FC01AE
:10183000892B19F18D81823040F48B899C89AD8987
:10184000BE89848F958FA68FB78F8F89988D938F40
:10185000828F8F89988DA98DBA8DB58BA48B8C8141
:101860008F778C83111103C08C818F7E8C83812FA5
:10187000DF91CF911F910C94C90680E0DF91CF9149
:101880001F910895FF920F931F93CF93DF93EC0165
:101890008D81813041F090E080E0DF91CF911F9108
:1018A0000F91FF9008958C8181FFF5CF82FD1BC0C1
:1018B00000917C0310917D03C8010E9422050E94C3
:1018C0000105F82EC8010E94EF048FEFF812E3CF54
:1018D0008C8185FF1BC060E0CE010E94080C8C81CA
:1018E0008F7D8C83D8CF4B895C896D897E898A8571
:1018F0009B85AC85BD8584179507A607B707C1F200
:10190000CE010E94620A8111D3CFC5CF4091FB0264
:101910005091FC026091FD027091FE02452B462B16
:10192000472B21F080E00E94A506B5CF80618C8313
:101930002A853B85317080E092E0821B930BADCF0E
:10194000CF93DF93EC0161E00E94080C882311F033
:101950001D8281E0DF91CF9108952F923F924F92A7
:101960005F926F927F928F929F92AF92BF92CF922F
:10197000DF92EF92FF920F931F93CF93DF9300D0EC
:1019800000D01F92CDB7DEB77C015B01342E5D83A2
:10199000DC0115968C911597813009F0CEC0149614
:1019A0002C9021FECAC022FCB4C0C32CDD8022943E
:1019B0007FE027222094B22DB1702B2ED7011A96EA
:1019C0004D915D916D917C911D97C114D10409F4E5
:1019D00028C15B968D919C915C97FC0174807A94F0
:1019E0008A019B0169E036952795179507956A95B9
:1019F000D1F770228A011170711020C001151105F4
:101A0000E9F416964D915D916D917C911997411570
:101A100051056105710509F099C057968D919D9109
:101A20000D90BC91A02D0097A105B10509F0B0C0A3
:101A3000C7010E94080B882309F47FC080E092E070
:101A4000801B910B46018C159D0508F44C01D701B4
:101A50005B964D915C915C9716968D919D910D9042
:101A6000BC91A02D0297A109B109FA01258504C0F6
:101A7000880F991FAA1FBB1F2A95D2F74685578545
:101A800060897189840F951FA61FB71F9C01AD0146
:101A9000270D311D411D511D29013A01811432E0EC
:101AA000930609F07BC08091000190910101A09103
:101AB0000201B091030184159505A605B70559F4F7
:101AC0008FEF9FEFDC018093000190930101A093C1
:101AD0000201B0930301022D9501B301A20180918F
:101AE0007C0390917D030E943706882331F19EEF9D
:101AF000B91AC818D908F70182859385A485B585D8
:101B0000880D991DA11DB11D82879387A487B58774
:101B100055CFF701438954896589768982859385F4
:101B2000A485B585481759076A077B0709F43DCF97
:101B3000C7010E94620A811138CF81E090E0D7018D
:101B400013969C938E93129780E007C09E012F5F9F
:101B50003F4F0E942209811102C090E079C0898123
:101B60009A81AB81BC81F701238D348DF9012789DE
:101B700048EF5FEF60E070E0203121F048EF5FEF69
:101B80006FEF7FE084179507A607B70708F050CFDF
:101B9000F70186839783A087B18750CF0115110580
:101BA00099F5D7011A964D915D916D917C911D9794
:101BB00053968D919D910D90BC91A02D481759077A
:101BC0006A077B0708F181E00E94C906882309F4AF
:101BD000B4CF4092000150920101609202017092D4
:101BE00003018091FA0281608093FA02C8018C5748
:101BF0009C4FD5019C01280D391DFC012E173F0774
:101C000059F04D914193FACF41E0C301B2010E94D6
:101C1000F4068111EBCF91CF281B390BA20EB31E16
:101C200068CFF70183899489A589B68984179507B8
:101C3000A607B70738F48481438B548B658B768B6A
:101C400080688483F701848183FD1AC0832D9D8180
:101C50000F900F900F900F900F90DF91CF911F91E9
:101C60000F91FF90EF90DF90CF90BF90AF909F903B
:101C70008F907F906F905F904F903F902F9008953E
:101C800061E0C7010E94080C882309F456CFDECF1B
:101C9000CF93DF931F92CDB7DEB7698341E050E069
:101CA000BE016F5F7F4F0E94AD0C0F90DF91CF910F
:101CB0000895FC01DB0112968D919C9113979383FB
:101CC000828381E891E09183808314968C911497AC
:101CD000848315968C911597858316964D915D9109
:101CE0006D917C91199746835783608771871A9607
:101CF0004D915D916D917C911D97428753876487CB
:101D000075871E964D915D916D917C915197468797
:101D10005787608B718B52968C915297828B53961A
:101D20004D915D916D917C915697438B548B658B52
:101D3000768B57964D915D916D917C915A97478B1B
:101D4000508F618F728F5B968D919C91948F838F52
:101D500008950895FC01818D928D009719F061E03E
:101D60000C94080C0895DC015996ED91FC91309784
:101D7000B9F083899489A589B6894285538564859C
:101D80007585841B950BA60BB70B811520E8920770
:101D9000A105B10538F08FEF9FE7A0E0B0E008950E
:101DA00090E080E00895DC0159968D919C91009718
:101DB00039F0DC01ED91FC910480F581E02D09946E
:101DC00090E080E00895CF93DF93EC01E98DFA8DE8
:101DD000309749F481E090E09B838A8390E080E033
:101DE000DF91CF91089513821282898D9A8D0E947E
:101DF000AD0CE98DFA8D22813381232B59F7F0CF79
:101E0000CF93DF931F92CDB7DEB76983DC01ED91ED
:101E1000FC910280F381E02D41E050E0BE016F5F54
:101E20007F4F09950F90DF91CF9108952F923F92A8
:101E30004F925F926F927F928F929F92AF92BF92DA
:101E4000CF92DF92EF92FF920F931F93CF93DF9386
:101E500000D01F92CDB7DEB7FC018581811118C07B
:101E60008FEF9FEF0F900F900F90DF91CF911F9109
:101E70000F91FF90EF90DF90CF90BF90AF909F9029
:101E80008F907F906F905F904F903F902F9008952C
:101E9000848180FFE5CF438954896589768982856D
:101EA0009385A485B585312C212C481759076A07DD
:101EB0007B0719F022242394312C6F012101CE01DC
:101EC00001963C01DF011696BB83AA83411451049D
:101ED00009F4C5C0F60142855385648575854A01BC
:101EE000F1E09F22D6015B968D919C915C978A01CF
:101EF0009B01E9E03695279517950795EA95D1F767
:101F00001596EC91E230E9F5FC01628D738D848DBC
:101F1000958D600F711F821F931FA12C22E0B22E9E
:101F2000A818B9084A145B0408F45201F601248188
:101F300026FD04C0A114F2E0BF0671F40091000177
:101F4000109101012091020130910301061717073A
:101F50002807390709F05EC040E00E94F406882394
:101F600009F47ECFC4018C579C4FD3019C012A0DEC
:101F70003B1DFC012E173F0709F46CC041914D93A6
:101F8000F9CFDC011496BC90BA94B022811491046C
:101F900079F4B1100DC0452B462B472B69F5F6019E
:101FA0008789908DA18DB28D86839783A087B18715
:101FB000D6015B96ED91FC915C9716966D917D91A3
:101FC0008D919C911997625071098109910925851C
:101FD00004C0660F771F881F991F2A95D2F70685C0
:101FE000178520893189600F711F821F931F6B0D28
:101FF000711D811D911D91CFD60116964D915D9158
:102000006D917C9119972A813B810E94220981114F
:10201000CFCF26CF730185019401AB01BC01809124
:102020007C0390917D030E949505882309F418CFC5
:102030006A0C7B1CF60182859385A485B5858A0D83
:102040009B1DA11DB11D82879387A487B5874A1860
:102050005B083CCF281B390B620E731EEBCF2A9412
:10206000232809F0FDCE898190E0FCCEFC01818D12
:10207000928D009711F00C94160F8FEF9FEF08953B
:102080000F931F93CF93DF93EC01898D9A8D10E00E
:1020900000E0009799F00E94160F8C010F3F100787
:1020A00069F0898D9A8DFC0142855385648575851B
:1020B00041505109610971090E94620AC801DF910A
:1020C000CF911F910F910895CF93DF9300D0CDB79B
:1020D000DEB780E389831A828091D4069091D50679
:1020E000FC012481358122303105A0F0208131E0CE
:1020F0003093B0052093D2051092B1051092D3050C
:10210000BE016F5F7F4F0E9410040F900F90DF9110
:10211000CF91089580E0F9CF8F929F92AF92BF92B6
:10212000CF92DF92EF92FF920F931F93CF93DF93A3
:1021300000D000D0CDB7DEB7FC018581813091F0B1
:1021400080E00F900F900F900F90DF91CF911F9133
:102150000F91FF90EF90DF90CF90BF90AF909F9046
:102160008F900895848181FFEBCF83899489A5891D
:10217000B689892B8A2B8B2B09F45FC07F0140E045
:1021800050E0BA01CF010E94620A8823C9F2F70128
:10219000C38CD48C8788908CA18CB28C82E090E028
:1021A000A0E0B0E0F60180839183A283B3839E0117
:1021B0002F5F3F4FB501A401C6010E942209882369
:1021C00009F4BECF00E010E09801B501A401C601FA
:1021D0000E948008882309F4B3CF89809A80AB805D
:1021E000BC80F6018789803119F188EF9FEFAFEF4E
:1021F000BFE088169906AA06BB06C8F2F701178A3F
:10220000108E118E128E138A148A158A168A848172
:102210008068848361E0C7010E94080C882309F468
:102220008FCF40E050E0BA01C7010E94620A89CF17
:1022300088EF9FEFA0E0B0E0DCCF81E082CFCF92CB
:10224000DF92EF92FF921F93CF93DF93EC0180E236
:10225000689FF0011124EC57FC4F9385917161F058
:10226000842F827449F080E0DF91CF911F91FF901D
:10227000EF90DF90CF900895142F6A8B809100012A
:1022800090910101A0910201B09103018E879F8777
:10229000A88BB98BC488D588F12CE12C7601DD247C
:1022A000CC24CF8AD88EE98EFA8E828D938DB0E0C1
:1022B000A0E0AC01BD014C295D296E297F294F8B1F
:1022C000588F698F7A8F83858871B1F4848D958D4D
:1022D000A68DB78D8B8B9C8BAD8BBE8B81E08D8358
:1022E0001F701C831E821F82188619861A861B8601
:1022F0001C861D8681E0B8CF803109F0B4CF9E01E5
:102300002D5E3F4F8B8D9C8D0E94A309882309F47D
:10231000AACF84E0E4CF0F931F93CF938C01C62FF5
:102320000E94AD046C2F6460C8010E94AD046C2F44
:102330006B7FC8010E94AD0483EC90E00197F1F738
:10234000CF911F910F9108950F931F93CF93DF9318
:102350008C01D62FC42F607F642B0E948B1180E1EB
:10236000D89FB00111246C2BC801DF91CF911F9130
:102370000F910C948B1140E061E088EC96E00E9494
:10238000A4118BE39FE10197F1F70895CF93DF93B9
:10239000CDB7DEB728970FB6F894DEBF0FBECDBF1E
:1023A00088E0E3E1F1E0DE01119601900D928A955B
:1023B000E1F78091D00681111AC08FEF90E0880F6D
:1023C000991F21E030E02C0F3D1F820F931FFC016D
:1023D0006081606840E088EC96E028960FB6F8943B
:1023E000DEBF0FBECDBFDF91CF910C94A41181E071
:1023F000E5CF41E00E94A41181E090E00895809132
:10240000EF069091F006009761F00E94A00C809179
:10241000EF069091F0060E9459211092F00610925A
:10242000EF06089585ED8093BC008091AC059091F6
:10243000AD05A091AE05B091AF050796A11DB11DE8
:1024400023E0B695A795979587952A95D1F7209182
:10245000BC0024FD03C01092AA0508954091AC056C
:102460005091AD056091AE057091AF05452B462B9F
:10247000472B69F30097A105B10541F025E32A95A3
:10248000F1F700000197A109B109E1CF8091AB05F7
:102490000C94FF02FB0101900020E9F73197AF0196
:1024A000461B570BDC01ED91FC910280F381E02D7E
:1024B0000994009729F0BC0188EC96E00C944A122C
:1024C00090E080E008950F931F93CF93DF93C09126
:1024D0000501D0910601FE01EE0FFF1FEF5DFE4FDB
:1024E00000811181C0FD1BC00E94BB1187EA91E0F1
:1024F0000E945912CC0FDD1FC15EDE4F8881998189
:102500000E9459120E94C61189EA91E00E94591254
:10251000C801DF91CF911F910F910C9459120E9425
:10252000BB1189EA91E00E945912C8010E94591218
:102530000E94C61187EA91E00E945912CC0FDD1F5C
:10254000CD5DDE4F88819981E4CF0F931F93CF93A8
:10255000DF93C0910701D0910801FE01EE0FFF1F2C
:10256000E75EFE4F00811181C0FD1BC00E94BB11C0
:1025700087EA91E00E945912CC0FDD1FC95EDE4F41
:10258000888199810E9459120E94C61189EA91E0BE
:102590000E945912C801DF91CF911F910F910C94A5
:1025A00059120E94BB1189EA91E00E945912C80198
:1025B0000E9459120E94C61187EA91E00E945912A6
:1025C000CC0FDD1FC55EDE4F88819981E4CF8091FD
:1025D000090190910A018130910519F0029769F083
:1025E00008950E94BB118BEA91E00E9459120E944B
:1025F000C61183EB91E00C9459120E94BB1189EB38
:1026000091E00E9459120E94C61181EC91E0F3CF33
:10261000CF93DF93BC0184ED95E00E944A12EC0158
:1026200067EC71E084ED95E00E944A128C0F9D1FCB
:10263000DF91CF9108953F924F925F926F927F9278
:102640008F929F92AF92BF92CF92DF92EF92FF92C2
:102650000F931F93CF93DF93CDB7DEB72B970FB6B2
:10266000F894DEBF0FBECDBF7C01DC0115968C91C6
:10267000811115C0FE013196CE010C966F0130E23A
:102680003193E817F907E1F7DA0130E087E09D912F
:10269000B92E992329F19E3239F48A3011F480E061
:1026A000DAC038E08AE0F3CFE8E6F0E04491442372
:1026B00021F031969413FACFF2CF831780F34FEDC8
:1026C000490F4E3560F74FE9490F4A3118F440EE93
:1026D000B42EB90EF601E30FF11DB0823F5FD7CFE4
:1026E00089818032E1F2322E8B01FB01838D948D42
:1026F000D7015C969C938E935B9716821782108607
:1027000011861286138614861586F80182859385B4
:10271000A485B58543895489658976898417950789
:10272000A607B70708F04DC025E0B695A795979581
:1027300087952A95D1F7F82FFF70AF2ED8011596FF
:102740008C91823008F4ABCFC8010E94160F97FD20
:10275000A6CFF80182859385A485B5854F96A11DE6
:10276000B11D82879387A487B587F0E2AF9EB00141
:1027700011246C577C4F6115710509F490CFDB0172
:102780008C91882341F0853E09F058C0BB2029F088
:10279000BB24B394BACFB1100EC0F701A28A8091C6
:1027A000000190910101A0910201B091030186877F
:1027B0009787A08BB18BDB018C918111E9CFBB2472
:1027C000B394832D8271823109F069CFBB2009F463
:1027D0005AC0C7010E943E07009709F460CF20E26B
:1027E000FC0111922A95E9F72BE0F601DC0101903A
:1027F0000D922A95E1F721E238E2DC0151963C93F3
:102800002E93509740E058E01F965C934E931E978E
:1028100053963C932E93529759963C932E935897E8
:1028200057965C934E93569781E00E94C906882381
:1028300009F435CF432DF70162890AC04BE050E01F
:10284000C6010E94E221892B09F05FCF432D6A2D3A
:10285000C7010E941F112B960FB6F894DEBF0FBE62
:10286000CDBFDF91CF911F910F91FF90EF90DF903F
:10287000CF90BF90AF909F908F907F906F905F9020
:102880004F903F900895F8018581823009F407CF79
:10289000C8010E94080B882309F401CFD8015B9678
:1028A000ED91FC915C9716968D909D90AD90BC90AB
:1028B0001997B2E08B1A9108A108B108858504C068
:1028C000880C991CAA1CBB1C8A95D2F78685978513
:1028D000A089B189880E991EAA1EBB1E848124017D
:1028E0003501480E511C611C711C84149504A6040A
:1028F000B70409F1E1E04E1A51086108710881E05E
:102900000E94C906882309F4CACEE4E8F3E01192D4
:1029100084E895E08E179F07D1F74092000150920E
:10292000010160920201709203018091FA028160BC
:102930008093FA02DACFD8015B96ED91FC91258560
:1029400080E092E0A0E0B0E004C0880F991FAA1FC9
:10295000BB1F2A95D2F7F801438954896589768986
:10296000840F951FA61FB71F838B948BA58BB68BE7
:10297000D70152961C9284E893E031CF7F928F92D8
:102980009F92AF92BF92CF92DF92EF92FF920F93FE
:102990001F93CF93DF93CDB7DEB7C754D1090FB6DE
:1029A000F894DEBF0FBECDBF5C0119A218A281E86A
:1029B00091E09F8F8E8F1BA21C821B829A8389833A
:1029C0001E82912C812C7E018EE1E80EF11C09EA19
:1029D00016E0C401F401E653FE4F20812F3209F4C2
:1029E0000196DC01A653BE4FFE01FB9630E020E0CD
:1029F0006F014D914F3249F0442339F001962F5F1A
:102A00003F4F41932C303105A1F72C0D3D1DF901AD
:102A10001082FC01E653FE4F20812F3209F401960B
:102A20004C01FC01E653FE4F708041E0711040E024
:102A300030E020E0B601C801F501099581111EC002
:102A4000F6E0093A1F07B1F480E0C95BDF4F0FB62B
:102A5000F894DEBF0FBECDBFDF91CF911F910F91D4
:102A6000FF90EF90DF90CF90BF90AF909F908F90AE
:102A70007F900895C8010E94A00CE6CF772089F0CE
:102A800021E0A601B801C7010E941B13D82E86E0E1
:102A9000093A180779F0C8010E94A00CD1100FC0A4
:102AA000D3CFE6E0093A1E0719F0C8010E94A00C36
:102AB00081E0CBCFDD2041F28E010F5F1F4F902FC1
:102AC000812F8701E92EF82E84CF1F93CF93DF93B8
:102AD000CDB7DEB76D970FB6F894DEBF0FBECDBF92
:102AE000AB011C821B8221E831E03A8329831E82DC
:102AF00021E0BC01CE0101960E941B1311E081115F
:102B00000CC010E0812F6D960FB6F894DEBF0FBE9B
:102B1000CDBFDF91CF911F910895CE0101960E9404
:102B2000A00CF0CFCF93DF93CDB7DEB76D970FB684
:102B3000F894DEBF0FBECDBF442399F1AB01BC01B9
:102B40001C821B8281E891E09A8389831E8222E0A5
:102B5000CE0101960E941B1381110EC090E081E00E
:102B6000911101C080E06D960FB6F894DEBF0FBEE4
:102B7000CDBFDF91CF910895CE0101960E948C10B8
:102B8000882361F3CE0101960E943E07009731F33E
:102B900025EEFC0120831E8281E00E94C906982F49
:102BA000DECF81E0E0CFEF92FF920F931F93CF93A0
:102BB000DF93EC017B018A011B821A8288EE93E08D
:102BC000A0E0B0E08C839D83AE83BF8389E991E070
:102BD000998388838DE190E00E94BD209A8F898F30
:102BE000009779F02DE1F701DC0101900D922A9513
:102BF000E1F74CE050E0B801CE010C960E94EF21C5
:102C0000188EDF91CF911F910F91FF90EF90089553
:102C1000CF92DF92FF920F931F93CF93DF93CDB7A5
:102C2000DEB7C755D1090FB6F894DEBF0FBECDBFD2
:102C30008C01F62E1C821B8281E8C82E81E0D82EE2
:102C4000DA82C9821E82CE0101960E940E0ABE015E
:102C50006F5F7F4FCE01CB960E94590E19A218A22A
:102C6000DF8ECE8E1BA221968FAD2197811122C0BF
:102C7000F8011382128288EE93E0A0E0B0E0848332
:102C80009583A683B78389E991E091838083128E2F
:102C9000118E1486C801C95ADF4F0FB6F894DEBFF3
:102CA0000FBECDBFDF91CF911F910F91FF90DF90AD
:102CB000CF9008952F2D4AEC51E0BE01655C7F4F07
:102CC000CE014E960E941B13882391F2CE01CB9623
:102CD0000E94A00C8F2D8670863041F449A95AA914
:102CE0006BA97CA9CE014E960E94620ABE01625E6B
:102CF0007F4FCE0101960E94590E4AEC51E0BE0171
:102D00006F5F7F4FC8010E94D315C4CF1F920F92EF
:102D10000FB60F9211242F933F934F935F936F93AE
:102D20007F938F939F93AF93BF93EF93FF9384ED24
:102D300095E00E946501FF91EF91BF91AF919F9146
:102D40008F917F916F915F914F913F912F910F9054
:102D50000FBE0F901F9018951F920F920FB60F92F3
:102D600011242F938F939F93EF93FF93E091E405AA
:102D7000F091E5058081E091EA05F091EB0582FD97
:102D80001BC090818091ED058F5F8F732091EE05C0
:102D9000821741F0E091ED05F0E0EC52FA4F958F8B
:102DA0008093ED05FF91EF919F918F912F910F905F
:102DB0000FBE0F901F9018958081F4CF1F920F9235
:102DC0000FB60F9211242F933F938F939F93AF933E
:102DD000BF938091640390916503A0916603B091C5
:102DE00067033091630323E0230F2D3758F50196D5
:102DF000A11DB11D20936303809364039093650329
:102E0000A0936603B0936703809168039091690370
:102E1000A0916A03B0916B030196A11DB11D80932F
:102E2000680390936903A0936A03B0936B03BF9107
:102E3000AF919F918F913F912F910F900FBE0F9067
:102E40001F90189526E8230F0296A11DB11DD2CF21
:102E50001F920F920FB60F9211242F933F934F930F
:102E60005F936F937F938F939F93AF93BF93EF93F2
:102E7000FF938091B900887F803609F44AC0F0F54D
:102E8000883209F4A7C018F5803109F49BC0B8F462
:102E9000882309F4F9C0883009F494C0FF91EF91B8
:102EA000BF91AF919F918F917F916F915F914F9162
:102EB0003F912F910F900FBE0F901F901895883162
:102EC00009F488C0803251F78093A80514C080347B
:102ED00009F49DC040F48033B9F38833F9F6809348
:102EE000A80585ECB0C0803509F485C0883509F4A3
:102EF00096C0883499F60E941212D0CF883909F40E
:102F00008CC038F5883729F050F4883611F08037B6
:102F100029F683E08093AA051092620357C088388F
:102F200009F47BC0803919F0803809F0B7CF80915F
:102F30006203803208F071C0E091620381E08E0F7D
:102F4000809362038091BB00F0E0EE5BFC4F8083D6
:102F50003DC0803B39F0E0F4803A09F479C0883A0A
:102F600009F09CCF84E08093AA051092410310924F
:102F70004003E0918003F091810309958091400323
:102F800081110FC081E0809340031092200309C09B
:102F9000803C09F4A6CF883C09F4A3CF883B09F014
:102FA0007DCFE091410381E08E0F80934103F0E0FB
:102FB000E05EFC4F80818093BB0090914103809143
:102FC000400329C0809185058093BB0085EC8093E8
:102FD000BC0064CF9091A7058091A605981758F57D
:102FE000E091A70581E08E0F8093A705F0E0EA57F6
:102FF000FA4F8081E9CFE091A70581E08E0F8093A1
:10300000A7058091BB00F0E0EA57FA4F80839091CA
:10301000A7058091A6059817C8F285E8D8CFE0915A
:10302000A70581E08E0F8093A7058091BB00F0E09B
:10303000EA57FA4F80838091A90581115CCF81E026
:103040008093840584EA8093BC001092AA0526CF61
:1030500085EC8093BC001092AA05809162038032B7
:1030600030F4E0916203F0E0EE5BFC4F108260917F
:10307000620370E0E0917E03F0917F0382E493E0CD
:103080000995109262030ACF1092A80534CF1F92BF
:103090000F920FB60F9211248F934E9903C081E0C7
:1030A000809378034F9903C081E0809377034C9914
:1030B00007C081E0809379031092750310927A0320
:1030C0008F910F900FBE0F901F9018951F920F9227
:1030D0000FB60F9211248F9381E080937B0380932E
:1030E000750380937A038F910F900FBE0F901F90FE
:1030F00018951F920F920FB60F9211248F9381E0B3
:10310000809376038F910F900FBE0F901F901895AC
:103110001F920F920FB60F9211248F9381E080932C
:10312000720385E08093B2008F910F900FBE0F90D5
:103130001F901895E4EDF5E01382128288EE93E07B
:10314000A0E0B0E084839583A683B7832DE531E0CA
:103150003183208325EC30E03587248724EC30E070
:103160003787268720EC30E0318B208B21EC30E054
:10317000338B228B22EC30E0358B248B26EC30E035
:10318000378B268B118E128E138E148EE1E7F6E0AC
:103190001382128284839583A683B7832FE631E05E
:1031A00031832083EDE7F6E020E520831182EFE70D
:1031B000F6E0158216821186138642E050E060E048
:1031C00070E0448755876687778713A215A614A6F3
:1031D00021E831E033A722A717A6E6EDF6E0138237
:1031E000128284839583A683B78389E991E09183D2
:1031F0008083128E118E14861092D5061092D406FA
:10320000E8ECF6E0138212828DE891E091838083EE
:1032100087E2848380E1818782E082871386089534
:10322000CF93DF93CDB7DEB76B970FB6F894DEBFC1
:103230000FBECDBF789484B5826084BD84B58160B3
:1032400084BD85B5826085BD85B5816085BD809171
:103250006E00816080936E001092810080918100E9
:1032600082608093810080918100816080938100E1
:10327000809180008160809380008091B1008460A3
:103280008093B1008091B00081608093B000809104
:103290007A00846080937A0080917A0082608093C3
:1032A0007A0080917A00816080937A0080917A0020
:1032B000806880937A001092C100F89480E880932F
:1032C0006100109261007894209A289AE091E405B8
:1032D000F091E50582E08083E091E005F091E10561
:1032E0001082E091E205F091E3058FEC808310926B
:1032F000EC05E091E805F091E90586E08083E09136
:10330000E605F091E705808180618083E091E60524
:10331000F091E705808188608083E091E605F09177
:10332000E705808180688083E091E605F091E705FC
:1033300080818F7D808384ED91E00E9408138091CD
:10334000AE06882321F089EA96E00E94A00C109234
:103350008A061092880610928506109284068AE0EA
:10336000809383060E9497027B01809183060E94CE
:10337000C80061E0809183060E94F4011FB7F894B1
:1033800080916C03811124C0EAEAF0E08491EEEBB5
:10339000F0E09491E82FF0E0EE0FFF1FEA56FF4FA8
:1033A000A591B491EC91E92321F461E08AE00E94B7
:1033B000F4018AE00E94C8008CB580618CBD8CB598
:1033C00080648CBD8DE00E94C8008BE00E94C80024
:1033D00080916C038F5F80936C031FBF82E58093A5
:1033E0007D0610927E0680917D0690917E060E9459
:1033F0001F051AE08FEF0E94FA041150D9F78FE7EA
:1034000096E00E94220520E030E0A90160E08FE70D
:1034100096E00E943805182F80938906813009F4C0
:1034200040C00E9497026E197F09613D774058F3B2
:1034300081E0809384068FE796E00E94EF0488EE97
:1034400091E00E9408134AEF242E312C53E0452EC0
:10345000512C66E0C62ED12C77E0872E912CE5E02A
:103460006E2E712CF2E0AF2EB12C10E280917B0316
:10347000882309F45AC110927B03E0910B01F0916B
:103480000C013197E730F10508F04FC1E65BF54ECE
:103490000C949D208A1B151D261D311D381DFF1DF6
:1034A000101E2AEA31E040E050E068E08FE796E045
:1034B0000E94380582FF2AC010938A0680918A06EE
:1034C000812C912C5401823029F4812C912CA12C37
:1034D000A0E4BA2E20E030E0A90167E38FE796E090
:1034E0000E943805A501940169E28FE796E00E94E9
:1034F0003805809389068823C1F00E9497026E19CF
:103500007F09613D774030F388E093CF14E00E945B
:103510000105809389061150D1F78A3A11F082E0B3
:1035200088CF82E080938A06C9CF80918A06823054
:10353000D1F420E030E0A9016AE38FE796E00E9431
:103540003805882311F086E074CF0E940105807C45
:10355000803C19F483E080938A060E9401050E9452
:1035600001050E9401058FE796E00E94EF0480E5C7
:1035700080937D0610927E0681E00E945707882383
:1035800009F4BEC089EA96E00E940E0A882309F475
:1035900056CF8091D4069091D506009709F0B7C018
:1035A00086E090E00E94BD207C0180E6F7018083E8
:1035B00081E796E092838183138280E290E0958395
:1035C0008483F092D506E092D4060E94E80281E05E
:1035D000F7018383C7010E94C4040E9464100E9403
:1035E000E8021092CD068091D206823018F098E061
:1035F0009093CD068093D00662E370E080E090E087
:103600000E9465026091D30688EC96E00E94AD04AA
:1036100068EE73E080E090E00E94650260E388EC71
:1036200096E00E948B110BE416E4C8010197F1F7B4
:1036300060E388EC96E00E948B11C8010197F1F7D6
:1036400060E388EC96E00E948B1183E592E001979D
:10365000F1F760E288EC96E00E948B116091CD0654
:10366000606240E088EC96E00E94A41184E08093C0
:10367000CE0640E06CE088EC96E00E94A4110E9427
:10368000BB1182E08093CF0640E066E088EC96E0D4
:103690000E94A41140E062E088EC96E00E94A41130
:1036A0008BE39FE10197F1F788E08093D30660E018
:1036B00088EC96E00E94AD0486E092E00E945912E8
:1036C00085E192E00E9408135498569857988BB160
:1036D000806D8BB9FFEF23ED80E3F15020408040F7
:1036E000E1F700C000000E94E7128091680084604A
:1036F0008093680080916D00806D80936D00A3CEF3
:1037000080E00E945707882309F499CE3BCF0E949E
:10371000592146CF8091090190910A01813091058C
:1037200009F469C0029709F477C18091790388236D
:1037300089F01092790380910B0190910C018630F1
:1037400091050CF078C2843091050CF0ADC202975F
:103750000CF08EC280917803882309F110927803CF
:103760000E94BB1183EA92E00E94591280910B01E2
:1037700090910C018430910509F49FC28530910528
:1037800009F4A7C2019759F48091090190910A01A7
:10379000019790930A01809309010E94E71280919A
:1037A00077038823D9F01092770380910B019091D1
:1037B0000C018430910509F498C28530910509F413
:1037C000A0C2019759F48091090190910A010196D4
:1037D00090930A01809309010E94E71280E090E033
:1037E000892B09F443CE0E945101882309F43DCE70
:1037F0000E9400003ACE0E94BB118BE392E00E942F
:103800005912B0920C01A0920B01F89485E695E153
:103810000E94BE14882321F082E995E10E94BE1423
:1038200067E1CE0101960E940816CE0101960E9422
:103830008F003DE2E32E31E0F32EF70161917F012D
:1038400086ED96E00E94000FF9E5EF16F1E0FF0625
:10385000A1F783E08093040188E080937E0083E4F5
:1038600080937C0083E880937A0082E08093B100AB
:1038700085E08093B2008091700081608093700039
:10388000559A5D9A789480917503882309F44DC008
:10389000809104018130E1F380917203882399F3D0
:1038A00080917A00806480937A0080917A0086FD0E
:1038B000FCCF609178008091790090917A009061BE
:1038C00090937A0090E0982F8827680F792F711DC8
:1038D00090E080E00E94A21F20E030E040E85EE33C
:1038E0000E9430200E946C1F60936D0360916D03F5
:1038F00086ED96E00E94000F8BB181278BB9109264
:10390000720380916E0390916F03A0917003B09148
:1039100071030196A11DB11D80936E0390936F03F7
:10392000A0937003B0937103AECF80917A0381119D
:1039300010927A03F8940E94FF1110927E00109268
:103940007A00F89410927000589B03C08BB18127C5
:103950008BB98AB181278AB97894789463E0CE01D3
:1039600001960E940816CE0101960E948F0068E21F
:1039700070E080E090E00E94F60AF12CE12C60916A
:103980006E0370916F0380917003909171030E2C00
:1039900004C096958795779567950A94D2F786ED3A
:1039A00096E00E94000F28E0E20EF11C80E2E8168B
:1039B000F10429F764E070E080E090E00E94F60AEC
:1039C000F12CE12C60916E0370916F038091700374
:1039D00090917103645D7F4F8F4F9F4F0E2C04C0F9
:1039E00096958795779567950A94D2F786ED96E038
:1039F0000E94000F98E0E90EF11CE0E2EE16F104DF
:103A000009F70E94FF1110926E0310926F0310923B
:103A100070031092710389CE84E090E090930C01C2
:103A200080930B010E94A51280CE0E94BB1188E4F6
:103A300092E00E9459120E94C61185E592E00E9410
:103A4000591250920C0140920B016FCE0E94BB1193
:103A500088E492E00E945912B0920C01A0920B01EE
:103A600064CE70920C0160920B010E9463125DCED5
:103A7000D0920C01C0920B010E94BB118DE892E024
:103A80000E94591281E080937A03F89482E692E0D2
:103A90000E94081361E0CE0101960E940816CE0133
:103AA00001960E948F0082E792E00E9408136DE267
:103AB00070E080E090E00E94F60A8CE08093B8000D
:103AC000109280008AE0809381001092820082E050
:103AD00080936F00109285001092840030928900CC
:103AE00020928800559A5D9A789483E0809304012F
:103AF000789401E080917A03882309F464C080916E
:103B00000401813011F40E9464108091040181301D
:103B1000E1F380917603882369F386ED96E00E94B5
:103B2000B30E892B09F44BC086ED96E00E94361047
:103B30009093740380937303609173037091740383
:103B40006F3F710509F0C0F590E080E00E94A21F70
:103B500020E030E04FE753E40E94FA1E20E030EC12
:103B600043E755E40E94302020E030E048EC52E486
:103B70000E948E1E0E94731F79836A838091D406EF
:103B80009091D506FC01248135812230310570F0F9
:103B900020810093B0052093D2051092B1051092B8
:103BA000D305BE016F5F7F4F0E9410048BB1812748
:103BB0008BB9109276039ECF60EA7FE0DDCF109242
:103BC000760310927A038091750381111092750328
:103BD000F8940E94FF1110928000109281001092C0
:103BE000820010926F0078940E946410589B03C06A
:103BF0008BB181278BB98AB181278AB996CD0E9472
:103C0000BB118EE792E00E9459120E94C61185E511
:103C100092E00E94591290920C0180920B0185CD86
:103C20000E94BB118AE892E00E945912D0920C01C6
:103C3000C0920B017ACD08970CF08CCD0E94BB117D
:103C40008EE792E00E9459120E94C61188E992E024
:103C50000E94591281E090E090930C0180930B0137
:103C60009FEFE7EAF1E69150E040F040E1F719C03C
:103C70000E94BB1188E492E00E9459120E94C61172
:103C800088E992E00E94591281E090E090930C0143
:103C900080930B01FFEF27EA81E6F150204080403E
:103CA000E1F700C0000006C081E090E090930C01B5
:103CB00080930B010E94E7124DCD809107019091F6
:103CC0000801019790930801809307010E94A512B3
:103CD00066CD8091050190910601019790930601B0
:103CE000809305010E9463125ACD80910701909143
:103CF0000801019690930801809307010E94A51284
:103D00006DCD809105019091060101969093060179
:103D1000809305010E94631261CD5058BB27AA27EA
:103D20000E94A51E0C94F61F0E94E81F38F00E9406
:103D3000EF1F20F039F49F3F19F426F40C94E51F8F
:103D40000EF4E095E7FB0C94DF1FE92F0E9407209B
:103D500058F3BA17620773078407950720F079F4C0
:103D6000A6F50C9429200EF4E0950B2EBA2FA02D69
:103D70000B01B90190010C01CA01A0011124FF2718
:103D8000591B99F0593F50F4503E68F11A16F04013
:103D9000A22F232F342F4427585FF3CF4695379512
:103DA0002795A795F0405395C9F77EF41F16BA0BD7
:103DB000620B730B840BBAF09150A1F0FF0FBB1F85
:103DC000661F771F881FC2F70EC0BA0F621F731FCE
:103DD000841F48F4879577956795B795F7959E3F2B
:103DE00008F0B0CF9395880F08F09927EE0F9795BC
:103DF000879508950E940E1F0C94F61F0E94EF1FD6
:103E000058F00E94E81F40F029F45F3F29F00C941D
:103E1000DF1F51110C942A200C94E51F0E940720EB
:103E200068F39923B1F3552391F3951B550BBB27E9
:103E3000AA2762177307840738F09F5F5F4F220F2E
:103E4000331F441FAA1FA9F335D00E2E3AF0E0E825
:103E500032D091505040E695001CCAF72BD0FE2F6F
:103E600029D0660F771F881FBB1F26173707480703
:103E7000AB07B0E809F0BB0B802DBF01FF279358BB
:103E80005F4F3AF09E3F510578F00C94DF1F0C9481
:103E90002A205F3FE4F3983ED4F3869577956795A3
:103EA000B795F7959F5FC9F7880F911D96958795F0
:103EB00097F90895E1E0660F771F881FBB1F62170F
:103EC00073078407BA0720F0621B730B840BBA0BCD
:103ED000EE1F88F7E09508950E94731F6894B11152
:103EE0000C942A2008950E940F2088F09F5798F084
:103EF000B92F9927B751B0F0E1F0660F771F881FEF
:103F0000991F1AF0BA95C9F714C0B13091F00E9408
:103F10002920B1E008950C942920672F782F882755
:103F2000B85F39F0B93FCCF3869577956795B3952F
:103F3000D9F73EF490958095709561957F4F8F4F9E
:103F40009F4F0895E89409C097FB3EF490958095A3
:103F5000709561957F4F8F4F9F4F9923A9F0F92F4F
:103F600096E9BB279395F695879577956795B795CD
:103F7000F111F8CFFAF4BB0F11F460FF1BC06F5FB3
:103F80007F4F8F4F9F4F16C0882311F096E911C0C5
:103F9000772321F09EE8872F762F05C0662371F0E6
:103FA00096E8862F70E060E02AF09A95660F771FFA
:103FB000881FDAF7880F9695879597F9089597F9EE
:103FC0009F6780E870E060E008959FEF80EC0895BF
:103FD00000240A94161617061806090608950024E8
:103FE0000A9412161306140605060895092E039462
:103FF000000C11F4882352F0BB0F40F4BF2B11F4D6
:1040000060FF04C06F5F7F4F8F4F9F4F089557FD34
:104010009058440F551F59F05F3F71F04795880F36
:1040200097FB991F61F09F3F79F0879508951216CD
:1040300013061406551FF2CF4695F1DF08C0161679
:1040400017061806991FF1CF86957105610508942A
:104050000895E894BB2766277727CB0197F9089541
:104060000E9443200C94F61F0E94E81F38F00E9423
:10407000EF1F20F0952311F00C94DF1F0C94E51F27
:1040800011240C942A200E94072070F3959FC1F3FD
:10409000950F50E0551F629FF001729FBB27F00DF6
:1040A000B11D639FAA27F00DB11DAA1F649F66274B
:1040B000B00DA11D661F829F2227B00DA11D621F9A
:1040C000739FB00DA11D621F839FA00D611D221F54
:1040D000749F3327A00D611D231F849F600D211D38
:1040E000822F762F6A2F11249F5750409AF0F1F0BB
:1040F00088234AF0EE0FFF1FBB1F661F771F881F24
:1041000091505040A9F79E3F510580F00C94DF1F5D
:104110000C942A205F3FE4F3983ED4F3869577957C
:104120006795B795F795E7959F5FC1F7FE2B880FC9
:10413000911D9695879597F90895EE0FFF1F0590AD
:10414000F491E02D09940E94AE20A59F900DB49F9C
:10415000900DA49F800D911D11240895A29FB00180
:10416000B39FC001A39F700D811D1124911DB29FAB
:10417000700D811D1124911D08950F931F93CF93EE
:10418000DF938230910510F482E090E0E091F30635
:10419000F091F40630E020E0B0E0A0E0309799F430
:1041A0002115310509F44AC0281B390B243031058B
:1041B000D8F58A819B816115710589F1FB01938393
:1041C0008283FE0111C04081518102811381481711
:1041D0005907E0F04817590799F4109761F01296C3
:1041E0000C93129713961C933296CF01DF91CF91C7
:1041F0001F910F9108950093F3061093F406F4CFE6
:104200002115310551F04217530738F0A901DB01A0
:104210009A01BD01DF01F801C1CFEF01F9CF909301
:10422000F4068093F306CDCFFE01E20FF31F8193D6
:1042300091932250310939832883D7CF2091F106F9
:104240003091F206232B41F420910F01309110019F
:104250003093F2062093F10620910D0130910E016A
:104260002115310541F42DB73EB740911101509110
:104270001201241B350BE091F106F091F206E217D2
:10428000F307A0F42E1B3F0B2817390778F0AC0179
:104290004E5F5F4F2417350748F04E0F5F1F509356
:1042A000F2064093F106819391939FCFF0E0E0E016
:1042B0009CCFCF93DF930097E9F0FC0132971382F4
:1042C0001282A091F306B091F406ED0130E020E0F7
:1042D0001097A1F420813181820F931F2091F10664
:1042E0003091F2062817390709F061C0F093F20601
:1042F000E093F106DF91CF910895EA01CE17DF0731
:10430000E8F54A815B819E0141155105B1F7E9014C
:10431000FB83EA8349915991C40FD51FEC17FD0720
:1043200061F4808191810296840F951FE901998340
:104330008883828193819B838A83F0E0E0E01296F8
:104340008D919C9113970097B9F52D913C91119700
:10435000CD010296820F931F2091F1063091F20653
:104360002817390739F6309751F51092F406109254
:10437000F306B093F206A093F106BCCFD383C283B9
:1043800040815181840F951FC817D90761F44E5F92
:104390005F4F88819981480F591F518340838A81DB
:1043A0009B81938382832115310509F0B0CFF0936F
:1043B000F406E093F3069ECFFD01DC01C0CF13822B
:1043C0001282D7CFFB01DC0104C08D9101908019CE
:1043D00021F441505040C8F7881B990B0895FB0108
:1043E000DC014150504048F001900D920020C9F787
:1043F00001C01D9241505040E0F70895F894FFCF5E
:10440000FFFFFFFF0201000100010001000000F5B5
:104410000680000000400014005400A602AC02B266
:1044200002B802BE02CB02D502DF02EB02524946BD
:10443000460000000057415645666D74201000008C
:104440000001000100401F0000401F0000010008A3
:10445000006461746100000000000000008701E753
:10446000001401D401450123013701000000007E42
:10447000045104C10427044A04370428040000003E
:1044800000480EE700420CA90E00000000F911E7F9
:1044900000C104A90E00000000000FE30ED30EAA15
:1044A0000EB30E3610401020003E003E5265636F82
:1044B00072640020506C617900205265636F7264F1
:1044C000003E506C6179000D0A0054455354332E60
:1044D000776176005468652070726F6772616D2035
:1044E0007374617274656400534420636172642064
:1044F000696E697469616C697A6174696F6E20664E
:1045000061696C656400566F696365205265636F0D
:1045100072646572005072696E74656420746865B7
:10452000206D657373616765206F6E207468652008
:104530004C43442073637265656E005265636F720D
:1045400064696E672E2E2E002020205265636F72E4
:1045500064696E67002020205061757365642E2E9B
:104560002E005374617274656420506C6179696EB9
:10457000670046696C65204F70656E656400202099
:1045800020506C61796261636B00202020506C6167
:1045900079696E672E2E2E0020202053746F707064
:1045A0006564006869005465737430005465737401
:1045B00031005465737432005465737433004E6F68
:1045C000726D616C20566F6963650046617374207B
:1045D0004D6F646500536C6F77204D6F64650041CB
:1045E0006C76696E20566F696365004261746D6117
:0845F0006E20566F696365003F
:107E0000112484B714BE81FFF0D085E080938100F7
:107E100082E08093C00088E18093C10086E0809377
:107E2000C20080E18093C4008EE0C9D0259A86E02C
:107E300020E33CEF91E0309385002093840096BBD3
:107E4000B09BFECF1D9AA8958150A9F7CC24DD24C4
:107E500088248394B5E0AB2EA1E19A2EF3E0BF2EE7
:107E6000A2D0813461F49FD0082FAFD0023811F036
:107E7000013811F484E001C083E08DD089C08234E0
:107E800011F484E103C0853419F485E0A6D080C0E4
:107E9000853579F488D0E82EFF2485D0082F10E0AE
:107EA000102F00270E291F29000F111F8ED06801E7
:107EB0006FC0863521F484E090D080E0DECF843638
:107EC00009F040C070D06FD0082F6DD080E0C81688
:107ED00080E7D80618F4F601B7BEE895C0E0D1E017
:107EE00062D089930C17E1F7F0E0CF16F0E7DF06D8
:107EF00018F0F601B7BEE89568D007B600FCFDCFD4
:107F0000A601A0E0B1E02C9130E011968C91119780
:107F100090E0982F8827822B932B1296FA010C0160
:107F200087BEE89511244E5F5F4FF1E0A038BF0790
:107F300051F7F601A7BEE89507B600FCFDCF97BE46
:107F4000E89526C08437B1F42ED02DD0F82E2BD052
:107F50003CD0F601EF2C8F010F5F1F4F84911BD097
:107F6000EA94F801C1F70894C11CD11CFA94CF0C13
:107F7000D11C0EC0853739F428D08EE10CD085E9AC
:107F80000AD08FE07ACF813511F488E018D01DD067
:107F900080E101D065CF982F8091C00085FFFCCF94
:107FA0009093C60008958091C00087FFFCCF809118
:107FB000C00084FD01C0A8958091C6000895E0E648
:107FC000F0E098E1908380830895EDDF803219F02E
:107FD00088E0F5DFFFCF84E1DECF1F93182FE3DFCA
:107FE0001150E9F7F2DF1F91089580E0E8DFEE27F6
:047FF000FF270994CA
:027FFE00040479
:00000001FF
