:100000000C9434000C9449000C9449000C94490061
:100010000C9449000C9449000C9449000C9449003C
:100020000C9449000C9449000C9449000C9449002C
:100030000C9449000C9449000C9449000C9449001C
:100040000C9449000C9449000C9449000C9449000C
:100050000C9449000C9449000C9449000C944900FC
:100060000C9449000C94490011241FBECFEFD8E036
:10007000DEBFCDBF11E0A0E0B1E0E8E7F3E002C0F1
:1000800005900D92AA36B107D9F70E9478010C9419
:10009000BA010C94000085B988B18E7F88B988B107
:1000A0008D7F88B988B1846088B982E08A95F1F73C
:1000B00000C088B18B7F88B98FE697E10197F1F78F
:1000C00000C00000089585B988B1816088B988B101
:1000D0008D7F88B988B1846088B982E08A95F1F70C
:1000E00000C088B18B7F88B98FEC97E00197F1F75A
:1000F00000C0000008958FEF87B984B98FE39CE9B1
:100100000197F1F700C0000088E30E944B008CE0EB
:100110000E944B0086E00E944B0081E00E944B0051
:1001200080E80E944B0008950F931F93CF93DF93B5
:100130008C01C0E0D0E003C00E9463002196F8016A
:10014000EC0FFD1F80818111F7CFDF91CF911F91BF
:100150000F91089581E00E944B0080E80E944B00BF
:10016000089580910001909101018230910589F1FB
:100170002CF4009761F00197F1F008958430910517
:1001800009F443C0A4F1059709F44DC0089584E033
:1001900090E090930101809300010E94AA0084E402
:1001A00091E00E94940080EC0E944B0082E091E07C
:1001B0000E94940008950E94AA0089E091E00E94A4
:1001C000940080EC0E944B0085E391E00E94940033
:1001D00008950E94AA0086E291E00E94940080ECBB
:1001E0000E944B0080E191E00E94940008950E94DB
:1001F000AA0087E191E00E94940080EC0E944B00ED
:1002000083E591E00E94940008950E94AA0084E48E
:1002100091E00E94940080EC0E944B0082E091E00B
:100220000E949400089581E090E0909301018093F2
:1002300000010E94AA0089E091E00E94940080ECF5
:100240000E944B0085E391E00E9494000895809104
:1002500000019091010182309105D1F01CF40197C9
:1002600039F008958330910519F1049789F10895C3
:100270000E94AA008EE191E00E9494002FE789EA93
:1002800093E0215080409040E1F700C000000895C5
:100290000E94AA008DE291E00E9494002FE789EA73
:1002A00093E0215080409040E1F700C000000895A5
:1002B0000E94AA008CE391E00E9494002FE789EA53
:1002C00093E0215080409040E1F700C00000089585
:1002D0000E94AA008BE491E00E9494002FE789EA33
:1002E00093E0215080409040E1F700C00000089565
:1002F0000E947B001AB88BB181608BB98BB1826090
:100300008BB98BB184608BB98AE591E00E9494002F
:100310002FEF80E792E0215080409040E1F700C04D
:1003200000000E94B10049990DC080910001909198
:100330000101019690930101809300010E94B10098
:10034000499BFECF48990DC0809100019091010119
:10035000019790930101809300010E94B100489B96
:10036000FECF4A99E0CF0E9427010E94B1004A9B2C
:08037000FECFD9CFF894FFCFB6
:1003780001003E536F6E6734003E536F6E67310065
:100388003E536F6E6732003E536F6E6733003E50C8
:100398006C6179696E6720536F6E6731003E506CEF
:1003A8006179696E6720536F6E6732003E506C61E9
:1003B80079696E6720536F6E6733003E506C6179C0
:1003C800696E6720536F6E673400566F69636520E6
:0A03D8005265636F726465720000E5
:00000001FF
