S01000006C636461746D656C2E73726563CE
S11300000C9434000C9449000C9449000C9449005D
S11300100C9449000C9444020C9449000C9449003B
S11300200C9449000C9449000C9449000C94490028
S11300300C9449000C9449000C9449000C94490018
S11300400C9449000C9449000C9449000C94490008
S11300500C9449000C9449000C9449000C944900F8
S11300600C9449000C94490011241FBECFEFD8E032
S1130070DEBFCDBF11E0A0E0B1E0EEECF5E002C0E0
S113008005900D92AA38B107D9F70E9497020C94F3
S1130090E5020C94000082E68093B80084E080932B
S11300A0BC001092B900089584EA8093BC0080914A
S11300B0BC008823E4F708958093BB0084E8809310
S11300C0BC008091BC008823E4F7089540E050E030
S11300D00AC02F5F3F4F02C020E030E029373105CE
S11300E0C4F34F5F5F4F84179507B4F70895EBEBA4
S11300F0F0E080818260808384E88093BC008091FA
S1130100BC008823E4F781E090E00E946600EBEBFA
S1130110F0E080818D7F808384E88093BC008091AF
S1130120BC008823E4F70895EBEBF0E090819E7F18
S1130130908394E89093BC009091BC009923E4F7D9
S1130140EBEBF0E090819F70908394E89093BC0077
S11301509091BC009923E4F7EBEBF0E09081807F71
S1130160892B808384E88093BC008091BC00882321
S1130170E4F70E9477000895CF93C82FEBEBF0E0EB
S113018080818E7F808384E88093BC008091BC0052
S11301908823E4F7EBEBF0E080818F70808384E8C0
S11301A08093BC008091BC008823E4F7EBEBF0E083
S11301B080819C2F907F892B808384E88093BC006E
S11301C08091BC008823E4F70E947700EBEBF0E019
S11301D080818F70808384E88093BC008091BC0010
S11301E08823E4F7EBEBF0E0208130E1C39FC0010A
S11301F01124822B808384E88093BC008091BC000E
S11302008823E4F70E947700CF91089580E30E9449
S1130210940080E30E94940080E20E94940088E2AB
S11302200E94BC008CE00E94BC0081E00E94BC00E3
S113023086E00E94BC0080E80E94BC000895CF9331
S1130240C82FEBEBF0E080818160808384E88093A9
S1130250BC008091BC008823E4F7EBEBF0E08081E4
S11302608F70808384E88093BC008091BC008823D5
S1130270E4F7EBEBF0E080819C2F907F892B808367
S113028084E88093BC008091BC008823E4F70E943A
S11302907700EBEBF0E080818F70808384E88093BB
S11302A0BC008091BC008823E4F7EBEBF0E02081F4
S11302B030E1C39FC0011124822B808384E88093A2
S11302C0BC008091BC008823E4F70E947700CF91A2
S11302D00895CF93DF93EC0103C021960E941F0180
S11302E088818111FACFDF91CF91089581E00E9436
S11302F0BC0080E80E94BC000895809101019091A7
S113030002018230910589F12CF4009761F0019784
S1130310F1F008958430910509F443C0A4F10597E0
S113032009F44DC0089584E090E090930201809315
S113033001010E94760185E491E00E94690180EC4C
S11303400E94BC0083E091E00E94690108950E942C
S113035076018AE091E00E94690180EC0E94BC0071
S113036086E391E00E94690108950E94760187E284
S113037091E00E94690180EC0E94BC0081E191E05F
S11303800E94690108950E94760188E191E00E942B
S1130390690180EC0E94BC0084E591E00E9469013F
S11303A008950E94760185E491E00E94690180EC41
S11303B00E94BC0083E091E00E946901089581E0FD
S11303C090E090930201809301010E9476018AE0FB
S11303D091E00E94690180EC0E94BC0086E391E0F8
S11303E00E94690108958091010190910201823077
S11303F09105D1F01CF4019739F0089583309105EB
S113040019F1049789F108950E9476018FE191E032
S11304100E9469012FE789EA93E0215080409040CF
S1130420E1F700C0000008950E9476018EE291E099
S11304300E9469012FE789EA93E0215080409040AF
S1130440E1F700C0000008950E9476018DE391E079
S11304500E9469012FE789EA93E02150804090408F
S1130460E1F700C0000008950E9476018CE491E059
S11304700E9469012FE789EA93E02150804090406F
S1130480E1F700C0000008951F920F920FB60F927B
S113049011242F933F934F935F936F937F938F9385
S11304A09F93AF93BF93EF93FF9399B19873809108
S11304B00001892790930001803129F0803261F096
S11304C0883021F51DC04C9B21C00E9476018BE52C
S11304D091E00E9469011AC04D9B18C00E947601E8
S11304E088E691E00E9469012FEF81EE94E02150AB
S11304F080409040E1F700C000000E947D0106C0EA
S11305004B9B04C00E9476010E947D01FF91EF91F4
S1130510BF91AF919F918F917F916F915F914F9117
S11305203F912F910F900FBE0F901F9018950E942E
S11305304B000E94540080E70E945C000E94060168
S11305408BE791E00E9469012FEF80E792E0215050
S113055080409040E1F700C000000E947D011AB87D
S11305608BB18FEF8BB9E8E6F0E080818460808303
S1130570EDE6F0E0808188638083789449990DC02A
S11305808091010190910201019690930201809360
S113059001010E947D01499BFECF48990DC08091C5
S11305A0010190910201019790930201809301014E
S11305B00E947D01489BFECF4A99E0CF0E94F3013F
S11105C00E947D014A9BFECFD9CFF894FFCF55
S11305CEFF01003E536F6E6734003E536F6E67310A
S11305DE003E536F6E6732003E536F6E6733003EBC
S11305EE506C6179696E6720536F6E6731003E50AF
S11305FE6C6179696E6720536F6E6732003E506C82
S113060E6179696E6720536F6E6733003E506C617B
S113061E79696E6720536F6E6734005265636F722B
S113062E64696E672E2E2E005265636F7264696E56
S113063E672066696E697368656400566F696365E1
S10D064E205265636F726465720048
S9030000FC
