:100000000C9434000C94FC000C943E000C943E00C4
:100010000C943E000C943E000C943E000C943E0068
:100020000C943E000C943E000C943E000C943E0058
:100030000C943E000C94CB000C943E000C943E00BB
:100040000C943E000C943E000C943E000C943E0038
:100050000C943E000C943E000C943E000C943E0028
:100060000C943E000C943E0011241FBECFEFD8E04C
:10007000DEBFCDBF0E9436010C9461010C940000DC
:1000800080E180937E0084E480937C0083E8809309
:100090007A00789485E0809381008EEF9FEF9093B3
:1000A000850080938400EFE6F0E0808181608083AA
:1000B00088E08AB98BB9089510927E0010927A0078
:1000C000F89410926F001BB81AB878940895EAE774
:1000D000F0E080818064808380917A0086FDFCCF8F
:1000E0008091780090917900EAE7F0E0908190614A
:1000F000908390E0089589E18093C40086E0809326
:10010000C200E1ECF0E08081886080830895109265
:10011000C4001092C2001092C1000895CF93DF93E3
:10012000EC01EAE0F0E0BF010E943901282FCB0189
:10013000BF010E943901382FCE0164E670E00E94B1
:100140003901CB01BF010E943901205D305D805D26
:100150009091C00095FFFCCF8093C6009091C000A5
:1001600095FFFCCF3093C6009091C00095FFFCCF67
:100170002093C6008091C00085FFFCCF8DE0809366
:10018000C6008091C00085FFFCCF8AE08093C60046
:10019000DF91CF9108951F920F920FB60F92112405
:1001A0002F933F934F935F936F937F938F939F937F
:1001B000AF93BF93EF93FF930E94670099270E942C
:1001C0008E009BB188E089278BB98EEF9FEF9093CB
:1001D000850080938400FF91EF91BF91AF919F9133
:1001E0008F917F916F915F914F913F912F910F90E0
:1001F0000FBE0F901F9018951F920F920FB60F927F
:1002000011242F933F934F935F936F937F938F931B
:100210009F93AF93BF93EF93FF9380917A008823CE
:100220002CF00E947B000E94400004C00E945C00F1
:100230000E948700FF91EF91BF91AF919F918F91A5
:100240007F916F915F914F913F912F910F900FBED2
:100250000F901F901895F894E9E6F0E08081836094
:1002600080838DB381608DBB789408950E942B01AB
:10027000FFCF97FB072E16F4009407D077FD09D027
:100280000E944D0107FC05D03EF4909581959F4F4B
:100290000895709561957F4F0895AA1BBB1B51E18E
:1002A00007C0AA1FBB1FA617B70710F0A61BB70BE6
:1002B000881F991F5A95A9F780959095BC01CD018B
:0602C0000895F894FFCF41
:00000001FF
